{
	"staking2.sol": {
		"StakingTokens": {
			"abi": [
				{
					"inputs": [
						{
							"internalType": "contract IERC20",
							"name": "_token",
							"type": "address"
						}
					],
					"stateMutability": "nonpayable",
					"type": "constructor"
				},
				{
					"inputs": [
						{
							"internalType": "address",
							"name": "target",
							"type": "address"
						}
					],
					"name": "AddressEmptyCode",
					"type": "error"
				},
				{
					"inputs": [
						{
							"internalType": "address",
							"name": "account",
							"type": "address"
						}
					],
					"name": "AddressInsufficientBalance",
					"type": "error"
				},
				{
					"inputs": [],
					"name": "FailedInnerCall",
					"type": "error"
				},
				{
					"inputs": [
						{
							"internalType": "string",
							"name": "message",
							"type": "string"
						}
					],
					"name": "InsufficientBalance",
					"type": "error"
				},
				{
					"inputs": [
						{
							"internalType": "address",
							"name": "token",
							"type": "address"
						}
					],
					"name": "SafeERC20FailedOperation",
					"type": "error"
				},
				{
					"inputs": [
						{
							"internalType": "string",
							"name": "message",
							"type": "string"
						}
					],
					"name": "TimeNotCompleted",
					"type": "error"
				},
				{
					"anonymous": false,
					"inputs": [
						{
							"indexed": true,
							"internalType": "address",
							"name": "user",
							"type": "address"
						},
						{
							"indexed": false,
							"internalType": "uint256",
							"name": "amount",
							"type": "uint256"
						}
					],
					"name": "Reward",
					"type": "event"
				},
				{
					"anonymous": false,
					"inputs": [
						{
							"indexed": true,
							"internalType": "address",
							"name": "user",
							"type": "address"
						},
						{
							"indexed": false,
							"internalType": "uint256",
							"name": "amount",
							"type": "uint256"
						}
					],
					"name": "Staked",
					"type": "event"
				},
				{
					"anonymous": false,
					"inputs": [
						{
							"indexed": true,
							"internalType": "address",
							"name": "user",
							"type": "address"
						}
					],
					"name": "Withdrawed",
					"type": "event"
				},
				{
					"inputs": [
						{
							"internalType": "uint256",
							"name": "amount",
							"type": "uint256"
						}
					],
					"name": "fundRewards",
					"outputs": [],
					"stateMutability": "nonpayable",
					"type": "function"
				},
				{
					"inputs": [
						{
							"internalType": "uint256",
							"name": "_amount",
							"type": "uint256"
						}
					],
					"name": "stake",
					"outputs": [],
					"stateMutability": "nonpayable",
					"type": "function"
				},
				{
					"inputs": [
						{
							"internalType": "address",
							"name": "",
							"type": "address"
						}
					],
					"name": "stakers",
					"outputs": [
						{
							"internalType": "uint256",
							"name": "amount",
							"type": "uint256"
						},
						{
							"internalType": "uint256",
							"name": "timestamp",
							"type": "uint256"
						}
					],
					"stateMutability": "view",
					"type": "function"
				},
				{
					"inputs": [
						{
							"internalType": "address",
							"name": "_user",
							"type": "address"
						}
					],
					"name": "timeUntilWithdrawable",
					"outputs": [
						{
							"internalType": "uint256",
							"name": "",
							"type": "uint256"
						}
					],
					"stateMutability": "view",
					"type": "function"
				},
				{
					"inputs": [],
					"name": "token",
					"outputs": [
						{
							"internalType": "contract IERC20",
							"name": "",
							"type": "address"
						}
					],
					"stateMutability": "view",
					"type": "function"
				},
				{
					"inputs": [],
					"name": "withdraw",
					"outputs": [],
					"stateMutability": "nonpayable",
					"type": "function"
				}
			],
			"devdoc": {
				"author": "Tushar Arora",
				"details": "uses SafeERC20",
				"errors": {
					"AddressEmptyCode(address)": [
						{
							"details": "There's no code at `target` (it is not a contract)."
						}
					],
					"AddressInsufficientBalance(address)": [
						{
							"details": "The ETH balance of the account is not enough to perform the operation."
						}
					],
					"FailedInnerCall()": [
						{
							"details": "A call to an address target failed. The target may have reverted."
						}
					],
					"SafeERC20FailedOperation(address)": [
						{
							"details": "An operation with an ERC20 token failed."
						}
					]
				},
				"kind": "dev",
				"methods": {
					"fundRewards(uint256)": {
						"custom:important": "This function should only be called by the person who desires to give his fund to this contract.",
						"params": {
							"amount": "The amount you want to fund this contract with, so that this contract can give rewards."
						}
					},
					"stake(uint256)": {
						"details": "Sets the value for {_amount}",
						"params": {
							"_amount": "Value a user want to stake."
						}
					},
					"timeUntilWithdrawable(address)": {
						"params": {
							"_user": "Address of the user inquiring about the remaining wait time before withdrawal.  It tells the user how much time left before he can withdraw his balance."
						}
					}
				},
				"title": "A contract to allow people to stake coins and get rewards.",
				"version": 1
			},
			"evm": {
				"assembly": "    /* \"staking2.sol\":264:3773  contract StakingTokens... */\n  mstore(0x40, 0xa0)\n    /* \"staking2.sol\":778:844  constructor(IERC20 _token) ... */\n  callvalue\n  dup1\n  iszero\n  tag_1\n  jumpi\n  0x00\n  dup1\n  revert\ntag_1:\n  pop\n  mload(0x40)\n  sub(codesize, bytecodeSize)\n  dup1\n  bytecodeSize\n  dup4\n  codecopy\n  dup2\n  dup2\n  add\n  0x40\n  mstore\n  dup2\n  add\n  swap1\n  tag_2\n  swap2\n  swap1\n  tag_3\n  jump\t// in\ntag_2:\n    /* \"staking2.sol\":830:836  _token */\n  dup1\n    /* \"staking2.sol\":822:836  token = _token */\n  0xffffffffffffffffffffffffffffffffffffffff\n  and\n  0x80\n  dup2\n  0xffffffffffffffffffffffffffffffffffffffff\n  and\n  dup2\n  mstore\n  pop\n  pop\n    /* \"staking2.sol\":778:844  constructor(IERC20 _token) ... */\n  pop\n    /* \"staking2.sol\":264:3773  contract StakingTokens... */\n  jump(tag_6)\n    /* \"#utility.yul\":88:205   */\ntag_8:\n    /* \"#utility.yul\":197:198   */\n  0x00\n    /* \"#utility.yul\":194:195   */\n  dup1\n    /* \"#utility.yul\":187:199   */\n  revert\n    /* \"#utility.yul\":334:460   */\ntag_10:\n    /* \"#utility.yul\":371:378   */\n  0x00\n    /* \"#utility.yul\":411:453   */\n  0xffffffffffffffffffffffffffffffffffffffff\n    /* \"#utility.yul\":404:409   */\n  dup3\n    /* \"#utility.yul\":400:454   */\n  and\n    /* \"#utility.yul\":389:454   */\n  swap1\n  pop\n    /* \"#utility.yul\":334:460   */\n  swap2\n  swap1\n  pop\n  jump\t// out\n    /* \"#utility.yul\":466:562   */\ntag_11:\n    /* \"#utility.yul\":503:510   */\n  0x00\n    /* \"#utility.yul\":532:556   */\n  tag_21\n    /* \"#utility.yul\":550:555   */\n  dup3\n    /* \"#utility.yul\":532:556   */\n  tag_10\n  jump\t// in\ntag_21:\n    /* \"#utility.yul\":521:556   */\n  swap1\n  pop\n    /* \"#utility.yul\":466:562   */\n  swap2\n  swap1\n  pop\n  jump\t// out\n    /* \"#utility.yul\":568:677   */\ntag_12:\n    /* \"#utility.yul\":618:625   */\n  0x00\n    /* \"#utility.yul\":647:671   */\n  tag_23\n    /* \"#utility.yul\":665:670   */\n  dup3\n    /* \"#utility.yul\":647:671   */\n  tag_11\n  jump\t// in\ntag_23:\n    /* \"#utility.yul\":636:671   */\n  swap1\n  pop\n    /* \"#utility.yul\":568:677   */\n  swap2\n  swap1\n  pop\n  jump\t// out\n    /* \"#utility.yul\":683:831   */\ntag_13:\n    /* \"#utility.yul\":769:806   */\n  tag_25\n    /* \"#utility.yul\":800:805   */\n  dup2\n    /* \"#utility.yul\":769:806   */\n  tag_12\n  jump\t// in\ntag_25:\n    /* \"#utility.yul\":762:767   */\n  dup2\n    /* \"#utility.yul\":759:807   */\n  eq\n    /* \"#utility.yul\":749:825   */\n  tag_26\n  jumpi\n    /* \"#utility.yul\":821:822   */\n  0x00\n    /* \"#utility.yul\":818:819   */\n  dup1\n    /* \"#utility.yul\":811:823   */\n  revert\n    /* \"#utility.yul\":749:825   */\ntag_26:\n    /* \"#utility.yul\":683:831   */\n  pop\n  jump\t// out\n    /* \"#utility.yul\":837:1006   */\ntag_14:\n    /* \"#utility.yul\":907:912   */\n  0x00\n    /* \"#utility.yul\":938:944   */\n  dup2\n    /* \"#utility.yul\":932:945   */\n  mload\n    /* \"#utility.yul\":923:945   */\n  swap1\n  pop\n    /* \"#utility.yul\":954:1000   */\n  tag_28\n    /* \"#utility.yul\":994:999   */\n  dup2\n    /* \"#utility.yul\":954:1000   */\n  tag_13\n  jump\t// in\ntag_28:\n    /* \"#utility.yul\":837:1006   */\n  swap3\n  swap2\n  pop\n  pop\n  jump\t// out\n    /* \"#utility.yul\":1012:1389   */\ntag_3:\n    /* \"#utility.yul\":1095:1101   */\n  0x00\n    /* \"#utility.yul\":1144:1146   */\n  0x20\n    /* \"#utility.yul\":1132:1141   */\n  dup3\n    /* \"#utility.yul\":1123:1130   */\n  dup5\n    /* \"#utility.yul\":1119:1142   */\n  sub\n    /* \"#utility.yul\":1115:1147   */\n  slt\n    /* \"#utility.yul\":1112:1231   */\n  iszero\n  tag_30\n  jumpi\n    /* \"#utility.yul\":1150:1229   */\n  tag_31\n  tag_8\n  jump\t// in\ntag_31:\n    /* \"#utility.yul\":1112:1231   */\ntag_30:\n    /* \"#utility.yul\":1270:1271   */\n  0x00\n    /* \"#utility.yul\":1295:1372   */\n  tag_32\n    /* \"#utility.yul\":1364:1371   */\n  dup5\n    /* \"#utility.yul\":1355:1361   */\n  dup3\n    /* \"#utility.yul\":1344:1353   */\n  dup6\n    /* \"#utility.yul\":1340:1362   */\n  add\n    /* \"#utility.yul\":1295:1372   */\n  tag_14\n  jump\t// in\ntag_32:\n    /* \"#utility.yul\":1285:1372   */\n  swap2\n  pop\n    /* \"#utility.yul\":1241:1382   */\n  pop\n    /* \"#utility.yul\":1012:1389   */\n  swap3\n  swap2\n  pop\n  pop\n  jump\t// out\n    /* \"staking2.sol\":264:3773  contract StakingTokens... */\ntag_6:\n  mload(0x80)\n  codecopy(0x00, dataOffset(sub_0), dataSize(sub_0))\n  0x00\n  assignImmutable(\"0x887d510a66c2c5edb473d8bcaa91e9efa96aa179a0ec88f5292ca216a1999f71\")\n  return(0x00, dataSize(sub_0))\nstop\n\nsub_0: assembly {\n        /* \"staking2.sol\":264:3773  contract StakingTokens... */\n      mstore(0x40, 0x80)\n      callvalue\n      dup1\n      iszero\n      tag_1\n      jumpi\n      0x00\n      dup1\n      revert\n    tag_1:\n      pop\n      jumpi(tag_2, lt(calldatasize, 0x04))\n      shr(0xe0, calldataload(0x00))\n      dup1\n      0x3ccfd60b\n      eq\n      tag_3\n      jumpi\n      dup1\n      0x3e11f2e9\n      eq\n      tag_4\n      jumpi\n      dup1\n      0x9168ae72\n      eq\n      tag_5\n      jumpi\n      dup1\n      0x93707a19\n      eq\n      tag_6\n      jumpi\n      dup1\n      0xa694fc3a\n      eq\n      tag_7\n      jumpi\n      dup1\n      0xfc0c546a\n      eq\n      tag_8\n      jumpi\n    tag_2:\n      0x00\n      dup1\n      revert\n        /* \"staking2.sol\":1780:2744  function withdraw() public ... */\n    tag_3:\n      tag_9\n      tag_10\n      jump\t// in\n    tag_9:\n      stop\n        /* \"staking2.sol\":3466:3770  function timeUntilWithdrawable(address _user) public view returns (uint256)... */\n    tag_4:\n      tag_11\n      0x04\n      dup1\n      calldatasize\n      sub\n      dup2\n      add\n      swap1\n      tag_12\n      swap2\n      swap1\n      tag_13\n      jump\t// in\n    tag_12:\n      tag_14\n      jump\t// in\n    tag_11:\n      mload(0x40)\n      tag_15\n      swap2\n      swap1\n      tag_16\n      jump\t// in\n    tag_15:\n      mload(0x40)\n      dup1\n      swap2\n      sub\n      swap1\n      return\n        /* \"staking2.sol\":729:769  mapping(address => Stake) public stakers */\n    tag_5:\n      tag_17\n      0x04\n      dup1\n      calldatasize\n      sub\n      dup2\n      add\n      swap1\n      tag_18\n      swap2\n      swap1\n      tag_13\n      jump\t// in\n    tag_18:\n      tag_19\n      jump\t// in\n    tag_17:\n      mload(0x40)\n      tag_20\n      swap3\n      swap2\n      swap1\n      tag_21\n      jump\t// in\n    tag_20:\n      mload(0x40)\n      dup1\n      swap2\n      sub\n      swap1\n      return\n        /* \"staking2.sol\":3005:3250  function fundRewards(uint amount) public... */\n    tag_6:\n      tag_22\n      0x04\n      dup1\n      calldatasize\n      sub\n      dup2\n      add\n      swap1\n      tag_23\n      swap2\n      swap1\n      tag_24\n      jump\t// in\n    tag_23:\n      tag_25\n      jump\t// in\n    tag_22:\n      stop\n        /* \"staking2.sol\":1082:1577  function stake(uint256 _amount) public... */\n    tag_7:\n      tag_26\n      0x04\n      dup1\n      calldatasize\n      sub\n      dup2\n      add\n      swap1\n      tag_27\n      swap2\n      swap1\n      tag_24\n      jump\t// in\n    tag_27:\n      tag_28\n      jump\t// in\n    tag_26:\n      stop\n        /* \"staking2.sol\":328:357  IERC20 public immutable token */\n    tag_8:\n      tag_29\n      tag_30\n      jump\t// in\n    tag_29:\n      mload(0x40)\n      tag_31\n      swap2\n      swap1\n      tag_32\n      jump\t// in\n    tag_31:\n      mload(0x40)\n      dup1\n      swap2\n      sub\n      swap1\n      return\n        /* \"staking2.sol\":1780:2744  function withdraw() public ... */\n    tag_10:\n        /* \"staking2.sol\":1824:1841  Stake memory user */\n      0x00\n        /* \"staking2.sol\":1844:1851  stakers */\n      dup1\n        /* \"staking2.sol\":1844:1863  stakers[msg.sender] */\n      0x00\n        /* \"staking2.sol\":1852:1862  msg.sender */\n      caller\n        /* \"staking2.sol\":1844:1863  stakers[msg.sender] */\n      0xffffffffffffffffffffffffffffffffffffffff\n      and\n      0xffffffffffffffffffffffffffffffffffffffff\n      and\n      dup2\n      mstore\n      0x20\n      add\n      swap1\n      dup2\n      mstore\n      0x20\n      add\n      0x00\n      keccak256\n        /* \"staking2.sol\":1824:1863  Stake memory user = stakers[msg.sender] */\n      mload(0x40)\n      dup1\n      0x40\n      add\n      0x40\n      mstore\n      swap1\n      dup2\n      0x00\n      dup3\n      add\n      sload\n      dup2\n      mstore\n      0x20\n      add\n      0x01\n      dup3\n      add\n      sload\n      dup2\n      mstore\n      pop\n      pop\n      swap1\n      pop\n        /* \"staking2.sol\":1891:1892  0 */\n      0x00\n        /* \"staking2.sol\":1877:1881  user */\n      dup2\n        /* \"staking2.sol\":1877:1888  user.amount */\n      0x00\n      add\n      mload\n        /* \"staking2.sol\":1877:1892  user.amount < 0 */\n      lt\n        /* \"staking2.sol\":1874:1976  if(user.amount < 0)... */\n      iszero\n      tag_34\n      jumpi\n        /* \"staking2.sol\":1925:1964  InsufficientBalance(\"No Tokens Staked\") */\n      mload(0x40)\n      0x7979dc8700000000000000000000000000000000000000000000000000000000\n      dup2\n      mstore\n      0x04\n      add\n      tag_35\n      swap1\n      tag_36\n      jump\t// in\n    tag_35:\n      mload(0x40)\n      dup1\n      swap2\n      sub\n      swap1\n      revert\n        /* \"staking2.sol\":1874:1976  if(user.amount < 0)... */\n    tag_34:\n        /* \"staking2.sol\":2025:2032  1 hours */\n      0x0e10\n        /* \"staking2.sol\":2008:2012  user */\n      dup2\n        /* \"staking2.sol\":2008:2022  user.timestamp */\n      0x20\n      add\n      mload\n        /* \"staking2.sol\":2008:2032  user.timestamp + 1 hours */\n      tag_37\n      swap2\n      swap1\n      tag_38\n      jump\t// in\n    tag_37:\n        /* \"staking2.sol\":1989:2004  block.timestamp */\n      timestamp\n        /* \"staking2.sol\":1989:2032  block.timestamp <= user.timestamp + 1 hours */\n      gt\n        /* \"staking2.sol\":1986:2106  if(block.timestamp <= user.timestamp + 1 hours)... */\n      tag_39\n      jumpi\n        /* \"staking2.sol\":2054:2106  TimeNotCompleted(\"You can't withdraw before 1 hour\") */\n      mload(0x40)\n      0x30f1c21600000000000000000000000000000000000000000000000000000000\n      dup2\n      mstore\n      0x04\n      add\n      tag_40\n      swap1\n      tag_41\n      jump\t// in\n    tag_40:\n      mload(0x40)\n      dup1\n      swap2\n      sub\n      swap1\n      revert\n        /* \"staking2.sol\":1986:2106  if(block.timestamp <= user.timestamp + 1 hours)... */\n    tag_39:\n        /* \"staking2.sol\":2117:2131  uint stakeTime */\n      0x00\n        /* \"staking2.sol\":2152:2156  user */\n      dup2\n        /* \"staking2.sol\":2152:2166  user.timestamp */\n      0x20\n      add\n      mload\n        /* \"staking2.sol\":2134:2149  block.timestamp */\n      timestamp\n        /* \"staking2.sol\":2134:2166  block.timestamp - user.timestamp */\n      tag_42\n      swap2\n      swap1\n      tag_43\n      jump\t// in\n    tag_42:\n        /* \"staking2.sol\":2117:2166  uint stakeTime = block.timestamp - user.timestamp */\n      swap1\n      pop\n        /* \"staking2.sol\":2177:2188  uint reward */\n      0x00\n        /* \"staking2.sol\":2217:2221  3600 */\n      0x0e10\n        /* \"staking2.sol\":2205:2214  stakeTime */\n      dup3\n        /* \"staking2.sol\":2191:2195  user */\n      dup5\n        /* \"staking2.sol\":2191:2202  user.amount */\n      0x00\n      add\n      mload\n        /* \"staking2.sol\":2191:2214  user.amount * stakeTime */\n      tag_44\n      swap2\n      swap1\n      tag_45\n      jump\t// in\n    tag_44:\n        /* \"staking2.sol\":2191:2221  user.amount * stakeTime / 3600 */\n      tag_46\n      swap2\n      swap1\n      tag_47\n      jump\t// in\n    tag_46:\n        /* \"staking2.sol\":2177:2221  uint reward = user.amount * stakeTime / 3600 */\n      swap1\n      pop\n        /* \"staking2.sol\":2380:2386  reward */\n      dup1\n        /* \"staking2.sol\":2366:2370  user */\n      dup4\n        /* \"staking2.sol\":2366:2377  user.amount */\n      0x00\n      add\n      mload\n        /* \"staking2.sol\":2366:2386  user.amount + reward */\n      tag_48\n      swap2\n      swap1\n      tag_38\n      jump\t// in\n    tag_48:\n        /* \"staking2.sol\":2332:2337  token */\n      immutable(\"0x887d510a66c2c5edb473d8bcaa91e9efa96aa179a0ec88f5292ca216a1999f71\")\n        /* \"staking2.sol\":2332:2347  token.balanceOf */\n      0xffffffffffffffffffffffffffffffffffffffff\n      and\n      0x70a08231\n        /* \"staking2.sol\":2356:2360  this */\n      address\n        /* \"staking2.sol\":2332:2362  token.balanceOf(address(this)) */\n      mload(0x40)\n      dup3\n      0xffffffff\n      and\n      0xe0\n      shl\n      dup2\n      mstore\n      0x04\n      add\n      tag_49\n      swap2\n      swap1\n      tag_50\n      jump\t// in\n    tag_49:\n      0x20\n      mload(0x40)\n      dup1\n      dup4\n      sub\n      dup2\n      dup7\n      gas\n      staticcall\n      iszero\n      dup1\n      iszero\n      tag_52\n      jumpi\n      returndatasize\n      0x00\n      dup1\n      returndatacopy\n      revert(0x00, returndatasize)\n    tag_52:\n      pop\n      pop\n      pop\n      pop\n      mload(0x40)\n      returndatasize\n      not(0x1f)\n      0x1f\n      dup3\n      add\n      and\n      dup3\n      add\n      dup1\n      0x40\n      mstore\n      pop\n      dup2\n      add\n      swap1\n      tag_53\n      swap2\n      swap1\n      tag_54\n      jump\t// in\n    tag_53:\n        /* \"staking2.sol\":2332:2386  token.balanceOf(address(this)) >= user.amount + reward */\n      lt\n      iszero\n        /* \"staking2.sol\":2324:2422  require(token.balanceOf(address(this)) >= user.amount + reward, \"Not Enough Money to give reward\") */\n      tag_55\n      jumpi\n      mload(0x40)\n      0x08c379a000000000000000000000000000000000000000000000000000000000\n      dup2\n      mstore\n      0x04\n      add\n      tag_56\n      swap1\n      tag_57\n      jump\t// in\n    tag_56:\n      mload(0x40)\n      dup1\n      swap2\n      sub\n      swap1\n      revert\n    tag_55:\n        /* \"staking2.sol\":2491:2543  token.safeTransfer(msg.sender, user.amount + reward) */\n      tag_58\n        /* \"staking2.sol\":2510:2520  msg.sender */\n      caller\n        /* \"staking2.sol\":2536:2542  reward */\n      dup3\n        /* \"staking2.sol\":2522:2526  user */\n      dup6\n        /* \"staking2.sol\":2522:2533  user.amount */\n      0x00\n      add\n      mload\n        /* \"staking2.sol\":2522:2542  user.amount + reward */\n      tag_59\n      swap2\n      swap1\n      tag_38\n      jump\t// in\n    tag_59:\n        /* \"staking2.sol\":2491:2496  token */\n      immutable(\"0x887d510a66c2c5edb473d8bcaa91e9efa96aa179a0ec88f5292ca216a1999f71\")\n        /* \"staking2.sol\":2491:2509  token.safeTransfer */\n      0xffffffffffffffffffffffffffffffffffffffff\n      and\n      tag_60\n      swap1\n        /* \"staking2.sol\":2491:2543  token.safeTransfer(msg.sender, user.amount + reward) */\n      swap3\n      swap2\n      swap1\n      0xffffffff\n      and\n      jump\t// in\n    tag_58:\n        /* \"staking2.sol\":2609:2610  0 */\n      0x00\n        /* \"staking2.sol\":2580:2587  stakers */\n      dup1\n        /* \"staking2.sol\":2580:2599  stakers[msg.sender] */\n      0x00\n        /* \"staking2.sol\":2588:2598  msg.sender */\n      caller\n        /* \"staking2.sol\":2580:2599  stakers[msg.sender] */\n      0xffffffffffffffffffffffffffffffffffffffff\n      and\n      0xffffffffffffffffffffffffffffffffffffffff\n      and\n      dup2\n      mstore\n      0x20\n      add\n      swap1\n      dup2\n      mstore\n      0x20\n      add\n      0x00\n      keccak256\n        /* \"staking2.sol\":2580:2606  stakers[msg.sender].amount */\n      0x00\n      add\n        /* \"staking2.sol\":2580:2610  stakers[msg.sender].amount = 0 */\n      dup2\n      swap1\n      sstore\n      pop\n        /* \"staking2.sol\":2653:2654  0 */\n      0x00\n        /* \"staking2.sol\":2621:2628  stakers */\n      dup1\n        /* \"staking2.sol\":2621:2640  stakers[msg.sender] */\n      0x00\n        /* \"staking2.sol\":2629:2639  msg.sender */\n      caller\n        /* \"staking2.sol\":2621:2640  stakers[msg.sender] */\n      0xffffffffffffffffffffffffffffffffffffffff\n      and\n      0xffffffffffffffffffffffffffffffffffffffff\n      and\n      dup2\n      mstore\n      0x20\n      add\n      swap1\n      dup2\n      mstore\n      0x20\n      add\n      0x00\n      keccak256\n        /* \"staking2.sol\":2621:2650  stakers[msg.sender].timestamp */\n      0x01\n      add\n        /* \"staking2.sol\":2621:2654  stakers[msg.sender].timestamp = 0 */\n      dup2\n      swap1\n      sstore\n      pop\n        /* \"staking2.sol\":2679:2689  msg.sender */\n      caller\n        /* \"staking2.sol\":2672:2698  Reward(msg.sender, reward) */\n      0xffffffffffffffffffffffffffffffffffffffff\n      and\n      0x619caafabdd75649b302ba8419e48cccf64f37f1983ac4727cfb38b57703ffc9\n        /* \"staking2.sol\":2691:2697  reward */\n      dup3\n        /* \"staking2.sol\":2672:2698  Reward(msg.sender, reward) */\n      mload(0x40)\n      tag_61\n      swap2\n      swap1\n      tag_16\n      jump\t// in\n    tag_61:\n      mload(0x40)\n      dup1\n      swap2\n      sub\n      swap1\n      log2\n        /* \"staking2.sol\":2725:2735  msg.sender */\n      caller\n        /* \"staking2.sol\":2714:2736  Withdrawed(msg.sender) */\n      0xffffffffffffffffffffffffffffffffffffffff\n      and\n      0xcecccf974394b5dfc20e8840042bbaa68e166eff261ba930e076891582965d41\n      mload(0x40)\n      mload(0x40)\n      dup1\n      swap2\n      sub\n      swap1\n      log2\n        /* \"staking2.sol\":1813:2744  {... */\n      pop\n      pop\n      pop\n        /* \"staking2.sol\":1780:2744  function withdraw() public ... */\n      jump\t// out\n        /* \"staking2.sol\":3466:3770  function timeUntilWithdrawable(address _user) public view returns (uint256)... */\n    tag_14:\n        /* \"staking2.sol\":3533:3540  uint256 */\n      0x00\n        /* \"staking2.sol\":3558:3575  Stake memory user */\n      dup1\n        /* \"staking2.sol\":3578:3585  stakers */\n      0x00\n        /* \"staking2.sol\":3578:3592  stakers[_user] */\n      dup1\n        /* \"staking2.sol\":3586:3591  _user */\n      dup5\n        /* \"staking2.sol\":3578:3592  stakers[_user] */\n      0xffffffffffffffffffffffffffffffffffffffff\n      and\n      0xffffffffffffffffffffffffffffffffffffffff\n      and\n      dup2\n      mstore\n      0x20\n      add\n      swap1\n      dup2\n      mstore\n      0x20\n      add\n      0x00\n      keccak256\n        /* \"staking2.sol\":3558:3592  Stake memory user = stakers[_user] */\n      mload(0x40)\n      dup1\n      0x40\n      add\n      0x40\n      mstore\n      swap1\n      dup2\n      0x00\n      dup3\n      add\n      sload\n      dup2\n      mstore\n      0x20\n      add\n      0x01\n      dup3\n      add\n      sload\n      dup2\n      mstore\n      pop\n      pop\n      swap1\n      pop\n        /* \"staking2.sol\":3645:3652  1 hours */\n      0x0e10\n        /* \"staking2.sol\":3628:3632  user */\n      dup2\n        /* \"staking2.sol\":3628:3642  user.timestamp */\n      0x20\n      add\n      mload\n        /* \"staking2.sol\":3628:3652  user.timestamp + 1 hours */\n      tag_63\n      swap2\n      swap1\n      tag_38\n      jump\t// in\n    tag_63:\n        /* \"staking2.sol\":3609:3624  block.timestamp */\n      timestamp\n        /* \"staking2.sol\":3609:3652  block.timestamp >= user.timestamp + 1 hours */\n      lt\n        /* \"staking2.sol\":3605:3762  if (block.timestamp >= user.timestamp + 1 hours)... */\n      tag_64\n      jumpi\n        /* \"staking2.sol\":3674:3675  0 */\n      0x00\n        /* \"staking2.sol\":3667:3675  return 0 */\n      swap2\n      pop\n      pop\n      jump(tag_62)\n        /* \"staking2.sol\":3605:3762  if (block.timestamp >= user.timestamp + 1 hours)... */\n    tag_64:\n        /* \"staking2.sol\":3760:3762  60 */\n      0x3c\n        /* \"staking2.sol\":3741:3756  block.timestamp */\n      timestamp\n        /* \"staking2.sol\":3730:3737  1 hours */\n      0x0e10\n        /* \"staking2.sol\":3713:3717  user */\n      dup4\n        /* \"staking2.sol\":3713:3727  user.timestamp */\n      0x20\n      add\n      mload\n        /* \"staking2.sol\":3713:3737  user.timestamp + 1 hours */\n      tag_66\n      swap2\n      swap1\n      tag_38\n      jump\t// in\n    tag_66:\n        /* \"staking2.sol\":3712:3756  (user.timestamp + 1 hours) - block.timestamp */\n      tag_67\n      swap2\n      swap1\n      tag_43\n      jump\t// in\n    tag_67:\n        /* \"staking2.sol\":3711:3762  ((user.timestamp + 1 hours) - block.timestamp) / 60 */\n      tag_68\n      swap2\n      swap1\n      tag_47\n      jump\t// in\n    tag_68:\n        /* \"staking2.sol\":3704:3762  return ((user.timestamp + 1 hours) - block.timestamp) / 60 */\n      swap2\n      pop\n      pop\n        /* \"staking2.sol\":3466:3770  function timeUntilWithdrawable(address _user) public view returns (uint256)... */\n    tag_62:\n      swap2\n      swap1\n      pop\n      jump\t// out\n        /* \"staking2.sol\":729:769  mapping(address => Stake) public stakers */\n    tag_19:\n      mstore(0x20, 0x00)\n      dup1\n      0x00\n      mstore\n      keccak256(0x00, 0x40)\n      0x00\n      swap2\n      pop\n      swap1\n      pop\n      dup1\n      0x00\n      add\n      sload\n      swap1\n      dup1\n      0x01\n      add\n      sload\n      swap1\n      pop\n      dup3\n      jump\t// out\n        /* \"staking2.sol\":3005:3250  function fundRewards(uint amount) public... */\n    tag_25:\n        /* \"staking2.sol\":3073:3074  0 */\n      0x00\n        /* \"staking2.sol\":3065:3071  amount */\n      dup2\n        /* \"staking2.sol\":3065:3074  amount<=0 */\n      gt\n        /* \"staking2.sol\":3062:3160  if(amount<=0)... */\n      tag_70\n      jumpi\n        /* \"staking2.sol\":3096:3160  InsufficientBalance(\"You're supposed to enter a positive value\") */\n      mload(0x40)\n      0x7979dc8700000000000000000000000000000000000000000000000000000000\n      dup2\n      mstore\n      0x04\n      add\n      tag_71\n      swap1\n      tag_72\n      jump\t// in\n    tag_71:\n      mload(0x40)\n      dup1\n      swap2\n      sub\n      swap1\n      revert\n        /* \"staking2.sol\":3062:3160  if(amount<=0)... */\n    tag_70:\n        /* \"staking2.sol\":3185:3242  token.safeTransferFrom(msg.sender, address(this), amount) */\n      tag_73\n        /* \"staking2.sol\":3208:3218  msg.sender */\n      caller\n        /* \"staking2.sol\":3228:3232  this */\n      address\n        /* \"staking2.sol\":3235:3241  amount */\n      dup4\n        /* \"staking2.sol\":3185:3190  token */\n      immutable(\"0x887d510a66c2c5edb473d8bcaa91e9efa96aa179a0ec88f5292ca216a1999f71\")\n        /* \"staking2.sol\":3185:3207  token.safeTransferFrom */\n      0xffffffffffffffffffffffffffffffffffffffff\n      and\n      tag_74\n      swap1\n        /* \"staking2.sol\":3185:3242  token.safeTransferFrom(msg.sender, address(this), amount) */\n      swap4\n      swap3\n      swap2\n      swap1\n      0xffffffff\n      and\n      jump\t// in\n    tag_73:\n        /* \"staking2.sol\":3005:3250  function fundRewards(uint amount) public... */\n      pop\n      jump\t// out\n        /* \"staking2.sol\":1082:1577  function stake(uint256 _amount) public... */\n    tag_28:\n        /* \"staking2.sol\":1151:1152  0 */\n      0x00\n        /* \"staking2.sol\":1140:1147  _amount */\n      dup2\n        /* \"staking2.sol\":1140:1152  _amount <= 0 */\n      gt\n        /* \"staking2.sol\":1137:1217  if(_amount <= 0)... */\n      tag_76\n      jumpi\n        /* \"staking2.sol\":1174:1217  InsufficientBalance(\"Insufficient Balance\") */\n      mload(0x40)\n      0x7979dc8700000000000000000000000000000000000000000000000000000000\n      dup2\n      mstore\n      0x04\n      add\n      tag_77\n      swap1\n      tag_78\n      jump\t// in\n    tag_77:\n      mload(0x40)\n      dup1\n      swap2\n      sub\n      swap1\n      revert\n        /* \"staking2.sol\":1137:1217  if(_amount <= 0)... */\n    tag_76:\n        /* \"staking2.sol\":1264:1271  _amount */\n      dup1\n        /* \"staking2.sol\":1233:1238  token */\n      immutable(\"0x887d510a66c2c5edb473d8bcaa91e9efa96aa179a0ec88f5292ca216a1999f71\")\n        /* \"staking2.sol\":1233:1248  token.balanceOf */\n      0xffffffffffffffffffffffffffffffffffffffff\n      and\n      0x70a08231\n        /* \"staking2.sol\":1249:1259  msg.sender */\n      caller\n        /* \"staking2.sol\":1233:1260  token.balanceOf(msg.sender) */\n      mload(0x40)\n      dup3\n      0xffffffff\n      and\n      0xe0\n      shl\n      dup2\n      mstore\n      0x04\n      add\n      tag_79\n      swap2\n      swap1\n      tag_50\n      jump\t// in\n    tag_79:\n      0x20\n      mload(0x40)\n      dup1\n      dup4\n      sub\n      dup2\n      dup7\n      gas\n      staticcall\n      iszero\n      dup1\n      iszero\n      tag_81\n      jumpi\n      returndatasize\n      0x00\n      dup1\n      returndatacopy\n      revert(0x00, returndatasize)\n    tag_81:\n      pop\n      pop\n      pop\n      pop\n      mload(0x40)\n      returndatasize\n      not(0x1f)\n      0x1f\n      dup3\n      add\n      and\n      dup3\n      add\n      dup1\n      0x40\n      mstore\n      pop\n      dup2\n      add\n      swap1\n      tag_82\n      swap2\n      swap1\n      tag_54\n      jump\t// in\n    tag_82:\n        /* \"staking2.sol\":1233:1271  token.balanceOf(msg.sender) >= _amount */\n      lt\n        /* \"staking2.sol\":1230:1345  if(token.balanceOf(msg.sender) >= _amount)... */\n      tag_83\n      jumpi\n        /* \"staking2.sol\":1293:1345  InsufficientBalance(\"You don't have enough balance\") */\n      mload(0x40)\n      0x7979dc8700000000000000000000000000000000000000000000000000000000\n      dup2\n      mstore\n      0x04\n      add\n      tag_84\n      swap1\n      tag_85\n      jump\t// in\n    tag_84:\n      mload(0x40)\n      dup1\n      swap2\n      sub\n      swap1\n      revert\n        /* \"staking2.sol\":1230:1345  if(token.balanceOf(msg.sender) >= _amount)... */\n    tag_83:\n        /* \"staking2.sol\":1358:1416  token.safeTransferFrom(msg.sender, address(this), _amount) */\n      tag_86\n        /* \"staking2.sol\":1381:1391  msg.sender */\n      caller\n        /* \"staking2.sol\":1401:1405  this */\n      address\n        /* \"staking2.sol\":1408:1415  _amount */\n      dup4\n        /* \"staking2.sol\":1358:1363  token */\n      immutable(\"0x887d510a66c2c5edb473d8bcaa91e9efa96aa179a0ec88f5292ca216a1999f71\")\n        /* \"staking2.sol\":1358:1380  token.safeTransferFrom */\n      0xffffffffffffffffffffffffffffffffffffffff\n      and\n      tag_74\n      swap1\n        /* \"staking2.sol\":1358:1416  token.safeTransferFrom(msg.sender, address(this), _amount) */\n      swap4\n      swap3\n      swap2\n      swap1\n      0xffffffff\n      and\n      jump\t// in\n    tag_86:\n        /* \"staking2.sol\":1459:1466  _amount */\n      dup1\n        /* \"staking2.sol\":1429:1436  stakers */\n      0x00\n        /* \"staking2.sol\":1429:1448  stakers[msg.sender] */\n      dup1\n        /* \"staking2.sol\":1437:1447  msg.sender */\n      caller\n        /* \"staking2.sol\":1429:1448  stakers[msg.sender] */\n      0xffffffffffffffffffffffffffffffffffffffff\n      and\n      0xffffffffffffffffffffffffffffffffffffffff\n      and\n      dup2\n      mstore\n      0x20\n      add\n      swap1\n      dup2\n      mstore\n      0x20\n      add\n      0x00\n      keccak256\n        /* \"staking2.sol\":1429:1455  stakers[msg.sender].amount */\n      0x00\n      add\n      0x00\n        /* \"staking2.sol\":1429:1466  stakers[msg.sender].amount += _amount */\n      dup3\n      dup3\n      sload\n      tag_87\n      swap2\n      swap1\n      tag_38\n      jump\t// in\n    tag_87:\n      swap3\n      pop\n      pop\n      dup2\n      swap1\n      sstore\n      pop\n        /* \"staking2.sol\":1509:1524  block.timestamp */\n      timestamp\n        /* \"staking2.sol\":1477:1484  stakers */\n      0x00\n        /* \"staking2.sol\":1477:1496  stakers[msg.sender] */\n      dup1\n        /* \"staking2.sol\":1485:1495  msg.sender */\n      caller\n        /* \"staking2.sol\":1477:1496  stakers[msg.sender] */\n      0xffffffffffffffffffffffffffffffffffffffff\n      and\n      0xffffffffffffffffffffffffffffffffffffffff\n      and\n      dup2\n      mstore\n      0x20\n      add\n      swap1\n      dup2\n      mstore\n      0x20\n      add\n      0x00\n      keccak256\n        /* \"staking2.sol\":1477:1506  stakers[msg.sender].timestamp */\n      0x01\n      add\n        /* \"staking2.sol\":1477:1524  stakers[msg.sender].timestamp = block.timestamp */\n      dup2\n      swap1\n      sstore\n      pop\n        /* \"staking2.sol\":1549:1559  msg.sender */\n      caller\n        /* \"staking2.sol\":1542:1569  Staked(msg.sender, _amount) */\n      0xffffffffffffffffffffffffffffffffffffffff\n      and\n      0x9e71bc8eea02a63969f509818f2dafb9254532904319f9dbda79b67bd34a5f3d\n        /* \"staking2.sol\":1561:1568  _amount */\n      dup3\n        /* \"staking2.sol\":1542:1569  Staked(msg.sender, _amount) */\n      mload(0x40)\n      tag_88\n      swap2\n      swap1\n      tag_16\n      jump\t// in\n    tag_88:\n      mload(0x40)\n      dup1\n      swap2\n      sub\n      swap1\n      log2\n        /* \"staking2.sol\":1082:1577  function stake(uint256 _amount) public... */\n      pop\n      jump\t// out\n        /* \"staking2.sol\":328:357  IERC20 public immutable token */\n    tag_30:\n      immutable(\"0x887d510a66c2c5edb473d8bcaa91e9efa96aa179a0ec88f5292ca216a1999f71\")\n      dup2\n      jump\t// out\n        /* \"@openzeppelin/contracts/token/ERC20/utils/SafeERC20.sol\":1303:1463  function safeTransfer(IERC20 token, address to, uint256 value) internal {... */\n    tag_60:\n        /* \"@openzeppelin/contracts/token/ERC20/utils/SafeERC20.sol\":1385:1456  _callOptionalReturn(token, abi.encodeCall(token.transfer, (to, value))) */\n      tag_90\n        /* \"@openzeppelin/contracts/token/ERC20/utils/SafeERC20.sol\":1405:1410  token */\n      dup4\n        /* \"@openzeppelin/contracts/token/ERC20/utils/SafeERC20.sol\":1427:1432  token */\n      dup5\n        /* \"@openzeppelin/contracts/token/ERC20/utils/SafeERC20.sol\":1427:1441  token.transfer */\n      0xffffffffffffffffffffffffffffffffffffffff\n      and\n      0xa9059cbb\n        /* \"@openzeppelin/contracts/token/ERC20/utils/SafeERC20.sol\":1444:1446  to */\n      dup6\n        /* \"@openzeppelin/contracts/token/ERC20/utils/SafeERC20.sol\":1448:1453  value */\n      dup6\n        /* \"@openzeppelin/contracts/token/ERC20/utils/SafeERC20.sol\":1412:1455  abi.encodeCall(token.transfer, (to, value)) */\n      add(0x24, mload(0x40))\n      tag_91\n      swap3\n      swap2\n      swap1\n      tag_92\n      jump\t// in\n    tag_91:\n      mload(0x40)\n      0x20\n      dup2\n      dup4\n      sub\n      sub\n      dup2\n      mstore\n      swap1\n      0x40\n      mstore\n      swap2\n      pop\n      0xe0\n      shl\n      0x20\n      dup3\n      add\n      dup1\n      mload\n      0xffffffffffffffffffffffffffffffffffffffffffffffffffffffff\n      dup4\n      dup2\n      dup4\n      and\n      or\n      dup4\n      mstore\n      pop\n      pop\n      pop\n      pop\n        /* \"@openzeppelin/contracts/token/ERC20/utils/SafeERC20.sol\":1385:1404  _callOptionalReturn */\n      tag_93\n        /* \"@openzeppelin/contracts/token/ERC20/utils/SafeERC20.sol\":1385:1456  _callOptionalReturn(token, abi.encodeCall(token.transfer, (to, value))) */\n      jump\t// in\n    tag_90:\n        /* \"@openzeppelin/contracts/token/ERC20/utils/SafeERC20.sol\":1303:1463  function safeTransfer(IERC20 token, address to, uint256 value) internal {... */\n      pop\n      pop\n      pop\n      jump\t// out\n        /* \"@openzeppelin/contracts/token/ERC20/utils/SafeERC20.sol\":1702:1890  function safeTransferFrom(IERC20 token, address from, address to, uint256 value) internal {... */\n    tag_74:\n        /* \"@openzeppelin/contracts/token/ERC20/utils/SafeERC20.sol\":1802:1883  _callOptionalReturn(token, abi.encodeCall(token.transferFrom, (from, to, value))) */\n      tag_95\n        /* \"@openzeppelin/contracts/token/ERC20/utils/SafeERC20.sol\":1822:1827  token */\n      dup5\n        /* \"@openzeppelin/contracts/token/ERC20/utils/SafeERC20.sol\":1844:1849  token */\n      dup6\n        /* \"@openzeppelin/contracts/token/ERC20/utils/SafeERC20.sol\":1844:1862  token.transferFrom */\n      0xffffffffffffffffffffffffffffffffffffffff\n      and\n      0x23b872dd\n        /* \"@openzeppelin/contracts/token/ERC20/utils/SafeERC20.sol\":1865:1869  from */\n      dup7\n        /* \"@openzeppelin/contracts/token/ERC20/utils/SafeERC20.sol\":1871:1873  to */\n      dup7\n        /* \"@openzeppelin/contracts/token/ERC20/utils/SafeERC20.sol\":1875:1880  value */\n      dup7\n        /* \"@openzeppelin/contracts/token/ERC20/utils/SafeERC20.sol\":1829:1882  abi.encodeCall(token.transferFrom, (from, to, value)) */\n      add(0x24, mload(0x40))\n      tag_96\n      swap4\n      swap3\n      swap2\n      swap1\n      tag_97\n      jump\t// in\n    tag_96:\n      mload(0x40)\n      0x20\n      dup2\n      dup4\n      sub\n      sub\n      dup2\n      mstore\n      swap1\n      0x40\n      mstore\n      swap2\n      pop\n      0xe0\n      shl\n      0x20\n      dup3\n      add\n      dup1\n      mload\n      0xffffffffffffffffffffffffffffffffffffffffffffffffffffffff\n      dup4\n      dup2\n      dup4\n      and\n      or\n      dup4\n      mstore\n      pop\n      pop\n      pop\n      pop\n        /* \"@openzeppelin/contracts/token/ERC20/utils/SafeERC20.sol\":1802:1821  _callOptionalReturn */\n      tag_93\n        /* \"@openzeppelin/contracts/token/ERC20/utils/SafeERC20.sol\":1802:1883  _callOptionalReturn(token, abi.encodeCall(token.transferFrom, (from, to, value))) */\n      jump\t// in\n    tag_95:\n        /* \"@openzeppelin/contracts/token/ERC20/utils/SafeERC20.sol\":1702:1890  function safeTransferFrom(IERC20 token, address from, address to, uint256 value) internal {... */\n      pop\n      pop\n      pop\n      pop\n      jump\t// out\n        /* \"@openzeppelin/contracts/token/ERC20/utils/SafeERC20.sol\":4059:4688  function _callOptionalReturn(IERC20 token, bytes memory data) private {... */\n    tag_93:\n        /* \"@openzeppelin/contracts/token/ERC20/utils/SafeERC20.sol\":4478:4501  bytes memory returndata */\n      0x00\n        /* \"@openzeppelin/contracts/token/ERC20/utils/SafeERC20.sol\":4504:4537  address(token).functionCall(data) */\n      tag_99\n        /* \"@openzeppelin/contracts/token/ERC20/utils/SafeERC20.sol\":4532:4536  data */\n      dup3\n        /* \"@openzeppelin/contracts/token/ERC20/utils/SafeERC20.sol\":4512:4517  token */\n      dup5\n        /* \"@openzeppelin/contracts/token/ERC20/utils/SafeERC20.sol\":4504:4531  address(token).functionCall */\n      0xffffffffffffffffffffffffffffffffffffffff\n      and\n      tag_100\n      swap1\n        /* \"@openzeppelin/contracts/token/ERC20/utils/SafeERC20.sol\":4504:4537  address(token).functionCall(data) */\n      swap2\n      swap1\n      0xffffffff\n      and\n      jump\t// in\n    tag_99:\n        /* \"@openzeppelin/contracts/token/ERC20/utils/SafeERC20.sol\":4478:4537  bytes memory returndata = address(token).functionCall(data) */\n      swap1\n      pop\n        /* \"@openzeppelin/contracts/token/ERC20/utils/SafeERC20.sol\":4572:4573  0 */\n      0x00\n        /* \"@openzeppelin/contracts/token/ERC20/utils/SafeERC20.sol\":4551:4561  returndata */\n      dup2\n        /* \"@openzeppelin/contracts/token/ERC20/utils/SafeERC20.sol\":4551:4568  returndata.length */\n      mload\n        /* \"@openzeppelin/contracts/token/ERC20/utils/SafeERC20.sol\":4551:4573  returndata.length != 0 */\n      eq\n      iszero\n        /* \"@openzeppelin/contracts/token/ERC20/utils/SafeERC20.sol\":4551:4608  returndata.length != 0 && !abi.decode(returndata, (bool)) */\n      dup1\n      iszero\n      tag_101\n      jumpi\n      pop\n        /* \"@openzeppelin/contracts/token/ERC20/utils/SafeERC20.sol\":4589:4599  returndata */\n      dup1\n        /* \"@openzeppelin/contracts/token/ERC20/utils/SafeERC20.sol\":4578:4608  abi.decode(returndata, (bool)) */\n      dup1\n      0x20\n      add\n      swap1\n      mload\n      dup2\n      add\n      swap1\n      tag_102\n      swap2\n      swap1\n      tag_103\n      jump\t// in\n    tag_102:\n        /* \"@openzeppelin/contracts/token/ERC20/utils/SafeERC20.sol\":4577:4608  !abi.decode(returndata, (bool)) */\n      iszero\n        /* \"@openzeppelin/contracts/token/ERC20/utils/SafeERC20.sol\":4551:4608  returndata.length != 0 && !abi.decode(returndata, (bool)) */\n    tag_101:\n        /* \"@openzeppelin/contracts/token/ERC20/utils/SafeERC20.sol\":4547:4682  if (returndata.length != 0 && !abi.decode(returndata, (bool))) {... */\n      iszero\n      tag_104\n      jumpi\n        /* \"@openzeppelin/contracts/token/ERC20/utils/SafeERC20.sol\":4664:4669  token */\n      dup3\n        /* \"@openzeppelin/contracts/token/ERC20/utils/SafeERC20.sol\":4631:4671  SafeERC20FailedOperation(address(token)) */\n      mload(0x40)\n      0x5274afe700000000000000000000000000000000000000000000000000000000\n      dup2\n      mstore\n      0x04\n      add\n      tag_105\n      swap2\n      swap1\n      tag_50\n      jump\t// in\n    tag_105:\n      mload(0x40)\n      dup1\n      swap2\n      sub\n      swap1\n      revert\n        /* \"@openzeppelin/contracts/token/ERC20/utils/SafeERC20.sol\":4547:4682  if (returndata.length != 0 && !abi.decode(returndata, (bool))) {... */\n    tag_104:\n        /* \"@openzeppelin/contracts/token/ERC20/utils/SafeERC20.sol\":4129:4688  {... */\n      pop\n        /* \"@openzeppelin/contracts/token/ERC20/utils/SafeERC20.sol\":4059:4688  function _callOptionalReturn(IERC20 token, bytes memory data) private {... */\n      pop\n      pop\n      jump\t// out\n        /* \"@openzeppelin/contracts/utils/Address.sol\":2705:2856  function functionCall(address target, bytes memory data) internal returns (bytes memory) {... */\n    tag_100:\n        /* \"@openzeppelin/contracts/utils/Address.sol\":2780:2792  bytes memory */\n      0x60\n        /* \"@openzeppelin/contracts/utils/Address.sol\":2811:2849  functionCallWithValue(target, data, 0) */\n      tag_107\n        /* \"@openzeppelin/contracts/utils/Address.sol\":2833:2839  target */\n      dup4\n        /* \"@openzeppelin/contracts/utils/Address.sol\":2841:2845  data */\n      dup4\n        /* \"@openzeppelin/contracts/utils/Address.sol\":2847:2848  0 */\n      0x00\n        /* \"@openzeppelin/contracts/utils/Address.sol\":2811:2832  functionCallWithValue */\n      tag_108\n        /* \"@openzeppelin/contracts/utils/Address.sol\":2811:2849  functionCallWithValue(target, data, 0) */\n      jump\t// in\n    tag_107:\n        /* \"@openzeppelin/contracts/utils/Address.sol\":2804:2849  return functionCallWithValue(target, data, 0) */\n      swap1\n      pop\n        /* \"@openzeppelin/contracts/utils/Address.sol\":2705:2856  function functionCall(address target, bytes memory data) internal returns (bytes memory) {... */\n      swap3\n      swap2\n      pop\n      pop\n      jump\t// out\n        /* \"@openzeppelin/contracts/utils/Address.sol\":3180:3572  function functionCallWithValue(address target, bytes memory data, uint256 value) internal returns (bytes memory) {... */\n    tag_108:\n        /* \"@openzeppelin/contracts/utils/Address.sol\":3279:3291  bytes memory */\n      0x60\n        /* \"@openzeppelin/contracts/utils/Address.sol\":3331:3336  value */\n      dup2\n        /* \"@openzeppelin/contracts/utils/Address.sol\":3307:3328  address(this).balance */\n      selfbalance\n        /* \"@openzeppelin/contracts/utils/Address.sol\":3307:3336  address(this).balance < value */\n      lt\n        /* \"@openzeppelin/contracts/utils/Address.sol\":3303:3411  if (address(this).balance < value) {... */\n      iszero\n      tag_110\n      jumpi\n        /* \"@openzeppelin/contracts/utils/Address.sol\":3394:3398  this */\n      address\n        /* \"@openzeppelin/contracts/utils/Address.sol\":3359:3400  AddressInsufficientBalance(address(this)) */\n      mload(0x40)\n      0xcd78605900000000000000000000000000000000000000000000000000000000\n      dup2\n      mstore\n      0x04\n      add\n      tag_111\n      swap2\n      swap1\n      tag_50\n      jump\t// in\n    tag_111:\n      mload(0x40)\n      dup1\n      swap2\n      sub\n      swap1\n      revert\n        /* \"@openzeppelin/contracts/utils/Address.sol\":3303:3411  if (address(this).balance < value) {... */\n    tag_110:\n        /* \"@openzeppelin/contracts/utils/Address.sol\":3421:3433  bool success */\n      0x00\n        /* \"@openzeppelin/contracts/utils/Address.sol\":3435:3458  bytes memory returndata */\n      dup1\n        /* \"@openzeppelin/contracts/utils/Address.sol\":3462:3468  target */\n      dup6\n        /* \"@openzeppelin/contracts/utils/Address.sol\":3462:3473  target.call */\n      0xffffffffffffffffffffffffffffffffffffffff\n      and\n        /* \"@openzeppelin/contracts/utils/Address.sol\":3481:3486  value */\n      dup5\n        /* \"@openzeppelin/contracts/utils/Address.sol\":3488:3492  data */\n      dup7\n        /* \"@openzeppelin/contracts/utils/Address.sol\":3462:3493  target.call{value: value}(data) */\n      mload(0x40)\n      tag_112\n      swap2\n      swap1\n      tag_113\n      jump\t// in\n    tag_112:\n      0x00\n      mload(0x40)\n      dup1\n      dup4\n      sub\n      dup2\n      dup6\n      dup8\n      gas\n      call\n      swap3\n      pop\n      pop\n      pop\n      returndatasize\n      dup1\n      0x00\n      dup2\n      eq\n      tag_116\n      jumpi\n      mload(0x40)\n      swap2\n      pop\n      and(add(returndatasize, 0x3f), not(0x1f))\n      dup3\n      add\n      0x40\n      mstore\n      returndatasize\n      dup3\n      mstore\n      returndatasize\n      0x00\n      0x20\n      dup5\n      add\n      returndatacopy\n      jump(tag_115)\n    tag_116:\n      0x60\n      swap2\n      pop\n    tag_115:\n      pop\n        /* \"@openzeppelin/contracts/utils/Address.sol\":3420:3493  (bool success, bytes memory returndata) = target.call{value: value}(data) */\n      swap2\n      pop\n      swap2\n      pop\n        /* \"@openzeppelin/contracts/utils/Address.sol\":3510:3565  verifyCallResultFromTarget(target, success, returndata) */\n      tag_117\n        /* \"@openzeppelin/contracts/utils/Address.sol\":3537:3543  target */\n      dup7\n        /* \"@openzeppelin/contracts/utils/Address.sol\":3545:3552  success */\n      dup4\n        /* \"@openzeppelin/contracts/utils/Address.sol\":3554:3564  returndata */\n      dup4\n        /* \"@openzeppelin/contracts/utils/Address.sol\":3510:3536  verifyCallResultFromTarget */\n      tag_118\n        /* \"@openzeppelin/contracts/utils/Address.sol\":3510:3565  verifyCallResultFromTarget(target, success, returndata) */\n      jump\t// in\n    tag_117:\n        /* \"@openzeppelin/contracts/utils/Address.sol\":3503:3565  return verifyCallResultFromTarget(target, success, returndata) */\n      swap3\n      pop\n      pop\n      pop\n        /* \"@openzeppelin/contracts/utils/Address.sol\":3180:3572  function functionCallWithValue(address target, bytes memory data, uint256 value) internal returns (bytes memory) {... */\n      swap4\n      swap3\n      pop\n      pop\n      pop\n      jump\t// out\n        /* \"@openzeppelin/contracts/utils/Address.sol\":4625:5207  function verifyCallResultFromTarget(... */\n    tag_118:\n        /* \"@openzeppelin/contracts/utils/Address.sol\":4769:4781  bytes memory */\n      0x60\n        /* \"@openzeppelin/contracts/utils/Address.sol\":4798:4805  success */\n      dup3\n        /* \"@openzeppelin/contracts/utils/Address.sol\":4793:5201  if (!success) {... */\n      tag_120\n      jumpi\n        /* \"@openzeppelin/contracts/utils/Address.sol\":4821:4840  _revert(returndata) */\n      tag_121\n        /* \"@openzeppelin/contracts/utils/Address.sol\":4829:4839  returndata */\n      dup3\n        /* \"@openzeppelin/contracts/utils/Address.sol\":4821:4828  _revert */\n      tag_122\n        /* \"@openzeppelin/contracts/utils/Address.sol\":4821:4840  _revert(returndata) */\n      jump\t// in\n    tag_121:\n        /* \"@openzeppelin/contracts/utils/Address.sol\":4793:5201  if (!success) {... */\n      jump(tag_123)\n    tag_120:\n        /* \"@openzeppelin/contracts/utils/Address.sol\":5066:5067  0 */\n      0x00\n        /* \"@openzeppelin/contracts/utils/Address.sol\":5045:5055  returndata */\n      dup3\n        /* \"@openzeppelin/contracts/utils/Address.sol\":5045:5062  returndata.length */\n      mload\n        /* \"@openzeppelin/contracts/utils/Address.sol\":5045:5067  returndata.length == 0 */\n      eq\n        /* \"@openzeppelin/contracts/utils/Address.sol\":5045:5094  returndata.length == 0 && target.code.length == 0 */\n      dup1\n      iszero\n      tag_124\n      jumpi\n      pop\n        /* \"@openzeppelin/contracts/utils/Address.sol\":5093:5094  0 */\n      0x00\n        /* \"@openzeppelin/contracts/utils/Address.sol\":5071:5077  target */\n      dup5\n        /* \"@openzeppelin/contracts/utils/Address.sol\":5071:5089  target.code.length */\n      0xffffffffffffffffffffffffffffffffffffffff\n      and\n      extcodesize\n        /* \"@openzeppelin/contracts/utils/Address.sol\":5071:5094  target.code.length == 0 */\n      eq\n        /* \"@openzeppelin/contracts/utils/Address.sol\":5045:5094  returndata.length == 0 && target.code.length == 0 */\n    tag_124:\n        /* \"@openzeppelin/contracts/utils/Address.sol\":5041:5160  if (returndata.length == 0 && target.code.length == 0) {... */\n      iszero\n      tag_125\n      jumpi\n        /* \"@openzeppelin/contracts/utils/Address.sol\":5138:5144  target */\n      dup4\n        /* \"@openzeppelin/contracts/utils/Address.sol\":5121:5145  AddressEmptyCode(target) */\n      mload(0x40)\n      0x9996b31500000000000000000000000000000000000000000000000000000000\n      dup2\n      mstore\n      0x04\n      add\n      tag_126\n      swap2\n      swap1\n      tag_50\n      jump\t// in\n    tag_126:\n      mload(0x40)\n      dup1\n      swap2\n      sub\n      swap1\n      revert\n        /* \"@openzeppelin/contracts/utils/Address.sol\":5041:5160  if (returndata.length == 0 && target.code.length == 0) {... */\n    tag_125:\n        /* \"@openzeppelin/contracts/utils/Address.sol\":5180:5190  returndata */\n      dup2\n        /* \"@openzeppelin/contracts/utils/Address.sol\":5173:5190  return returndata */\n      swap1\n      pop\n      jump(tag_119)\n        /* \"@openzeppelin/contracts/utils/Address.sol\":4793:5201  if (!success) {... */\n    tag_123:\n        /* \"@openzeppelin/contracts/utils/Address.sol\":4625:5207  function verifyCallResultFromTarget(... */\n    tag_119:\n      swap4\n      swap3\n      pop\n      pop\n      pop\n      jump\t// out\n        /* \"@openzeppelin/contracts/utils/Address.sol\":5743:6259  function _revert(bytes memory returndata) private pure {... */\n    tag_122:\n        /* \"@openzeppelin/contracts/utils/Address.sol\":5894:5895  0 */\n      0x00\n        /* \"@openzeppelin/contracts/utils/Address.sol\":5874:5884  returndata */\n      dup2\n        /* \"@openzeppelin/contracts/utils/Address.sol\":5874:5891  returndata.length */\n      mload\n        /* \"@openzeppelin/contracts/utils/Address.sol\":5874:5895  returndata.length > 0 */\n      gt\n        /* \"@openzeppelin/contracts/utils/Address.sol\":5870:6253  if (returndata.length > 0) {... */\n      iszero\n      tag_128\n      jumpi\n        /* \"@openzeppelin/contracts/utils/Address.sol\":6102:6112  returndata */\n      dup1\n        /* \"@openzeppelin/contracts/utils/Address.sol\":6096:6113  mload(returndata) */\n      mload\n        /* \"@openzeppelin/contracts/utils/Address.sol\":6158:6173  returndata_size */\n      dup1\n        /* \"@openzeppelin/contracts/utils/Address.sol\":6145:6155  returndata */\n      dup3\n        /* \"@openzeppelin/contracts/utils/Address.sol\":6141:6143  32 */\n      0x20\n        /* \"@openzeppelin/contracts/utils/Address.sol\":6137:6156  add(32, returndata) */\n      add\n        /* \"@openzeppelin/contracts/utils/Address.sol\":6130:6174  revert(add(32, returndata), returndata_size) */\n      revert\n        /* \"@openzeppelin/contracts/utils/Address.sol\":5870:6253  if (returndata.length > 0) {... */\n    tag_128:\n        /* \"@openzeppelin/contracts/utils/Address.sol\":6225:6242  FailedInnerCall() */\n      mload(0x40)\n      0x1425ea4200000000000000000000000000000000000000000000000000000000\n      dup2\n      mstore\n      0x04\n      add\n      mload(0x40)\n      dup1\n      swap2\n      sub\n      swap1\n      revert\n        /* \"#utility.yul\":88:205   */\n    tag_131:\n        /* \"#utility.yul\":197:198   */\n      0x00\n        /* \"#utility.yul\":194:195   */\n      dup1\n        /* \"#utility.yul\":187:199   */\n      revert\n        /* \"#utility.yul\":334:460   */\n    tag_133:\n        /* \"#utility.yul\":371:378   */\n      0x00\n        /* \"#utility.yul\":411:453   */\n      0xffffffffffffffffffffffffffffffffffffffff\n        /* \"#utility.yul\":404:409   */\n      dup3\n        /* \"#utility.yul\":400:454   */\n      and\n        /* \"#utility.yul\":389:454   */\n      swap1\n      pop\n        /* \"#utility.yul\":334:460   */\n      swap2\n      swap1\n      pop\n      jump\t// out\n        /* \"#utility.yul\":466:562   */\n    tag_134:\n        /* \"#utility.yul\":503:510   */\n      0x00\n        /* \"#utility.yul\":532:556   */\n      tag_176\n        /* \"#utility.yul\":550:555   */\n      dup3\n        /* \"#utility.yul\":532:556   */\n      tag_133\n      jump\t// in\n    tag_176:\n        /* \"#utility.yul\":521:556   */\n      swap1\n      pop\n        /* \"#utility.yul\":466:562   */\n      swap2\n      swap1\n      pop\n      jump\t// out\n        /* \"#utility.yul\":568:690   */\n    tag_135:\n        /* \"#utility.yul\":641:665   */\n      tag_178\n        /* \"#utility.yul\":659:664   */\n      dup2\n        /* \"#utility.yul\":641:665   */\n      tag_134\n      jump\t// in\n    tag_178:\n        /* \"#utility.yul\":634:639   */\n      dup2\n        /* \"#utility.yul\":631:666   */\n      eq\n        /* \"#utility.yul\":621:684   */\n      tag_179\n      jumpi\n        /* \"#utility.yul\":680:681   */\n      0x00\n        /* \"#utility.yul\":677:678   */\n      dup1\n        /* \"#utility.yul\":670:682   */\n      revert\n        /* \"#utility.yul\":621:684   */\n    tag_179:\n        /* \"#utility.yul\":568:690   */\n      pop\n      jump\t// out\n        /* \"#utility.yul\":696:835   */\n    tag_136:\n        /* \"#utility.yul\":742:747   */\n      0x00\n        /* \"#utility.yul\":780:786   */\n      dup2\n        /* \"#utility.yul\":767:787   */\n      calldataload\n        /* \"#utility.yul\":758:787   */\n      swap1\n      pop\n        /* \"#utility.yul\":796:829   */\n      tag_181\n        /* \"#utility.yul\":823:828   */\n      dup2\n        /* \"#utility.yul\":796:829   */\n      tag_135\n      jump\t// in\n    tag_181:\n        /* \"#utility.yul\":696:835   */\n      swap3\n      swap2\n      pop\n      pop\n      jump\t// out\n        /* \"#utility.yul\":841:1170   */\n    tag_13:\n        /* \"#utility.yul\":900:906   */\n      0x00\n        /* \"#utility.yul\":949:951   */\n      0x20\n        /* \"#utility.yul\":937:946   */\n      dup3\n        /* \"#utility.yul\":928:935   */\n      dup5\n        /* \"#utility.yul\":924:947   */\n      sub\n        /* \"#utility.yul\":920:952   */\n      slt\n        /* \"#utility.yul\":917:1036   */\n      iszero\n      tag_183\n      jumpi\n        /* \"#utility.yul\":955:1034   */\n      tag_184\n      tag_131\n      jump\t// in\n    tag_184:\n        /* \"#utility.yul\":917:1036   */\n    tag_183:\n        /* \"#utility.yul\":1075:1076   */\n      0x00\n        /* \"#utility.yul\":1100:1153   */\n      tag_185\n        /* \"#utility.yul\":1145:1152   */\n      dup5\n        /* \"#utility.yul\":1136:1142   */\n      dup3\n        /* \"#utility.yul\":1125:1134   */\n      dup6\n        /* \"#utility.yul\":1121:1143   */\n      add\n        /* \"#utility.yul\":1100:1153   */\n      tag_136\n      jump\t// in\n    tag_185:\n        /* \"#utility.yul\":1090:1153   */\n      swap2\n      pop\n        /* \"#utility.yul\":1046:1163   */\n      pop\n        /* \"#utility.yul\":841:1170   */\n      swap3\n      swap2\n      pop\n      pop\n      jump\t// out\n        /* \"#utility.yul\":1176:1253   */\n    tag_137:\n        /* \"#utility.yul\":1213:1220   */\n      0x00\n        /* \"#utility.yul\":1242:1247   */\n      dup2\n        /* \"#utility.yul\":1231:1247   */\n      swap1\n      pop\n        /* \"#utility.yul\":1176:1253   */\n      swap2\n      swap1\n      pop\n      jump\t// out\n        /* \"#utility.yul\":1259:1377   */\n    tag_138:\n        /* \"#utility.yul\":1346:1370   */\n      tag_188\n        /* \"#utility.yul\":1364:1369   */\n      dup2\n        /* \"#utility.yul\":1346:1370   */\n      tag_137\n      jump\t// in\n    tag_188:\n        /* \"#utility.yul\":1341:1344   */\n      dup3\n        /* \"#utility.yul\":1334:1371   */\n      mstore\n        /* \"#utility.yul\":1259:1377   */\n      pop\n      pop\n      jump\t// out\n        /* \"#utility.yul\":1383:1605   */\n    tag_16:\n        /* \"#utility.yul\":1476:1480   */\n      0x00\n        /* \"#utility.yul\":1514:1516   */\n      0x20\n        /* \"#utility.yul\":1503:1512   */\n      dup3\n        /* \"#utility.yul\":1499:1517   */\n      add\n        /* \"#utility.yul\":1491:1517   */\n      swap1\n      pop\n        /* \"#utility.yul\":1527:1598   */\n      tag_190\n        /* \"#utility.yul\":1595:1596   */\n      0x00\n        /* \"#utility.yul\":1584:1593   */\n      dup4\n        /* \"#utility.yul\":1580:1597   */\n      add\n        /* \"#utility.yul\":1571:1577   */\n      dup5\n        /* \"#utility.yul\":1527:1598   */\n      tag_138\n      jump\t// in\n    tag_190:\n        /* \"#utility.yul\":1383:1605   */\n      swap3\n      swap2\n      pop\n      pop\n      jump\t// out\n        /* \"#utility.yul\":1611:1943   */\n    tag_21:\n        /* \"#utility.yul\":1732:1736   */\n      0x00\n        /* \"#utility.yul\":1770:1772   */\n      0x40\n        /* \"#utility.yul\":1759:1768   */\n      dup3\n        /* \"#utility.yul\":1755:1773   */\n      add\n        /* \"#utility.yul\":1747:1773   */\n      swap1\n      pop\n        /* \"#utility.yul\":1783:1854   */\n      tag_192\n        /* \"#utility.yul\":1851:1852   */\n      0x00\n        /* \"#utility.yul\":1840:1849   */\n      dup4\n        /* \"#utility.yul\":1836:1853   */\n      add\n        /* \"#utility.yul\":1827:1833   */\n      dup6\n        /* \"#utility.yul\":1783:1854   */\n      tag_138\n      jump\t// in\n    tag_192:\n        /* \"#utility.yul\":1864:1936   */\n      tag_193\n        /* \"#utility.yul\":1932:1934   */\n      0x20\n        /* \"#utility.yul\":1921:1930   */\n      dup4\n        /* \"#utility.yul\":1917:1935   */\n      add\n        /* \"#utility.yul\":1908:1914   */\n      dup5\n        /* \"#utility.yul\":1864:1936   */\n      tag_138\n      jump\t// in\n    tag_193:\n        /* \"#utility.yul\":1611:1943   */\n      swap4\n      swap3\n      pop\n      pop\n      pop\n      jump\t// out\n        /* \"#utility.yul\":1949:2071   */\n    tag_139:\n        /* \"#utility.yul\":2022:2046   */\n      tag_195\n        /* \"#utility.yul\":2040:2045   */\n      dup2\n        /* \"#utility.yul\":2022:2046   */\n      tag_137\n      jump\t// in\n    tag_195:\n        /* \"#utility.yul\":2015:2020   */\n      dup2\n        /* \"#utility.yul\":2012:2047   */\n      eq\n        /* \"#utility.yul\":2002:2065   */\n      tag_196\n      jumpi\n        /* \"#utility.yul\":2061:2062   */\n      0x00\n        /* \"#utility.yul\":2058:2059   */\n      dup1\n        /* \"#utility.yul\":2051:2063   */\n      revert\n        /* \"#utility.yul\":2002:2065   */\n    tag_196:\n        /* \"#utility.yul\":1949:2071   */\n      pop\n      jump\t// out\n        /* \"#utility.yul\":2077:2216   */\n    tag_140:\n        /* \"#utility.yul\":2123:2128   */\n      0x00\n        /* \"#utility.yul\":2161:2167   */\n      dup2\n        /* \"#utility.yul\":2148:2168   */\n      calldataload\n        /* \"#utility.yul\":2139:2168   */\n      swap1\n      pop\n        /* \"#utility.yul\":2177:2210   */\n      tag_198\n        /* \"#utility.yul\":2204:2209   */\n      dup2\n        /* \"#utility.yul\":2177:2210   */\n      tag_139\n      jump\t// in\n    tag_198:\n        /* \"#utility.yul\":2077:2216   */\n      swap3\n      swap2\n      pop\n      pop\n      jump\t// out\n        /* \"#utility.yul\":2222:2551   */\n    tag_24:\n        /* \"#utility.yul\":2281:2287   */\n      0x00\n        /* \"#utility.yul\":2330:2332   */\n      0x20\n        /* \"#utility.yul\":2318:2327   */\n      dup3\n        /* \"#utility.yul\":2309:2316   */\n      dup5\n        /* \"#utility.yul\":2305:2328   */\n      sub\n        /* \"#utility.yul\":2301:2333   */\n      slt\n        /* \"#utility.yul\":2298:2417   */\n      iszero\n      tag_200\n      jumpi\n        /* \"#utility.yul\":2336:2415   */\n      tag_201\n      tag_131\n      jump\t// in\n    tag_201:\n        /* \"#utility.yul\":2298:2417   */\n    tag_200:\n        /* \"#utility.yul\":2456:2457   */\n      0x00\n        /* \"#utility.yul\":2481:2534   */\n      tag_202\n        /* \"#utility.yul\":2526:2533   */\n      dup5\n        /* \"#utility.yul\":2517:2523   */\n      dup3\n        /* \"#utility.yul\":2506:2515   */\n      dup6\n        /* \"#utility.yul\":2502:2524   */\n      add\n        /* \"#utility.yul\":2481:2534   */\n      tag_140\n      jump\t// in\n    tag_202:\n        /* \"#utility.yul\":2471:2534   */\n      swap2\n      pop\n        /* \"#utility.yul\":2427:2544   */\n      pop\n        /* \"#utility.yul\":2222:2551   */\n      swap3\n      swap2\n      pop\n      pop\n      jump\t// out\n        /* \"#utility.yul\":2557:2617   */\n    tag_141:\n        /* \"#utility.yul\":2585:2588   */\n      0x00\n        /* \"#utility.yul\":2606:2611   */\n      dup2\n        /* \"#utility.yul\":2599:2611   */\n      swap1\n      pop\n        /* \"#utility.yul\":2557:2617   */\n      swap2\n      swap1\n      pop\n      jump\t// out\n        /* \"#utility.yul\":2623:2765   */\n    tag_142:\n        /* \"#utility.yul\":2673:2682   */\n      0x00\n        /* \"#utility.yul\":2706:2759   */\n      tag_205\n        /* \"#utility.yul\":2724:2758   */\n      tag_206\n        /* \"#utility.yul\":2733:2757   */\n      tag_207\n        /* \"#utility.yul\":2751:2756   */\n      dup5\n        /* \"#utility.yul\":2733:2757   */\n      tag_133\n      jump\t// in\n    tag_207:\n        /* \"#utility.yul\":2724:2758   */\n      tag_141\n      jump\t// in\n    tag_206:\n        /* \"#utility.yul\":2706:2759   */\n      tag_133\n      jump\t// in\n    tag_205:\n        /* \"#utility.yul\":2693:2759   */\n      swap1\n      pop\n        /* \"#utility.yul\":2623:2765   */\n      swap2\n      swap1\n      pop\n      jump\t// out\n        /* \"#utility.yul\":2771:2897   */\n    tag_143:\n        /* \"#utility.yul\":2821:2830   */\n      0x00\n        /* \"#utility.yul\":2854:2891   */\n      tag_209\n        /* \"#utility.yul\":2885:2890   */\n      dup3\n        /* \"#utility.yul\":2854:2891   */\n      tag_142\n      jump\t// in\n    tag_209:\n        /* \"#utility.yul\":2841:2891   */\n      swap1\n      pop\n        /* \"#utility.yul\":2771:2897   */\n      swap2\n      swap1\n      pop\n      jump\t// out\n        /* \"#utility.yul\":2903:3042   */\n    tag_144:\n        /* \"#utility.yul\":2966:2975   */\n      0x00\n        /* \"#utility.yul\":2999:3036   */\n      tag_211\n        /* \"#utility.yul\":3030:3035   */\n      dup3\n        /* \"#utility.yul\":2999:3036   */\n      tag_143\n      jump\t// in\n    tag_211:\n        /* \"#utility.yul\":2986:3036   */\n      swap1\n      pop\n        /* \"#utility.yul\":2903:3042   */\n      swap2\n      swap1\n      pop\n      jump\t// out\n        /* \"#utility.yul\":3048:3205   */\n    tag_145:\n        /* \"#utility.yul\":3148:3198   */\n      tag_213\n        /* \"#utility.yul\":3192:3197   */\n      dup2\n        /* \"#utility.yul\":3148:3198   */\n      tag_144\n      jump\t// in\n    tag_213:\n        /* \"#utility.yul\":3143:3146   */\n      dup3\n        /* \"#utility.yul\":3136:3199   */\n      mstore\n        /* \"#utility.yul\":3048:3205   */\n      pop\n      pop\n      jump\t// out\n        /* \"#utility.yul\":3211:3459   */\n    tag_32:\n        /* \"#utility.yul\":3317:3321   */\n      0x00\n        /* \"#utility.yul\":3355:3357   */\n      0x20\n        /* \"#utility.yul\":3344:3353   */\n      dup3\n        /* \"#utility.yul\":3340:3358   */\n      add\n        /* \"#utility.yul\":3332:3358   */\n      swap1\n      pop\n        /* \"#utility.yul\":3368:3452   */\n      tag_215\n        /* \"#utility.yul\":3449:3450   */\n      0x00\n        /* \"#utility.yul\":3438:3447   */\n      dup4\n        /* \"#utility.yul\":3434:3451   */\n      add\n        /* \"#utility.yul\":3425:3431   */\n      dup5\n        /* \"#utility.yul\":3368:3452   */\n      tag_145\n      jump\t// in\n    tag_215:\n        /* \"#utility.yul\":3211:3459   */\n      swap3\n      swap2\n      pop\n      pop\n      jump\t// out\n        /* \"#utility.yul\":3465:3634   */\n    tag_146:\n        /* \"#utility.yul\":3549:3560   */\n      0x00\n        /* \"#utility.yul\":3583:3589   */\n      dup3\n        /* \"#utility.yul\":3578:3581   */\n      dup3\n        /* \"#utility.yul\":3571:3590   */\n      mstore\n        /* \"#utility.yul\":3623:3627   */\n      0x20\n        /* \"#utility.yul\":3618:3621   */\n      dup3\n        /* \"#utility.yul\":3614:3628   */\n      add\n        /* \"#utility.yul\":3599:3628   */\n      swap1\n      pop\n        /* \"#utility.yul\":3465:3634   */\n      swap3\n      swap2\n      pop\n      pop\n      jump\t// out\n        /* \"#utility.yul\":3640:3806   */\n    tag_147:\n        /* \"#utility.yul\":3780:3798   */\n      0x4e6f20546f6b656e73205374616b656400000000000000000000000000000000\n        /* \"#utility.yul\":3776:3777   */\n      0x00\n        /* \"#utility.yul\":3768:3774   */\n      dup3\n        /* \"#utility.yul\":3764:3778   */\n      add\n        /* \"#utility.yul\":3757:3799   */\n      mstore\n        /* \"#utility.yul\":3640:3806   */\n      pop\n      jump\t// out\n        /* \"#utility.yul\":3812:4178   */\n    tag_148:\n        /* \"#utility.yul\":3954:3957   */\n      0x00\n        /* \"#utility.yul\":3975:4042   */\n      tag_219\n        /* \"#utility.yul\":4039:4041   */\n      0x10\n        /* \"#utility.yul\":4034:4037   */\n      dup4\n        /* \"#utility.yul\":3975:4042   */\n      tag_146\n      jump\t// in\n    tag_219:\n        /* \"#utility.yul\":3968:4042   */\n      swap2\n      pop\n        /* \"#utility.yul\":4051:4144   */\n      tag_220\n        /* \"#utility.yul\":4140:4143   */\n      dup3\n        /* \"#utility.yul\":4051:4144   */\n      tag_147\n      jump\t// in\n    tag_220:\n        /* \"#utility.yul\":4169:4171   */\n      0x20\n        /* \"#utility.yul\":4164:4167   */\n      dup3\n        /* \"#utility.yul\":4160:4172   */\n      add\n        /* \"#utility.yul\":4153:4172   */\n      swap1\n      pop\n        /* \"#utility.yul\":3812:4178   */\n      swap2\n      swap1\n      pop\n      jump\t// out\n        /* \"#utility.yul\":4184:4603   */\n    tag_36:\n        /* \"#utility.yul\":4350:4354   */\n      0x00\n        /* \"#utility.yul\":4388:4390   */\n      0x20\n        /* \"#utility.yul\":4377:4386   */\n      dup3\n        /* \"#utility.yul\":4373:4391   */\n      add\n        /* \"#utility.yul\":4365:4391   */\n      swap1\n      pop\n        /* \"#utility.yul\":4437:4446   */\n      dup2\n        /* \"#utility.yul\":4431:4435   */\n      dup2\n        /* \"#utility.yul\":4427:4447   */\n      sub\n        /* \"#utility.yul\":4423:4424   */\n      0x00\n        /* \"#utility.yul\":4412:4421   */\n      dup4\n        /* \"#utility.yul\":4408:4425   */\n      add\n        /* \"#utility.yul\":4401:4448   */\n      mstore\n        /* \"#utility.yul\":4465:4596   */\n      tag_222\n        /* \"#utility.yul\":4591:4595   */\n      dup2\n        /* \"#utility.yul\":4465:4596   */\n      tag_148\n      jump\t// in\n    tag_222:\n        /* \"#utility.yul\":4457:4596   */\n      swap1\n      pop\n        /* \"#utility.yul\":4184:4603   */\n      swap2\n      swap1\n      pop\n      jump\t// out\n        /* \"#utility.yul\":4609:4789   */\n    tag_149:\n        /* \"#utility.yul\":4657:4734   */\n      0x4e487b7100000000000000000000000000000000000000000000000000000000\n        /* \"#utility.yul\":4654:4655   */\n      0x00\n        /* \"#utility.yul\":4647:4735   */\n      mstore\n        /* \"#utility.yul\":4754:4758   */\n      0x11\n        /* \"#utility.yul\":4751:4752   */\n      0x04\n        /* \"#utility.yul\":4744:4759   */\n      mstore\n        /* \"#utility.yul\":4778:4782   */\n      0x24\n        /* \"#utility.yul\":4775:4776   */\n      0x00\n        /* \"#utility.yul\":4768:4783   */\n      revert\n        /* \"#utility.yul\":4795:4986   */\n    tag_38:\n        /* \"#utility.yul\":4835:4838   */\n      0x00\n        /* \"#utility.yul\":4854:4874   */\n      tag_225\n        /* \"#utility.yul\":4872:4873   */\n      dup3\n        /* \"#utility.yul\":4854:4874   */\n      tag_137\n      jump\t// in\n    tag_225:\n        /* \"#utility.yul\":4849:4874   */\n      swap2\n      pop\n        /* \"#utility.yul\":4888:4908   */\n      tag_226\n        /* \"#utility.yul\":4906:4907   */\n      dup4\n        /* \"#utility.yul\":4888:4908   */\n      tag_137\n      jump\t// in\n    tag_226:\n        /* \"#utility.yul\":4883:4908   */\n      swap3\n      pop\n        /* \"#utility.yul\":4931:4932   */\n      dup3\n        /* \"#utility.yul\":4928:4929   */\n      dup3\n        /* \"#utility.yul\":4924:4933   */\n      add\n        /* \"#utility.yul\":4917:4933   */\n      swap1\n      pop\n        /* \"#utility.yul\":4952:4955   */\n      dup1\n        /* \"#utility.yul\":4949:4950   */\n      dup3\n        /* \"#utility.yul\":4946:4956   */\n      gt\n        /* \"#utility.yul\":4943:4979   */\n      iszero\n      tag_227\n      jumpi\n        /* \"#utility.yul\":4959:4977   */\n      tag_228\n      tag_149\n      jump\t// in\n    tag_228:\n        /* \"#utility.yul\":4943:4979   */\n    tag_227:\n        /* \"#utility.yul\":4795:4986   */\n      swap3\n      swap2\n      pop\n      pop\n      jump\t// out\n        /* \"#utility.yul\":4992:5174   */\n    tag_150:\n        /* \"#utility.yul\":5132:5166   */\n      0x596f752063616e2774207769746864726177206265666f7265203120686f7572\n        /* \"#utility.yul\":5128:5129   */\n      0x00\n        /* \"#utility.yul\":5120:5126   */\n      dup3\n        /* \"#utility.yul\":5116:5130   */\n      add\n        /* \"#utility.yul\":5109:5167   */\n      mstore\n        /* \"#utility.yul\":4992:5174   */\n      pop\n      jump\t// out\n        /* \"#utility.yul\":5180:5546   */\n    tag_151:\n        /* \"#utility.yul\":5322:5325   */\n      0x00\n        /* \"#utility.yul\":5343:5410   */\n      tag_231\n        /* \"#utility.yul\":5407:5409   */\n      0x20\n        /* \"#utility.yul\":5402:5405   */\n      dup4\n        /* \"#utility.yul\":5343:5410   */\n      tag_146\n      jump\t// in\n    tag_231:\n        /* \"#utility.yul\":5336:5410   */\n      swap2\n      pop\n        /* \"#utility.yul\":5419:5512   */\n      tag_232\n        /* \"#utility.yul\":5508:5511   */\n      dup3\n        /* \"#utility.yul\":5419:5512   */\n      tag_150\n      jump\t// in\n    tag_232:\n        /* \"#utility.yul\":5537:5539   */\n      0x20\n        /* \"#utility.yul\":5532:5535   */\n      dup3\n        /* \"#utility.yul\":5528:5540   */\n      add\n        /* \"#utility.yul\":5521:5540   */\n      swap1\n      pop\n        /* \"#utility.yul\":5180:5546   */\n      swap2\n      swap1\n      pop\n      jump\t// out\n        /* \"#utility.yul\":5552:5971   */\n    tag_41:\n        /* \"#utility.yul\":5718:5722   */\n      0x00\n        /* \"#utility.yul\":5756:5758   */\n      0x20\n        /* \"#utility.yul\":5745:5754   */\n      dup3\n        /* \"#utility.yul\":5741:5759   */\n      add\n        /* \"#utility.yul\":5733:5759   */\n      swap1\n      pop\n        /* \"#utility.yul\":5805:5814   */\n      dup2\n        /* \"#utility.yul\":5799:5803   */\n      dup2\n        /* \"#utility.yul\":5795:5815   */\n      sub\n        /* \"#utility.yul\":5791:5792   */\n      0x00\n        /* \"#utility.yul\":5780:5789   */\n      dup4\n        /* \"#utility.yul\":5776:5793   */\n      add\n        /* \"#utility.yul\":5769:5816   */\n      mstore\n        /* \"#utility.yul\":5833:5964   */\n      tag_234\n        /* \"#utility.yul\":5959:5963   */\n      dup2\n        /* \"#utility.yul\":5833:5964   */\n      tag_151\n      jump\t// in\n    tag_234:\n        /* \"#utility.yul\":5825:5964   */\n      swap1\n      pop\n        /* \"#utility.yul\":5552:5971   */\n      swap2\n      swap1\n      pop\n      jump\t// out\n        /* \"#utility.yul\":5977:6171   */\n    tag_43:\n        /* \"#utility.yul\":6017:6021   */\n      0x00\n        /* \"#utility.yul\":6037:6057   */\n      tag_236\n        /* \"#utility.yul\":6055:6056   */\n      dup3\n        /* \"#utility.yul\":6037:6057   */\n      tag_137\n      jump\t// in\n    tag_236:\n        /* \"#utility.yul\":6032:6057   */\n      swap2\n      pop\n        /* \"#utility.yul\":6071:6091   */\n      tag_237\n        /* \"#utility.yul\":6089:6090   */\n      dup4\n        /* \"#utility.yul\":6071:6091   */\n      tag_137\n      jump\t// in\n    tag_237:\n        /* \"#utility.yul\":6066:6091   */\n      swap3\n      pop\n        /* \"#utility.yul\":6115:6116   */\n      dup3\n        /* \"#utility.yul\":6112:6113   */\n      dup3\n        /* \"#utility.yul\":6108:6117   */\n      sub\n        /* \"#utility.yul\":6100:6117   */\n      swap1\n      pop\n        /* \"#utility.yul\":6139:6140   */\n      dup2\n        /* \"#utility.yul\":6133:6137   */\n      dup2\n        /* \"#utility.yul\":6130:6141   */\n      gt\n        /* \"#utility.yul\":6127:6164   */\n      iszero\n      tag_238\n      jumpi\n        /* \"#utility.yul\":6144:6162   */\n      tag_239\n      tag_149\n      jump\t// in\n    tag_239:\n        /* \"#utility.yul\":6127:6164   */\n    tag_238:\n        /* \"#utility.yul\":5977:6171   */\n      swap3\n      swap2\n      pop\n      pop\n      jump\t// out\n        /* \"#utility.yul\":6177:6587   */\n    tag_45:\n        /* \"#utility.yul\":6217:6224   */\n      0x00\n        /* \"#utility.yul\":6240:6260   */\n      tag_241\n        /* \"#utility.yul\":6258:6259   */\n      dup3\n        /* \"#utility.yul\":6240:6260   */\n      tag_137\n      jump\t// in\n    tag_241:\n        /* \"#utility.yul\":6235:6260   */\n      swap2\n      pop\n        /* \"#utility.yul\":6274:6294   */\n      tag_242\n        /* \"#utility.yul\":6292:6293   */\n      dup4\n        /* \"#utility.yul\":6274:6294   */\n      tag_137\n      jump\t// in\n    tag_242:\n        /* \"#utility.yul\":6269:6294   */\n      swap3\n      pop\n        /* \"#utility.yul\":6329:6330   */\n      dup3\n        /* \"#utility.yul\":6326:6327   */\n      dup3\n        /* \"#utility.yul\":6322:6331   */\n      mul\n        /* \"#utility.yul\":6351:6381   */\n      tag_243\n        /* \"#utility.yul\":6369:6380   */\n      dup2\n        /* \"#utility.yul\":6351:6381   */\n      tag_137\n      jump\t// in\n    tag_243:\n        /* \"#utility.yul\":6340:6381   */\n      swap2\n      pop\n        /* \"#utility.yul\":6530:6531   */\n      dup3\n        /* \"#utility.yul\":6521:6528   */\n      dup3\n        /* \"#utility.yul\":6517:6532   */\n      div\n        /* \"#utility.yul\":6514:6515   */\n      dup5\n        /* \"#utility.yul\":6511:6533   */\n      eq\n        /* \"#utility.yul\":6491:6492   */\n      dup4\n        /* \"#utility.yul\":6484:6493   */\n      iszero\n        /* \"#utility.yul\":6464:6547   */\n      or\n        /* \"#utility.yul\":6441:6580   */\n      tag_244\n      jumpi\n        /* \"#utility.yul\":6560:6578   */\n      tag_245\n      tag_149\n      jump\t// in\n    tag_245:\n        /* \"#utility.yul\":6441:6580   */\n    tag_244:\n        /* \"#utility.yul\":6225:6587   */\n      pop\n        /* \"#utility.yul\":6177:6587   */\n      swap3\n      swap2\n      pop\n      pop\n      jump\t// out\n        /* \"#utility.yul\":6593:6773   */\n    tag_152:\n        /* \"#utility.yul\":6641:6718   */\n      0x4e487b7100000000000000000000000000000000000000000000000000000000\n        /* \"#utility.yul\":6638:6639   */\n      0x00\n        /* \"#utility.yul\":6631:6719   */\n      mstore\n        /* \"#utility.yul\":6738:6742   */\n      0x12\n        /* \"#utility.yul\":6735:6736   */\n      0x04\n        /* \"#utility.yul\":6728:6743   */\n      mstore\n        /* \"#utility.yul\":6762:6766   */\n      0x24\n        /* \"#utility.yul\":6759:6760   */\n      0x00\n        /* \"#utility.yul\":6752:6767   */\n      revert\n        /* \"#utility.yul\":6779:6964   */\n    tag_47:\n        /* \"#utility.yul\":6819:6820   */\n      0x00\n        /* \"#utility.yul\":6836:6856   */\n      tag_248\n        /* \"#utility.yul\":6854:6855   */\n      dup3\n        /* \"#utility.yul\":6836:6856   */\n      tag_137\n      jump\t// in\n    tag_248:\n        /* \"#utility.yul\":6831:6856   */\n      swap2\n      pop\n        /* \"#utility.yul\":6870:6890   */\n      tag_249\n        /* \"#utility.yul\":6888:6889   */\n      dup4\n        /* \"#utility.yul\":6870:6890   */\n      tag_137\n      jump\t// in\n    tag_249:\n        /* \"#utility.yul\":6865:6890   */\n      swap3\n      pop\n        /* \"#utility.yul\":6909:6910   */\n      dup3\n        /* \"#utility.yul\":6899:6934   */\n      tag_250\n      jumpi\n        /* \"#utility.yul\":6914:6932   */\n      tag_251\n      tag_152\n      jump\t// in\n    tag_251:\n        /* \"#utility.yul\":6899:6934   */\n    tag_250:\n        /* \"#utility.yul\":6956:6957   */\n      dup3\n        /* \"#utility.yul\":6953:6954   */\n      dup3\n        /* \"#utility.yul\":6949:6958   */\n      div\n        /* \"#utility.yul\":6944:6958   */\n      swap1\n      pop\n        /* \"#utility.yul\":6779:6964   */\n      swap3\n      swap2\n      pop\n      pop\n      jump\t// out\n        /* \"#utility.yul\":6970:7088   */\n    tag_153:\n        /* \"#utility.yul\":7057:7081   */\n      tag_253\n        /* \"#utility.yul\":7075:7080   */\n      dup2\n        /* \"#utility.yul\":7057:7081   */\n      tag_134\n      jump\t// in\n    tag_253:\n        /* \"#utility.yul\":7052:7055   */\n      dup3\n        /* \"#utility.yul\":7045:7082   */\n      mstore\n        /* \"#utility.yul\":6970:7088   */\n      pop\n      pop\n      jump\t// out\n        /* \"#utility.yul\":7094:7316   */\n    tag_50:\n        /* \"#utility.yul\":7187:7191   */\n      0x00\n        /* \"#utility.yul\":7225:7227   */\n      0x20\n        /* \"#utility.yul\":7214:7223   */\n      dup3\n        /* \"#utility.yul\":7210:7228   */\n      add\n        /* \"#utility.yul\":7202:7228   */\n      swap1\n      pop\n        /* \"#utility.yul\":7238:7309   */\n      tag_255\n        /* \"#utility.yul\":7306:7307   */\n      0x00\n        /* \"#utility.yul\":7295:7304   */\n      dup4\n        /* \"#utility.yul\":7291:7308   */\n      add\n        /* \"#utility.yul\":7282:7288   */\n      dup5\n        /* \"#utility.yul\":7238:7309   */\n      tag_153\n      jump\t// in\n    tag_255:\n        /* \"#utility.yul\":7094:7316   */\n      swap3\n      swap2\n      pop\n      pop\n      jump\t// out\n        /* \"#utility.yul\":7322:7465   */\n    tag_154:\n        /* \"#utility.yul\":7379:7384   */\n      0x00\n        /* \"#utility.yul\":7410:7416   */\n      dup2\n        /* \"#utility.yul\":7404:7417   */\n      mload\n        /* \"#utility.yul\":7395:7417   */\n      swap1\n      pop\n        /* \"#utility.yul\":7426:7459   */\n      tag_257\n        /* \"#utility.yul\":7453:7458   */\n      dup2\n        /* \"#utility.yul\":7426:7459   */\n      tag_139\n      jump\t// in\n    tag_257:\n        /* \"#utility.yul\":7322:7465   */\n      swap3\n      swap2\n      pop\n      pop\n      jump\t// out\n        /* \"#utility.yul\":7471:7822   */\n    tag_54:\n        /* \"#utility.yul\":7541:7547   */\n      0x00\n        /* \"#utility.yul\":7590:7592   */\n      0x20\n        /* \"#utility.yul\":7578:7587   */\n      dup3\n        /* \"#utility.yul\":7569:7576   */\n      dup5\n        /* \"#utility.yul\":7565:7588   */\n      sub\n        /* \"#utility.yul\":7561:7593   */\n      slt\n        /* \"#utility.yul\":7558:7677   */\n      iszero\n      tag_259\n      jumpi\n        /* \"#utility.yul\":7596:7675   */\n      tag_260\n      tag_131\n      jump\t// in\n    tag_260:\n        /* \"#utility.yul\":7558:7677   */\n    tag_259:\n        /* \"#utility.yul\":7716:7717   */\n      0x00\n        /* \"#utility.yul\":7741:7805   */\n      tag_261\n        /* \"#utility.yul\":7797:7804   */\n      dup5\n        /* \"#utility.yul\":7788:7794   */\n      dup3\n        /* \"#utility.yul\":7777:7786   */\n      dup6\n        /* \"#utility.yul\":7773:7795   */\n      add\n        /* \"#utility.yul\":7741:7805   */\n      tag_154\n      jump\t// in\n    tag_261:\n        /* \"#utility.yul\":7731:7805   */\n      swap2\n      pop\n        /* \"#utility.yul\":7687:7815   */\n      pop\n        /* \"#utility.yul\":7471:7822   */\n      swap3\n      swap2\n      pop\n      pop\n      jump\t// out\n        /* \"#utility.yul\":7828:8009   */\n    tag_155:\n        /* \"#utility.yul\":7968:8001   */\n      0x4e6f7420456e6f756768204d6f6e657920746f20676976652072657761726400\n        /* \"#utility.yul\":7964:7965   */\n      0x00\n        /* \"#utility.yul\":7956:7962   */\n      dup3\n        /* \"#utility.yul\":7952:7966   */\n      add\n        /* \"#utility.yul\":7945:8002   */\n      mstore\n        /* \"#utility.yul\":7828:8009   */\n      pop\n      jump\t// out\n        /* \"#utility.yul\":8015:8381   */\n    tag_156:\n        /* \"#utility.yul\":8157:8160   */\n      0x00\n        /* \"#utility.yul\":8178:8245   */\n      tag_264\n        /* \"#utility.yul\":8242:8244   */\n      0x1f\n        /* \"#utility.yul\":8237:8240   */\n      dup4\n        /* \"#utility.yul\":8178:8245   */\n      tag_146\n      jump\t// in\n    tag_264:\n        /* \"#utility.yul\":8171:8245   */\n      swap2\n      pop\n        /* \"#utility.yul\":8254:8347   */\n      tag_265\n        /* \"#utility.yul\":8343:8346   */\n      dup3\n        /* \"#utility.yul\":8254:8347   */\n      tag_155\n      jump\t// in\n    tag_265:\n        /* \"#utility.yul\":8372:8374   */\n      0x20\n        /* \"#utility.yul\":8367:8370   */\n      dup3\n        /* \"#utility.yul\":8363:8375   */\n      add\n        /* \"#utility.yul\":8356:8375   */\n      swap1\n      pop\n        /* \"#utility.yul\":8015:8381   */\n      swap2\n      swap1\n      pop\n      jump\t// out\n        /* \"#utility.yul\":8387:8806   */\n    tag_57:\n        /* \"#utility.yul\":8553:8557   */\n      0x00\n        /* \"#utility.yul\":8591:8593   */\n      0x20\n        /* \"#utility.yul\":8580:8589   */\n      dup3\n        /* \"#utility.yul\":8576:8594   */\n      add\n        /* \"#utility.yul\":8568:8594   */\n      swap1\n      pop\n        /* \"#utility.yul\":8640:8649   */\n      dup2\n        /* \"#utility.yul\":8634:8638   */\n      dup2\n        /* \"#utility.yul\":8630:8650   */\n      sub\n        /* \"#utility.yul\":8626:8627   */\n      0x00\n        /* \"#utility.yul\":8615:8624   */\n      dup4\n        /* \"#utility.yul\":8611:8628   */\n      add\n        /* \"#utility.yul\":8604:8651   */\n      mstore\n        /* \"#utility.yul\":8668:8799   */\n      tag_267\n        /* \"#utility.yul\":8794:8798   */\n      dup2\n        /* \"#utility.yul\":8668:8799   */\n      tag_156\n      jump\t// in\n    tag_267:\n        /* \"#utility.yul\":8660:8799   */\n      swap1\n      pop\n        /* \"#utility.yul\":8387:8806   */\n      swap2\n      swap1\n      pop\n      jump\t// out\n        /* \"#utility.yul\":8812:9040   */\n    tag_157:\n        /* \"#utility.yul\":8952:8986   */\n      0x596f7527726520737570706f73656420746f20656e746572206120706f736974\n        /* \"#utility.yul\":8948:8949   */\n      0x00\n        /* \"#utility.yul\":8940:8946   */\n      dup3\n        /* \"#utility.yul\":8936:8950   */\n      add\n        /* \"#utility.yul\":8929:8987   */\n      mstore\n        /* \"#utility.yul\":9021:9032   */\n      0x6976652076616c75650000000000000000000000000000000000000000000000\n        /* \"#utility.yul\":9016:9018   */\n      0x20\n        /* \"#utility.yul\":9008:9014   */\n      dup3\n        /* \"#utility.yul\":9004:9019   */\n      add\n        /* \"#utility.yul\":8997:9033   */\n      mstore\n        /* \"#utility.yul\":8812:9040   */\n      pop\n      jump\t// out\n        /* \"#utility.yul\":9046:9412   */\n    tag_158:\n        /* \"#utility.yul\":9188:9191   */\n      0x00\n        /* \"#utility.yul\":9209:9276   */\n      tag_270\n        /* \"#utility.yul\":9273:9275   */\n      0x29\n        /* \"#utility.yul\":9268:9271   */\n      dup4\n        /* \"#utility.yul\":9209:9276   */\n      tag_146\n      jump\t// in\n    tag_270:\n        /* \"#utility.yul\":9202:9276   */\n      swap2\n      pop\n        /* \"#utility.yul\":9285:9378   */\n      tag_271\n        /* \"#utility.yul\":9374:9377   */\n      dup3\n        /* \"#utility.yul\":9285:9378   */\n      tag_157\n      jump\t// in\n    tag_271:\n        /* \"#utility.yul\":9403:9405   */\n      0x40\n        /* \"#utility.yul\":9398:9401   */\n      dup3\n        /* \"#utility.yul\":9394:9406   */\n      add\n        /* \"#utility.yul\":9387:9406   */\n      swap1\n      pop\n        /* \"#utility.yul\":9046:9412   */\n      swap2\n      swap1\n      pop\n      jump\t// out\n        /* \"#utility.yul\":9418:9837   */\n    tag_72:\n        /* \"#utility.yul\":9584:9588   */\n      0x00\n        /* \"#utility.yul\":9622:9624   */\n      0x20\n        /* \"#utility.yul\":9611:9620   */\n      dup3\n        /* \"#utility.yul\":9607:9625   */\n      add\n        /* \"#utility.yul\":9599:9625   */\n      swap1\n      pop\n        /* \"#utility.yul\":9671:9680   */\n      dup2\n        /* \"#utility.yul\":9665:9669   */\n      dup2\n        /* \"#utility.yul\":9661:9681   */\n      sub\n        /* \"#utility.yul\":9657:9658   */\n      0x00\n        /* \"#utility.yul\":9646:9655   */\n      dup4\n        /* \"#utility.yul\":9642:9659   */\n      add\n        /* \"#utility.yul\":9635:9682   */\n      mstore\n        /* \"#utility.yul\":9699:9830   */\n      tag_273\n        /* \"#utility.yul\":9825:9829   */\n      dup2\n        /* \"#utility.yul\":9699:9830   */\n      tag_158\n      jump\t// in\n    tag_273:\n        /* \"#utility.yul\":9691:9830   */\n      swap1\n      pop\n        /* \"#utility.yul\":9418:9837   */\n      swap2\n      swap1\n      pop\n      jump\t// out\n        /* \"#utility.yul\":9843:10013   */\n    tag_159:\n        /* \"#utility.yul\":9983:10005   */\n      0x496e73756666696369656e742042616c616e6365000000000000000000000000\n        /* \"#utility.yul\":9979:9980   */\n      0x00\n        /* \"#utility.yul\":9971:9977   */\n      dup3\n        /* \"#utility.yul\":9967:9981   */\n      add\n        /* \"#utility.yul\":9960:10006   */\n      mstore\n        /* \"#utility.yul\":9843:10013   */\n      pop\n      jump\t// out\n        /* \"#utility.yul\":10019:10385   */\n    tag_160:\n        /* \"#utility.yul\":10161:10164   */\n      0x00\n        /* \"#utility.yul\":10182:10249   */\n      tag_276\n        /* \"#utility.yul\":10246:10248   */\n      0x14\n        /* \"#utility.yul\":10241:10244   */\n      dup4\n        /* \"#utility.yul\":10182:10249   */\n      tag_146\n      jump\t// in\n    tag_276:\n        /* \"#utility.yul\":10175:10249   */\n      swap2\n      pop\n        /* \"#utility.yul\":10258:10351   */\n      tag_277\n        /* \"#utility.yul\":10347:10350   */\n      dup3\n        /* \"#utility.yul\":10258:10351   */\n      tag_159\n      jump\t// in\n    tag_277:\n        /* \"#utility.yul\":10376:10378   */\n      0x20\n        /* \"#utility.yul\":10371:10374   */\n      dup3\n        /* \"#utility.yul\":10367:10379   */\n      add\n        /* \"#utility.yul\":10360:10379   */\n      swap1\n      pop\n        /* \"#utility.yul\":10019:10385   */\n      swap2\n      swap1\n      pop\n      jump\t// out\n        /* \"#utility.yul\":10391:10810   */\n    tag_78:\n        /* \"#utility.yul\":10557:10561   */\n      0x00\n        /* \"#utility.yul\":10595:10597   */\n      0x20\n        /* \"#utility.yul\":10584:10593   */\n      dup3\n        /* \"#utility.yul\":10580:10598   */\n      add\n        /* \"#utility.yul\":10572:10598   */\n      swap1\n      pop\n        /* \"#utility.yul\":10644:10653   */\n      dup2\n        /* \"#utility.yul\":10638:10642   */\n      dup2\n        /* \"#utility.yul\":10634:10654   */\n      sub\n        /* \"#utility.yul\":10630:10631   */\n      0x00\n        /* \"#utility.yul\":10619:10628   */\n      dup4\n        /* \"#utility.yul\":10615:10632   */\n      add\n        /* \"#utility.yul\":10608:10655   */\n      mstore\n        /* \"#utility.yul\":10672:10803   */\n      tag_279\n        /* \"#utility.yul\":10798:10802   */\n      dup2\n        /* \"#utility.yul\":10672:10803   */\n      tag_160\n      jump\t// in\n    tag_279:\n        /* \"#utility.yul\":10664:10803   */\n      swap1\n      pop\n        /* \"#utility.yul\":10391:10810   */\n      swap2\n      swap1\n      pop\n      jump\t// out\n        /* \"#utility.yul\":10816:10995   */\n    tag_161:\n        /* \"#utility.yul\":10956:10987   */\n      0x596f7520646f6e2774206861766520656e6f7567682062616c616e6365000000\n        /* \"#utility.yul\":10952:10953   */\n      0x00\n        /* \"#utility.yul\":10944:10950   */\n      dup3\n        /* \"#utility.yul\":10940:10954   */\n      add\n        /* \"#utility.yul\":10933:10988   */\n      mstore\n        /* \"#utility.yul\":10816:10995   */\n      pop\n      jump\t// out\n        /* \"#utility.yul\":11001:11367   */\n    tag_162:\n        /* \"#utility.yul\":11143:11146   */\n      0x00\n        /* \"#utility.yul\":11164:11231   */\n      tag_282\n        /* \"#utility.yul\":11228:11230   */\n      0x1d\n        /* \"#utility.yul\":11223:11226   */\n      dup4\n        /* \"#utility.yul\":11164:11231   */\n      tag_146\n      jump\t// in\n    tag_282:\n        /* \"#utility.yul\":11157:11231   */\n      swap2\n      pop\n        /* \"#utility.yul\":11240:11333   */\n      tag_283\n        /* \"#utility.yul\":11329:11332   */\n      dup3\n        /* \"#utility.yul\":11240:11333   */\n      tag_161\n      jump\t// in\n    tag_283:\n        /* \"#utility.yul\":11358:11360   */\n      0x20\n        /* \"#utility.yul\":11353:11356   */\n      dup3\n        /* \"#utility.yul\":11349:11361   */\n      add\n        /* \"#utility.yul\":11342:11361   */\n      swap1\n      pop\n        /* \"#utility.yul\":11001:11367   */\n      swap2\n      swap1\n      pop\n      jump\t// out\n        /* \"#utility.yul\":11373:11792   */\n    tag_85:\n        /* \"#utility.yul\":11539:11543   */\n      0x00\n        /* \"#utility.yul\":11577:11579   */\n      0x20\n        /* \"#utility.yul\":11566:11575   */\n      dup3\n        /* \"#utility.yul\":11562:11580   */\n      add\n        /* \"#utility.yul\":11554:11580   */\n      swap1\n      pop\n        /* \"#utility.yul\":11626:11635   */\n      dup2\n        /* \"#utility.yul\":11620:11624   */\n      dup2\n        /* \"#utility.yul\":11616:11636   */\n      sub\n        /* \"#utility.yul\":11612:11613   */\n      0x00\n        /* \"#utility.yul\":11601:11610   */\n      dup4\n        /* \"#utility.yul\":11597:11614   */\n      add\n        /* \"#utility.yul\":11590:11637   */\n      mstore\n        /* \"#utility.yul\":11654:11785   */\n      tag_285\n        /* \"#utility.yul\":11780:11784   */\n      dup2\n        /* \"#utility.yul\":11654:11785   */\n      tag_162\n      jump\t// in\n    tag_285:\n        /* \"#utility.yul\":11646:11785   */\n      swap1\n      pop\n        /* \"#utility.yul\":11373:11792   */\n      swap2\n      swap1\n      pop\n      jump\t// out\n        /* \"#utility.yul\":11798:12130   */\n    tag_92:\n        /* \"#utility.yul\":11919:11923   */\n      0x00\n        /* \"#utility.yul\":11957:11959   */\n      0x40\n        /* \"#utility.yul\":11946:11955   */\n      dup3\n        /* \"#utility.yul\":11942:11960   */\n      add\n        /* \"#utility.yul\":11934:11960   */\n      swap1\n      pop\n        /* \"#utility.yul\":11970:12041   */\n      tag_287\n        /* \"#utility.yul\":12038:12039   */\n      0x00\n        /* \"#utility.yul\":12027:12036   */\n      dup4\n        /* \"#utility.yul\":12023:12040   */\n      add\n        /* \"#utility.yul\":12014:12020   */\n      dup6\n        /* \"#utility.yul\":11970:12041   */\n      tag_153\n      jump\t// in\n    tag_287:\n        /* \"#utility.yul\":12051:12123   */\n      tag_288\n        /* \"#utility.yul\":12119:12121   */\n      0x20\n        /* \"#utility.yul\":12108:12117   */\n      dup4\n        /* \"#utility.yul\":12104:12122   */\n      add\n        /* \"#utility.yul\":12095:12101   */\n      dup5\n        /* \"#utility.yul\":12051:12123   */\n      tag_138\n      jump\t// in\n    tag_288:\n        /* \"#utility.yul\":11798:12130   */\n      swap4\n      swap3\n      pop\n      pop\n      pop\n      jump\t// out\n        /* \"#utility.yul\":12136:12578   */\n    tag_97:\n        /* \"#utility.yul\":12285:12289   */\n      0x00\n        /* \"#utility.yul\":12323:12325   */\n      0x60\n        /* \"#utility.yul\":12312:12321   */\n      dup3\n        /* \"#utility.yul\":12308:12326   */\n      add\n        /* \"#utility.yul\":12300:12326   */\n      swap1\n      pop\n        /* \"#utility.yul\":12336:12407   */\n      tag_290\n        /* \"#utility.yul\":12404:12405   */\n      0x00\n        /* \"#utility.yul\":12393:12402   */\n      dup4\n        /* \"#utility.yul\":12389:12406   */\n      add\n        /* \"#utility.yul\":12380:12386   */\n      dup7\n        /* \"#utility.yul\":12336:12407   */\n      tag_153\n      jump\t// in\n    tag_290:\n        /* \"#utility.yul\":12417:12489   */\n      tag_291\n        /* \"#utility.yul\":12485:12487   */\n      0x20\n        /* \"#utility.yul\":12474:12483   */\n      dup4\n        /* \"#utility.yul\":12470:12488   */\n      add\n        /* \"#utility.yul\":12461:12467   */\n      dup6\n        /* \"#utility.yul\":12417:12489   */\n      tag_153\n      jump\t// in\n    tag_291:\n        /* \"#utility.yul\":12499:12571   */\n      tag_292\n        /* \"#utility.yul\":12567:12569   */\n      0x40\n        /* \"#utility.yul\":12556:12565   */\n      dup4\n        /* \"#utility.yul\":12552:12570   */\n      add\n        /* \"#utility.yul\":12543:12549   */\n      dup5\n        /* \"#utility.yul\":12499:12571   */\n      tag_138\n      jump\t// in\n    tag_292:\n        /* \"#utility.yul\":12136:12578   */\n      swap5\n      swap4\n      pop\n      pop\n      pop\n      pop\n      jump\t// out\n        /* \"#utility.yul\":12584:12674   */\n    tag_163:\n        /* \"#utility.yul\":12618:12625   */\n      0x00\n        /* \"#utility.yul\":12661:12666   */\n      dup2\n        /* \"#utility.yul\":12654:12667   */\n      iszero\n        /* \"#utility.yul\":12647:12668   */\n      iszero\n        /* \"#utility.yul\":12636:12668   */\n      swap1\n      pop\n        /* \"#utility.yul\":12584:12674   */\n      swap2\n      swap1\n      pop\n      jump\t// out\n        /* \"#utility.yul\":12680:12796   */\n    tag_164:\n        /* \"#utility.yul\":12750:12771   */\n      tag_295\n        /* \"#utility.yul\":12765:12770   */\n      dup2\n        /* \"#utility.yul\":12750:12771   */\n      tag_163\n      jump\t// in\n    tag_295:\n        /* \"#utility.yul\":12743:12748   */\n      dup2\n        /* \"#utility.yul\":12740:12772   */\n      eq\n        /* \"#utility.yul\":12730:12790   */\n      tag_296\n      jumpi\n        /* \"#utility.yul\":12786:12787   */\n      0x00\n        /* \"#utility.yul\":12783:12784   */\n      dup1\n        /* \"#utility.yul\":12776:12788   */\n      revert\n        /* \"#utility.yul\":12730:12790   */\n    tag_296:\n        /* \"#utility.yul\":12680:12796   */\n      pop\n      jump\t// out\n        /* \"#utility.yul\":12802:12939   */\n    tag_165:\n        /* \"#utility.yul\":12856:12861   */\n      0x00\n        /* \"#utility.yul\":12887:12893   */\n      dup2\n        /* \"#utility.yul\":12881:12894   */\n      mload\n        /* \"#utility.yul\":12872:12894   */\n      swap1\n      pop\n        /* \"#utility.yul\":12903:12933   */\n      tag_298\n        /* \"#utility.yul\":12927:12932   */\n      dup2\n        /* \"#utility.yul\":12903:12933   */\n      tag_164\n      jump\t// in\n    tag_298:\n        /* \"#utility.yul\":12802:12939   */\n      swap3\n      swap2\n      pop\n      pop\n      jump\t// out\n        /* \"#utility.yul\":12945:13290   */\n    tag_103:\n        /* \"#utility.yul\":13012:13018   */\n      0x00\n        /* \"#utility.yul\":13061:13063   */\n      0x20\n        /* \"#utility.yul\":13049:13058   */\n      dup3\n        /* \"#utility.yul\":13040:13047   */\n      dup5\n        /* \"#utility.yul\":13036:13059   */\n      sub\n        /* \"#utility.yul\":13032:13064   */\n      slt\n        /* \"#utility.yul\":13029:13148   */\n      iszero\n      tag_300\n      jumpi\n        /* \"#utility.yul\":13067:13146   */\n      tag_301\n      tag_131\n      jump\t// in\n    tag_301:\n        /* \"#utility.yul\":13029:13148   */\n    tag_300:\n        /* \"#utility.yul\":13187:13188   */\n      0x00\n        /* \"#utility.yul\":13212:13273   */\n      tag_302\n        /* \"#utility.yul\":13265:13272   */\n      dup5\n        /* \"#utility.yul\":13256:13262   */\n      dup3\n        /* \"#utility.yul\":13245:13254   */\n      dup6\n        /* \"#utility.yul\":13241:13263   */\n      add\n        /* \"#utility.yul\":13212:13273   */\n      tag_165\n      jump\t// in\n    tag_302:\n        /* \"#utility.yul\":13202:13273   */\n      swap2\n      pop\n        /* \"#utility.yul\":13158:13283   */\n      pop\n        /* \"#utility.yul\":12945:13290   */\n      swap3\n      swap2\n      pop\n      pop\n      jump\t// out\n        /* \"#utility.yul\":13296:13394   */\n    tag_166:\n        /* \"#utility.yul\":13347:13353   */\n      0x00\n        /* \"#utility.yul\":13381:13386   */\n      dup2\n        /* \"#utility.yul\":13375:13387   */\n      mload\n        /* \"#utility.yul\":13365:13387   */\n      swap1\n      pop\n        /* \"#utility.yul\":13296:13394   */\n      swap2\n      swap1\n      pop\n      jump\t// out\n        /* \"#utility.yul\":13400:13547   */\n    tag_167:\n        /* \"#utility.yul\":13501:13512   */\n      0x00\n        /* \"#utility.yul\":13538:13541   */\n      dup2\n        /* \"#utility.yul\":13523:13541   */\n      swap1\n      pop\n        /* \"#utility.yul\":13400:13547   */\n      swap3\n      swap2\n      pop\n      pop\n      jump\t// out\n        /* \"#utility.yul\":13553:13799   */\n    tag_168:\n        /* \"#utility.yul\":13634:13635   */\n      0x00\n        /* \"#utility.yul\":13644:13757   */\n    tag_306:\n        /* \"#utility.yul\":13658:13664   */\n      dup4\n        /* \"#utility.yul\":13655:13656   */\n      dup2\n        /* \"#utility.yul\":13652:13665   */\n      lt\n        /* \"#utility.yul\":13644:13757   */\n      iszero\n      tag_308\n      jumpi\n        /* \"#utility.yul\":13743:13744   */\n      dup1\n        /* \"#utility.yul\":13738:13741   */\n      dup3\n        /* \"#utility.yul\":13734:13745   */\n      add\n        /* \"#utility.yul\":13728:13746   */\n      mload\n        /* \"#utility.yul\":13724:13725   */\n      dup2\n        /* \"#utility.yul\":13719:13722   */\n      dup5\n        /* \"#utility.yul\":13715:13726   */\n      add\n        /* \"#utility.yul\":13708:13747   */\n      mstore\n        /* \"#utility.yul\":13680:13682   */\n      0x20\n        /* \"#utility.yul\":13677:13678   */\n      dup2\n        /* \"#utility.yul\":13673:13683   */\n      add\n        /* \"#utility.yul\":13668:13683   */\n      swap1\n      pop\n        /* \"#utility.yul\":13644:13757   */\n      jump(tag_306)\n    tag_308:\n        /* \"#utility.yul\":13791:13792   */\n      0x00\n        /* \"#utility.yul\":13782:13788   */\n      dup5\n        /* \"#utility.yul\":13777:13780   */\n      dup5\n        /* \"#utility.yul\":13773:13789   */\n      add\n        /* \"#utility.yul\":13766:13793   */\n      mstore\n        /* \"#utility.yul\":13615:13799   */\n      pop\n        /* \"#utility.yul\":13553:13799   */\n      pop\n      pop\n      pop\n      jump\t// out\n        /* \"#utility.yul\":13805:14191   */\n    tag_169:\n        /* \"#utility.yul\":13909:13912   */\n      0x00\n        /* \"#utility.yul\":13937:13975   */\n      tag_310\n        /* \"#utility.yul\":13969:13974   */\n      dup3\n        /* \"#utility.yul\":13937:13975   */\n      tag_166\n      jump\t// in\n    tag_310:\n        /* \"#utility.yul\":13991:14079   */\n      tag_311\n        /* \"#utility.yul\":14072:14078   */\n      dup2\n        /* \"#utility.yul\":14067:14070   */\n      dup6\n        /* \"#utility.yul\":13991:14079   */\n      tag_167\n      jump\t// in\n    tag_311:\n        /* \"#utility.yul\":13984:14079   */\n      swap4\n      pop\n        /* \"#utility.yul\":14088:14153   */\n      tag_312\n        /* \"#utility.yul\":14146:14152   */\n      dup2\n        /* \"#utility.yul\":14141:14144   */\n      dup6\n        /* \"#utility.yul\":14134:14138   */\n      0x20\n        /* \"#utility.yul\":14127:14132   */\n      dup7\n        /* \"#utility.yul\":14123:14139   */\n      add\n        /* \"#utility.yul\":14088:14153   */\n      tag_168\n      jump\t// in\n    tag_312:\n        /* \"#utility.yul\":14178:14184   */\n      dup1\n        /* \"#utility.yul\":14173:14176   */\n      dup5\n        /* \"#utility.yul\":14169:14185   */\n      add\n        /* \"#utility.yul\":14162:14185   */\n      swap2\n      pop\n        /* \"#utility.yul\":13913:14191   */\n      pop\n        /* \"#utility.yul\":13805:14191   */\n      swap3\n      swap2\n      pop\n      pop\n      jump\t// out\n        /* \"#utility.yul\":14197:14468   */\n    tag_113:\n        /* \"#utility.yul\":14327:14330   */\n      0x00\n        /* \"#utility.yul\":14349:14442   */\n      tag_314\n        /* \"#utility.yul\":14438:14441   */\n      dup3\n        /* \"#utility.yul\":14429:14435   */\n      dup5\n        /* \"#utility.yul\":14349:14442   */\n      tag_169\n      jump\t// in\n    tag_314:\n        /* \"#utility.yul\":14342:14442   */\n      swap2\n      pop\n        /* \"#utility.yul\":14459:14462   */\n      dup2\n        /* \"#utility.yul\":14452:14462   */\n      swap1\n      pop\n        /* \"#utility.yul\":14197:14468   */\n      swap3\n      swap2\n      pop\n      pop\n      jump\t// out\n\n    auxdata: 0xa26469706673582212206a59d0a87615c2244fcb0fbb7c7fe2c68df4bc406ec61ca08b65e5def1f7d70c64736f6c63430008180033\n}\n",
				"bytecode": {
					"linkReferences": {},
					"object": "60a060405234801562000010575f80fd5b5060405162001478380380620014788339818101604052810190620000369190620000e9565b8073ffffffffffffffffffffffffffffffffffffffff1660808173ffffffffffffffffffffffffffffffffffffffff16815250505062000119565b5f80fd5b5f73ffffffffffffffffffffffffffffffffffffffff82169050919050565b5f620000a08262000075565b9050919050565b5f620000b38262000094565b9050919050565b620000c581620000a7565b8114620000d0575f80fd5b50565b5f81519050620000e381620000ba565b92915050565b5f6020828403121562000101576200010062000071565b5b5f6200011084828501620000d3565b91505092915050565b608051611323620001555f395f818161025e0152818161034a015281816105c50152818161065201528181610730015261086001526113235ff3fe608060405234801561000f575f80fd5b5060043610610060575f3560e01c80633ccfd60b146100645780633e11f2e91461006e5780639168ae721461009e57806393707a19146100cf578063a694fc3a146100eb578063fc0c546a14610107575b5f80fd5b61006c610125565b005b61008860048036038101906100839190610c25565b6104ab565b6040516100959190610c68565b60405180910390f35b6100b860048036038101906100b39190610c25565b61055c565b6040516100c6929190610c81565b60405180910390f35b6100e960048036038101906100e49190610cd2565b61057b565b005b61010560048036038101906101009190610cd2565b61060d565b005b61010f61085e565b60405161011c9190610d58565b60405180910390f35b5f805f3373ffffffffffffffffffffffffffffffffffffffff1673ffffffffffffffffffffffffffffffffffffffff1681526020019081526020015f206040518060400160405290815f820154815260200160018201548152505090505f815f015110156101c8576040517f7979dc870000000000000000000000000000000000000000000000000000000081526004016101bf90610dcb565b60405180910390fd5b610e1081602001516101da9190610e16565b421161021b576040517f30f1c21600000000000000000000000000000000000000000000000000000000815260040161021290610e93565b60405180910390fd5b5f81602001514261022c9190610eb1565b90505f610e1082845f01516102419190610ee4565b61024b9190610f52565b905080835f015161025c9190610e16565b7f000000000000000000000000000000000000000000000000000000000000000073ffffffffffffffffffffffffffffffffffffffff166370a08231306040518263ffffffff1660e01b81526004016102b59190610f91565b602060405180830381865afa1580156102d0573d5f803e3d5ffd5b505050506040513d601f19601f820116820180604052508101906102f49190610fbe565b1015610335576040517f08c379a000000000000000000000000000000000000000000000000000000000815260040161032c90611033565b60405180910390fd5b61038e3382855f01516103489190610e16565b7f000000000000000000000000000000000000000000000000000000000000000073ffffffffffffffffffffffffffffffffffffffff166108829092919063ffffffff16565b5f805f3373ffffffffffffffffffffffffffffffffffffffff1673ffffffffffffffffffffffffffffffffffffffff1681526020019081526020015f205f01819055505f805f3373ffffffffffffffffffffffffffffffffffffffff1673ffffffffffffffffffffffffffffffffffffffff1681526020019081526020015f20600101819055503373ffffffffffffffffffffffffffffffffffffffff167f619caafabdd75649b302ba8419e48cccf64f37f1983ac4727cfb38b57703ffc98260405161045b9190610c68565b60405180910390a23373ffffffffffffffffffffffffffffffffffffffff167fcecccf974394b5dfc20e8840042bbaa68e166eff261ba930e076891582965d4160405160405180910390a2505050565b5f805f808473ffffffffffffffffffffffffffffffffffffffff1673ffffffffffffffffffffffffffffffffffffffff1681526020019081526020015f206040518060400160405290815f82015481526020016001820154815250509050610e10816020015161051b9190610e16565b421061052a575f915050610557565b603c42610e10836020015161053f9190610e16565b6105499190610eb1565b6105539190610f52565b9150505b919050565b5f602052805f5260405f205f91509050805f0154908060010154905082565b5f81116105bd576040517f7979dc870000000000000000000000000000000000000000000000000000000081526004016105b4906110c1565b60405180910390fd5b61060a3330837f000000000000000000000000000000000000000000000000000000000000000073ffffffffffffffffffffffffffffffffffffffff16610901909392919063ffffffff16565b50565b5f811161064f576040517f7979dc8700000000000000000000000000000000000000000000000000000000815260040161064690611129565b60405180910390fd5b807f000000000000000000000000000000000000000000000000000000000000000073ffffffffffffffffffffffffffffffffffffffff166370a08231336040518263ffffffff1660e01b81526004016106a99190610f91565b602060405180830381865afa1580156106c4573d5f803e3d5ffd5b505050506040513d601f19601f820116820180604052508101906106e89190610fbe565b10610728576040517f7979dc8700000000000000000000000000000000000000000000000000000000815260040161071f90611191565b60405180910390fd5b6107753330837f000000000000000000000000000000000000000000000000000000000000000073ffffffffffffffffffffffffffffffffffffffff16610901909392919063ffffffff16565b805f803373ffffffffffffffffffffffffffffffffffffffff1673ffffffffffffffffffffffffffffffffffffffff1681526020019081526020015f205f015f8282546107c29190610e16565b92505081905550425f803373ffffffffffffffffffffffffffffffffffffffff1673ffffffffffffffffffffffffffffffffffffffff1681526020019081526020015f20600101819055503373ffffffffffffffffffffffffffffffffffffffff167f9e71bc8eea02a63969f509818f2dafb9254532904319f9dbda79b67bd34a5f3d826040516108539190610c68565b60405180910390a250565b7f000000000000000000000000000000000000000000000000000000000000000081565b6108fc838473ffffffffffffffffffffffffffffffffffffffff1663a9059cbb85856040516024016108b59291906111af565b604051602081830303815290604052915060e01b6020820180517bffffffffffffffffffffffffffffffffffffffffffffffffffffffff8381831617835250505050610983565b505050565b61097d848573ffffffffffffffffffffffffffffffffffffffff166323b872dd868686604051602401610936939291906111d6565b604051602081830303815290604052915060e01b6020820180517bffffffffffffffffffffffffffffffffffffffffffffffffffffffff8381831617835250505050610983565b50505050565b5f6109ad828473ffffffffffffffffffffffffffffffffffffffff16610a1890919063ffffffff16565b90505f8151141580156109d15750808060200190518101906109cf9190611240565b155b15610a1357826040517f5274afe7000000000000000000000000000000000000000000000000000000008152600401610a0a9190610f91565b60405180910390fd5b505050565b6060610a2583835f610a2d565b905092915050565b606081471015610a7457306040517fcd786059000000000000000000000000000000000000000000000000000000008152600401610a6b9190610f91565b60405180910390fd5b5f808573ffffffffffffffffffffffffffffffffffffffff168486604051610a9c91906112d7565b5f6040518083038185875af1925050503d805f8114610ad6576040519150601f19603f3d011682016040523d82523d5f602084013e610adb565b606091505b5091509150610aeb868383610af6565b925050509392505050565b606082610b0b57610b0682610b83565b610b7b565b5f8251148015610b3157505f8473ffffffffffffffffffffffffffffffffffffffff163b145b15610b7357836040517f9996b315000000000000000000000000000000000000000000000000000000008152600401610b6a9190610f91565b60405180910390fd5b819050610b7c565b5b9392505050565b5f81511115610b955780518082602001fd5b6040517f1425ea4200000000000000000000000000000000000000000000000000000000815260040160405180910390fd5b5f80fd5b5f73ffffffffffffffffffffffffffffffffffffffff82169050919050565b5f610bf482610bcb565b9050919050565b610c0481610bea565b8114610c0e575f80fd5b50565b5f81359050610c1f81610bfb565b92915050565b5f60208284031215610c3a57610c39610bc7565b5b5f610c4784828501610c11565b91505092915050565b5f819050919050565b610c6281610c50565b82525050565b5f602082019050610c7b5f830184610c59565b92915050565b5f604082019050610c945f830185610c59565b610ca16020830184610c59565b9392505050565b610cb181610c50565b8114610cbb575f80fd5b50565b5f81359050610ccc81610ca8565b92915050565b5f60208284031215610ce757610ce6610bc7565b5b5f610cf484828501610cbe565b91505092915050565b5f819050919050565b5f610d20610d1b610d1684610bcb565b610cfd565b610bcb565b9050919050565b5f610d3182610d06565b9050919050565b5f610d4282610d27565b9050919050565b610d5281610d38565b82525050565b5f602082019050610d6b5f830184610d49565b92915050565b5f82825260208201905092915050565b7f4e6f20546f6b656e73205374616b6564000000000000000000000000000000005f82015250565b5f610db5601083610d71565b9150610dc082610d81565b602082019050919050565b5f6020820190508181035f830152610de281610da9565b9050919050565b7f4e487b71000000000000000000000000000000000000000000000000000000005f52601160045260245ffd5b5f610e2082610c50565b9150610e2b83610c50565b9250828201905080821115610e4357610e42610de9565b5b92915050565b7f596f752063616e2774207769746864726177206265666f7265203120686f75725f82015250565b5f610e7d602083610d71565b9150610e8882610e49565b602082019050919050565b5f6020820190508181035f830152610eaa81610e71565b9050919050565b5f610ebb82610c50565b9150610ec683610c50565b9250828203905081811115610ede57610edd610de9565b5b92915050565b5f610eee82610c50565b9150610ef983610c50565b9250828202610f0781610c50565b91508282048414831517610f1e57610f1d610de9565b5b5092915050565b7f4e487b71000000000000000000000000000000000000000000000000000000005f52601260045260245ffd5b5f610f5c82610c50565b9150610f6783610c50565b925082610f7757610f76610f25565b5b828204905092915050565b610f8b81610bea565b82525050565b5f602082019050610fa45f830184610f82565b92915050565b5f81519050610fb881610ca8565b92915050565b5f60208284031215610fd357610fd2610bc7565b5b5f610fe084828501610faa565b91505092915050565b7f4e6f7420456e6f756768204d6f6e657920746f206769766520726577617264005f82015250565b5f61101d601f83610d71565b915061102882610fe9565b602082019050919050565b5f6020820190508181035f83015261104a81611011565b9050919050565b7f596f7527726520737570706f73656420746f20656e746572206120706f7369745f8201527f6976652076616c75650000000000000000000000000000000000000000000000602082015250565b5f6110ab602983610d71565b91506110b682611051565b604082019050919050565b5f6020820190508181035f8301526110d88161109f565b9050919050565b7f496e73756666696369656e742042616c616e63650000000000000000000000005f82015250565b5f611113601483610d71565b915061111e826110df565b602082019050919050565b5f6020820190508181035f83015261114081611107565b9050919050565b7f596f7520646f6e2774206861766520656e6f7567682062616c616e63650000005f82015250565b5f61117b601d83610d71565b915061118682611147565b602082019050919050565b5f6020820190508181035f8301526111a88161116f565b9050919050565b5f6040820190506111c25f830185610f82565b6111cf6020830184610c59565b9392505050565b5f6060820190506111e95f830186610f82565b6111f66020830185610f82565b6112036040830184610c59565b949350505050565b5f8115159050919050565b61121f8161120b565b8114611229575f80fd5b50565b5f8151905061123a81611216565b92915050565b5f6020828403121561125557611254610bc7565b5b5f6112628482850161122c565b91505092915050565b5f81519050919050565b5f81905092915050565b5f5b8381101561129c578082015181840152602081019050611281565b5f8484015250505050565b5f6112b18261126b565b6112bb8185611275565b93506112cb81856020860161127f565b80840191505092915050565b5f6112e282846112a7565b91508190509291505056fea26469706673582212206a59d0a87615c2244fcb0fbb7c7fe2c68df4bc406ec61ca08b65e5def1f7d70c64736f6c63430008180033",
					"opcodes": "PUSH1 0xA0 PUSH1 0x40 MSTORE CALLVALUE DUP1 ISZERO PUSH3 0x10 JUMPI PUSH0 DUP1 REVERT JUMPDEST POP PUSH1 0x40 MLOAD PUSH3 0x1478 CODESIZE SUB DUP1 PUSH3 0x1478 DUP4 CODECOPY DUP2 DUP2 ADD PUSH1 0x40 MSTORE DUP2 ADD SWAP1 PUSH3 0x36 SWAP2 SWAP1 PUSH3 0xE9 JUMP JUMPDEST DUP1 PUSH20 0xFFFFFFFFFFFFFFFFFFFFFFFFFFFFFFFFFFFFFFFF AND PUSH1 0x80 DUP2 PUSH20 0xFFFFFFFFFFFFFFFFFFFFFFFFFFFFFFFFFFFFFFFF AND DUP2 MSTORE POP POP POP PUSH3 0x119 JUMP JUMPDEST PUSH0 DUP1 REVERT JUMPDEST PUSH0 PUSH20 0xFFFFFFFFFFFFFFFFFFFFFFFFFFFFFFFFFFFFFFFF DUP3 AND SWAP1 POP SWAP2 SWAP1 POP JUMP JUMPDEST PUSH0 PUSH3 0xA0 DUP3 PUSH3 0x75 JUMP JUMPDEST SWAP1 POP SWAP2 SWAP1 POP JUMP JUMPDEST PUSH0 PUSH3 0xB3 DUP3 PUSH3 0x94 JUMP JUMPDEST SWAP1 POP SWAP2 SWAP1 POP JUMP JUMPDEST PUSH3 0xC5 DUP2 PUSH3 0xA7 JUMP JUMPDEST DUP2 EQ PUSH3 0xD0 JUMPI PUSH0 DUP1 REVERT JUMPDEST POP JUMP JUMPDEST PUSH0 DUP2 MLOAD SWAP1 POP PUSH3 0xE3 DUP2 PUSH3 0xBA JUMP JUMPDEST SWAP3 SWAP2 POP POP JUMP JUMPDEST PUSH0 PUSH1 0x20 DUP3 DUP5 SUB SLT ISZERO PUSH3 0x101 JUMPI PUSH3 0x100 PUSH3 0x71 JUMP JUMPDEST JUMPDEST PUSH0 PUSH3 0x110 DUP5 DUP3 DUP6 ADD PUSH3 0xD3 JUMP JUMPDEST SWAP2 POP POP SWAP3 SWAP2 POP POP JUMP JUMPDEST PUSH1 0x80 MLOAD PUSH2 0x1323 PUSH3 0x155 PUSH0 CODECOPY PUSH0 DUP2 DUP2 PUSH2 0x25E ADD MSTORE DUP2 DUP2 PUSH2 0x34A ADD MSTORE DUP2 DUP2 PUSH2 0x5C5 ADD MSTORE DUP2 DUP2 PUSH2 0x652 ADD MSTORE DUP2 DUP2 PUSH2 0x730 ADD MSTORE PUSH2 0x860 ADD MSTORE PUSH2 0x1323 PUSH0 RETURN INVALID PUSH1 0x80 PUSH1 0x40 MSTORE CALLVALUE DUP1 ISZERO PUSH2 0xF JUMPI PUSH0 DUP1 REVERT JUMPDEST POP PUSH1 0x4 CALLDATASIZE LT PUSH2 0x60 JUMPI PUSH0 CALLDATALOAD PUSH1 0xE0 SHR DUP1 PUSH4 0x3CCFD60B EQ PUSH2 0x64 JUMPI DUP1 PUSH4 0x3E11F2E9 EQ PUSH2 0x6E JUMPI DUP1 PUSH4 0x9168AE72 EQ PUSH2 0x9E JUMPI DUP1 PUSH4 0x93707A19 EQ PUSH2 0xCF JUMPI DUP1 PUSH4 0xA694FC3A EQ PUSH2 0xEB JUMPI DUP1 PUSH4 0xFC0C546A EQ PUSH2 0x107 JUMPI JUMPDEST PUSH0 DUP1 REVERT JUMPDEST PUSH2 0x6C PUSH2 0x125 JUMP JUMPDEST STOP JUMPDEST PUSH2 0x88 PUSH1 0x4 DUP1 CALLDATASIZE SUB DUP2 ADD SWAP1 PUSH2 0x83 SWAP2 SWAP1 PUSH2 0xC25 JUMP JUMPDEST PUSH2 0x4AB JUMP JUMPDEST PUSH1 0x40 MLOAD PUSH2 0x95 SWAP2 SWAP1 PUSH2 0xC68 JUMP JUMPDEST PUSH1 0x40 MLOAD DUP1 SWAP2 SUB SWAP1 RETURN JUMPDEST PUSH2 0xB8 PUSH1 0x4 DUP1 CALLDATASIZE SUB DUP2 ADD SWAP1 PUSH2 0xB3 SWAP2 SWAP1 PUSH2 0xC25 JUMP JUMPDEST PUSH2 0x55C JUMP JUMPDEST PUSH1 0x40 MLOAD PUSH2 0xC6 SWAP3 SWAP2 SWAP1 PUSH2 0xC81 JUMP JUMPDEST PUSH1 0x40 MLOAD DUP1 SWAP2 SUB SWAP1 RETURN JUMPDEST PUSH2 0xE9 PUSH1 0x4 DUP1 CALLDATASIZE SUB DUP2 ADD SWAP1 PUSH2 0xE4 SWAP2 SWAP1 PUSH2 0xCD2 JUMP JUMPDEST PUSH2 0x57B JUMP JUMPDEST STOP JUMPDEST PUSH2 0x105 PUSH1 0x4 DUP1 CALLDATASIZE SUB DUP2 ADD SWAP1 PUSH2 0x100 SWAP2 SWAP1 PUSH2 0xCD2 JUMP JUMPDEST PUSH2 0x60D JUMP JUMPDEST STOP JUMPDEST PUSH2 0x10F PUSH2 0x85E JUMP JUMPDEST PUSH1 0x40 MLOAD PUSH2 0x11C SWAP2 SWAP1 PUSH2 0xD58 JUMP JUMPDEST PUSH1 0x40 MLOAD DUP1 SWAP2 SUB SWAP1 RETURN JUMPDEST PUSH0 DUP1 PUSH0 CALLER PUSH20 0xFFFFFFFFFFFFFFFFFFFFFFFFFFFFFFFFFFFFFFFF AND PUSH20 0xFFFFFFFFFFFFFFFFFFFFFFFFFFFFFFFFFFFFFFFF AND DUP2 MSTORE PUSH1 0x20 ADD SWAP1 DUP2 MSTORE PUSH1 0x20 ADD PUSH0 KECCAK256 PUSH1 0x40 MLOAD DUP1 PUSH1 0x40 ADD PUSH1 0x40 MSTORE SWAP1 DUP2 PUSH0 DUP3 ADD SLOAD DUP2 MSTORE PUSH1 0x20 ADD PUSH1 0x1 DUP3 ADD SLOAD DUP2 MSTORE POP POP SWAP1 POP PUSH0 DUP2 PUSH0 ADD MLOAD LT ISZERO PUSH2 0x1C8 JUMPI PUSH1 0x40 MLOAD PUSH32 0x7979DC8700000000000000000000000000000000000000000000000000000000 DUP2 MSTORE PUSH1 0x4 ADD PUSH2 0x1BF SWAP1 PUSH2 0xDCB JUMP JUMPDEST PUSH1 0x40 MLOAD DUP1 SWAP2 SUB SWAP1 REVERT JUMPDEST PUSH2 0xE10 DUP2 PUSH1 0x20 ADD MLOAD PUSH2 0x1DA SWAP2 SWAP1 PUSH2 0xE16 JUMP JUMPDEST TIMESTAMP GT PUSH2 0x21B JUMPI PUSH1 0x40 MLOAD PUSH32 0x30F1C21600000000000000000000000000000000000000000000000000000000 DUP2 MSTORE PUSH1 0x4 ADD PUSH2 0x212 SWAP1 PUSH2 0xE93 JUMP JUMPDEST PUSH1 0x40 MLOAD DUP1 SWAP2 SUB SWAP1 REVERT JUMPDEST PUSH0 DUP2 PUSH1 0x20 ADD MLOAD TIMESTAMP PUSH2 0x22C SWAP2 SWAP1 PUSH2 0xEB1 JUMP JUMPDEST SWAP1 POP PUSH0 PUSH2 0xE10 DUP3 DUP5 PUSH0 ADD MLOAD PUSH2 0x241 SWAP2 SWAP1 PUSH2 0xEE4 JUMP JUMPDEST PUSH2 0x24B SWAP2 SWAP1 PUSH2 0xF52 JUMP JUMPDEST SWAP1 POP DUP1 DUP4 PUSH0 ADD MLOAD PUSH2 0x25C SWAP2 SWAP1 PUSH2 0xE16 JUMP JUMPDEST PUSH32 0x0 PUSH20 0xFFFFFFFFFFFFFFFFFFFFFFFFFFFFFFFFFFFFFFFF AND PUSH4 0x70A08231 ADDRESS PUSH1 0x40 MLOAD DUP3 PUSH4 0xFFFFFFFF AND PUSH1 0xE0 SHL DUP2 MSTORE PUSH1 0x4 ADD PUSH2 0x2B5 SWAP2 SWAP1 PUSH2 0xF91 JUMP JUMPDEST PUSH1 0x20 PUSH1 0x40 MLOAD DUP1 DUP4 SUB DUP2 DUP7 GAS STATICCALL ISZERO DUP1 ISZERO PUSH2 0x2D0 JUMPI RETURNDATASIZE PUSH0 DUP1 RETURNDATACOPY RETURNDATASIZE PUSH0 REVERT JUMPDEST POP POP POP POP PUSH1 0x40 MLOAD RETURNDATASIZE PUSH1 0x1F NOT PUSH1 0x1F DUP3 ADD AND DUP3 ADD DUP1 PUSH1 0x40 MSTORE POP DUP2 ADD SWAP1 PUSH2 0x2F4 SWAP2 SWAP1 PUSH2 0xFBE JUMP JUMPDEST LT ISZERO PUSH2 0x335 JUMPI PUSH1 0x40 MLOAD PUSH32 0x8C379A000000000000000000000000000000000000000000000000000000000 DUP2 MSTORE PUSH1 0x4 ADD PUSH2 0x32C SWAP1 PUSH2 0x1033 JUMP JUMPDEST PUSH1 0x40 MLOAD DUP1 SWAP2 SUB SWAP1 REVERT JUMPDEST PUSH2 0x38E CALLER DUP3 DUP6 PUSH0 ADD MLOAD PUSH2 0x348 SWAP2 SWAP1 PUSH2 0xE16 JUMP JUMPDEST PUSH32 0x0 PUSH20 0xFFFFFFFFFFFFFFFFFFFFFFFFFFFFFFFFFFFFFFFF AND PUSH2 0x882 SWAP1 SWAP3 SWAP2 SWAP1 PUSH4 0xFFFFFFFF AND JUMP JUMPDEST PUSH0 DUP1 PUSH0 CALLER PUSH20 0xFFFFFFFFFFFFFFFFFFFFFFFFFFFFFFFFFFFFFFFF AND PUSH20 0xFFFFFFFFFFFFFFFFFFFFFFFFFFFFFFFFFFFFFFFF AND DUP2 MSTORE PUSH1 0x20 ADD SWAP1 DUP2 MSTORE PUSH1 0x20 ADD PUSH0 KECCAK256 PUSH0 ADD DUP2 SWAP1 SSTORE POP PUSH0 DUP1 PUSH0 CALLER PUSH20 0xFFFFFFFFFFFFFFFFFFFFFFFFFFFFFFFFFFFFFFFF AND PUSH20 0xFFFFFFFFFFFFFFFFFFFFFFFFFFFFFFFFFFFFFFFF AND DUP2 MSTORE PUSH1 0x20 ADD SWAP1 DUP2 MSTORE PUSH1 0x20 ADD PUSH0 KECCAK256 PUSH1 0x1 ADD DUP2 SWAP1 SSTORE POP CALLER PUSH20 0xFFFFFFFFFFFFFFFFFFFFFFFFFFFFFFFFFFFFFFFF AND PUSH32 0x619CAAFABDD75649B302BA8419E48CCCF64F37F1983AC4727CFB38B57703FFC9 DUP3 PUSH1 0x40 MLOAD PUSH2 0x45B SWAP2 SWAP1 PUSH2 0xC68 JUMP JUMPDEST PUSH1 0x40 MLOAD DUP1 SWAP2 SUB SWAP1 LOG2 CALLER PUSH20 0xFFFFFFFFFFFFFFFFFFFFFFFFFFFFFFFFFFFFFFFF AND PUSH32 0xCECCCF974394B5DFC20E8840042BBAA68E166EFF261BA930E076891582965D41 PUSH1 0x40 MLOAD PUSH1 0x40 MLOAD DUP1 SWAP2 SUB SWAP1 LOG2 POP POP POP JUMP JUMPDEST PUSH0 DUP1 PUSH0 DUP1 DUP5 PUSH20 0xFFFFFFFFFFFFFFFFFFFFFFFFFFFFFFFFFFFFFFFF AND PUSH20 0xFFFFFFFFFFFFFFFFFFFFFFFFFFFFFFFFFFFFFFFF AND DUP2 MSTORE PUSH1 0x20 ADD SWAP1 DUP2 MSTORE PUSH1 0x20 ADD PUSH0 KECCAK256 PUSH1 0x40 MLOAD DUP1 PUSH1 0x40 ADD PUSH1 0x40 MSTORE SWAP1 DUP2 PUSH0 DUP3 ADD SLOAD DUP2 MSTORE PUSH1 0x20 ADD PUSH1 0x1 DUP3 ADD SLOAD DUP2 MSTORE POP POP SWAP1 POP PUSH2 0xE10 DUP2 PUSH1 0x20 ADD MLOAD PUSH2 0x51B SWAP2 SWAP1 PUSH2 0xE16 JUMP JUMPDEST TIMESTAMP LT PUSH2 0x52A JUMPI PUSH0 SWAP2 POP POP PUSH2 0x557 JUMP JUMPDEST PUSH1 0x3C TIMESTAMP PUSH2 0xE10 DUP4 PUSH1 0x20 ADD MLOAD PUSH2 0x53F SWAP2 SWAP1 PUSH2 0xE16 JUMP JUMPDEST PUSH2 0x549 SWAP2 SWAP1 PUSH2 0xEB1 JUMP JUMPDEST PUSH2 0x553 SWAP2 SWAP1 PUSH2 0xF52 JUMP JUMPDEST SWAP2 POP POP JUMPDEST SWAP2 SWAP1 POP JUMP JUMPDEST PUSH0 PUSH1 0x20 MSTORE DUP1 PUSH0 MSTORE PUSH1 0x40 PUSH0 KECCAK256 PUSH0 SWAP2 POP SWAP1 POP DUP1 PUSH0 ADD SLOAD SWAP1 DUP1 PUSH1 0x1 ADD SLOAD SWAP1 POP DUP3 JUMP JUMPDEST PUSH0 DUP2 GT PUSH2 0x5BD JUMPI PUSH1 0x40 MLOAD PUSH32 0x7979DC8700000000000000000000000000000000000000000000000000000000 DUP2 MSTORE PUSH1 0x4 ADD PUSH2 0x5B4 SWAP1 PUSH2 0x10C1 JUMP JUMPDEST PUSH1 0x40 MLOAD DUP1 SWAP2 SUB SWAP1 REVERT JUMPDEST PUSH2 0x60A CALLER ADDRESS DUP4 PUSH32 0x0 PUSH20 0xFFFFFFFFFFFFFFFFFFFFFFFFFFFFFFFFFFFFFFFF AND PUSH2 0x901 SWAP1 SWAP4 SWAP3 SWAP2 SWAP1 PUSH4 0xFFFFFFFF AND JUMP JUMPDEST POP JUMP JUMPDEST PUSH0 DUP2 GT PUSH2 0x64F JUMPI PUSH1 0x40 MLOAD PUSH32 0x7979DC8700000000000000000000000000000000000000000000000000000000 DUP2 MSTORE PUSH1 0x4 ADD PUSH2 0x646 SWAP1 PUSH2 0x1129 JUMP JUMPDEST PUSH1 0x40 MLOAD DUP1 SWAP2 SUB SWAP1 REVERT JUMPDEST DUP1 PUSH32 0x0 PUSH20 0xFFFFFFFFFFFFFFFFFFFFFFFFFFFFFFFFFFFFFFFF AND PUSH4 0x70A08231 CALLER PUSH1 0x40 MLOAD DUP3 PUSH4 0xFFFFFFFF AND PUSH1 0xE0 SHL DUP2 MSTORE PUSH1 0x4 ADD PUSH2 0x6A9 SWAP2 SWAP1 PUSH2 0xF91 JUMP JUMPDEST PUSH1 0x20 PUSH1 0x40 MLOAD DUP1 DUP4 SUB DUP2 DUP7 GAS STATICCALL ISZERO DUP1 ISZERO PUSH2 0x6C4 JUMPI RETURNDATASIZE PUSH0 DUP1 RETURNDATACOPY RETURNDATASIZE PUSH0 REVERT JUMPDEST POP POP POP POP PUSH1 0x40 MLOAD RETURNDATASIZE PUSH1 0x1F NOT PUSH1 0x1F DUP3 ADD AND DUP3 ADD DUP1 PUSH1 0x40 MSTORE POP DUP2 ADD SWAP1 PUSH2 0x6E8 SWAP2 SWAP1 PUSH2 0xFBE JUMP JUMPDEST LT PUSH2 0x728 JUMPI PUSH1 0x40 MLOAD PUSH32 0x7979DC8700000000000000000000000000000000000000000000000000000000 DUP2 MSTORE PUSH1 0x4 ADD PUSH2 0x71F SWAP1 PUSH2 0x1191 JUMP JUMPDEST PUSH1 0x40 MLOAD DUP1 SWAP2 SUB SWAP1 REVERT JUMPDEST PUSH2 0x775 CALLER ADDRESS DUP4 PUSH32 0x0 PUSH20 0xFFFFFFFFFFFFFFFFFFFFFFFFFFFFFFFFFFFFFFFF AND PUSH2 0x901 SWAP1 SWAP4 SWAP3 SWAP2 SWAP1 PUSH4 0xFFFFFFFF AND JUMP JUMPDEST DUP1 PUSH0 DUP1 CALLER PUSH20 0xFFFFFFFFFFFFFFFFFFFFFFFFFFFFFFFFFFFFFFFF AND PUSH20 0xFFFFFFFFFFFFFFFFFFFFFFFFFFFFFFFFFFFFFFFF AND DUP2 MSTORE PUSH1 0x20 ADD SWAP1 DUP2 MSTORE PUSH1 0x20 ADD PUSH0 KECCAK256 PUSH0 ADD PUSH0 DUP3 DUP3 SLOAD PUSH2 0x7C2 SWAP2 SWAP1 PUSH2 0xE16 JUMP JUMPDEST SWAP3 POP POP DUP2 SWAP1 SSTORE POP TIMESTAMP PUSH0 DUP1 CALLER PUSH20 0xFFFFFFFFFFFFFFFFFFFFFFFFFFFFFFFFFFFFFFFF AND PUSH20 0xFFFFFFFFFFFFFFFFFFFFFFFFFFFFFFFFFFFFFFFF AND DUP2 MSTORE PUSH1 0x20 ADD SWAP1 DUP2 MSTORE PUSH1 0x20 ADD PUSH0 KECCAK256 PUSH1 0x1 ADD DUP2 SWAP1 SSTORE POP CALLER PUSH20 0xFFFFFFFFFFFFFFFFFFFFFFFFFFFFFFFFFFFFFFFF AND PUSH32 0x9E71BC8EEA02A63969F509818F2DAFB9254532904319F9DBDA79B67BD34A5F3D DUP3 PUSH1 0x40 MLOAD PUSH2 0x853 SWAP2 SWAP1 PUSH2 0xC68 JUMP JUMPDEST PUSH1 0x40 MLOAD DUP1 SWAP2 SUB SWAP1 LOG2 POP JUMP JUMPDEST PUSH32 0x0 DUP2 JUMP JUMPDEST PUSH2 0x8FC DUP4 DUP5 PUSH20 0xFFFFFFFFFFFFFFFFFFFFFFFFFFFFFFFFFFFFFFFF AND PUSH4 0xA9059CBB DUP6 DUP6 PUSH1 0x40 MLOAD PUSH1 0x24 ADD PUSH2 0x8B5 SWAP3 SWAP2 SWAP1 PUSH2 0x11AF JUMP JUMPDEST PUSH1 0x40 MLOAD PUSH1 0x20 DUP2 DUP4 SUB SUB DUP2 MSTORE SWAP1 PUSH1 0x40 MSTORE SWAP2 POP PUSH1 0xE0 SHL PUSH1 0x20 DUP3 ADD DUP1 MLOAD PUSH28 0xFFFFFFFFFFFFFFFFFFFFFFFFFFFFFFFFFFFFFFFFFFFFFFFFFFFFFFFF DUP4 DUP2 DUP4 AND OR DUP4 MSTORE POP POP POP POP PUSH2 0x983 JUMP JUMPDEST POP POP POP JUMP JUMPDEST PUSH2 0x97D DUP5 DUP6 PUSH20 0xFFFFFFFFFFFFFFFFFFFFFFFFFFFFFFFFFFFFFFFF AND PUSH4 0x23B872DD DUP7 DUP7 DUP7 PUSH1 0x40 MLOAD PUSH1 0x24 ADD PUSH2 0x936 SWAP4 SWAP3 SWAP2 SWAP1 PUSH2 0x11D6 JUMP JUMPDEST PUSH1 0x40 MLOAD PUSH1 0x20 DUP2 DUP4 SUB SUB DUP2 MSTORE SWAP1 PUSH1 0x40 MSTORE SWAP2 POP PUSH1 0xE0 SHL PUSH1 0x20 DUP3 ADD DUP1 MLOAD PUSH28 0xFFFFFFFFFFFFFFFFFFFFFFFFFFFFFFFFFFFFFFFFFFFFFFFFFFFFFFFF DUP4 DUP2 DUP4 AND OR DUP4 MSTORE POP POP POP POP PUSH2 0x983 JUMP JUMPDEST POP POP POP POP JUMP JUMPDEST PUSH0 PUSH2 0x9AD DUP3 DUP5 PUSH20 0xFFFFFFFFFFFFFFFFFFFFFFFFFFFFFFFFFFFFFFFF AND PUSH2 0xA18 SWAP1 SWAP2 SWAP1 PUSH4 0xFFFFFFFF AND JUMP JUMPDEST SWAP1 POP PUSH0 DUP2 MLOAD EQ ISZERO DUP1 ISZERO PUSH2 0x9D1 JUMPI POP DUP1 DUP1 PUSH1 0x20 ADD SWAP1 MLOAD DUP2 ADD SWAP1 PUSH2 0x9CF SWAP2 SWAP1 PUSH2 0x1240 JUMP JUMPDEST ISZERO JUMPDEST ISZERO PUSH2 0xA13 JUMPI DUP3 PUSH1 0x40 MLOAD PUSH32 0x5274AFE700000000000000000000000000000000000000000000000000000000 DUP2 MSTORE PUSH1 0x4 ADD PUSH2 0xA0A SWAP2 SWAP1 PUSH2 0xF91 JUMP JUMPDEST PUSH1 0x40 MLOAD DUP1 SWAP2 SUB SWAP1 REVERT JUMPDEST POP POP POP JUMP JUMPDEST PUSH1 0x60 PUSH2 0xA25 DUP4 DUP4 PUSH0 PUSH2 0xA2D JUMP JUMPDEST SWAP1 POP SWAP3 SWAP2 POP POP JUMP JUMPDEST PUSH1 0x60 DUP2 SELFBALANCE LT ISZERO PUSH2 0xA74 JUMPI ADDRESS PUSH1 0x40 MLOAD PUSH32 0xCD78605900000000000000000000000000000000000000000000000000000000 DUP2 MSTORE PUSH1 0x4 ADD PUSH2 0xA6B SWAP2 SWAP1 PUSH2 0xF91 JUMP JUMPDEST PUSH1 0x40 MLOAD DUP1 SWAP2 SUB SWAP1 REVERT JUMPDEST PUSH0 DUP1 DUP6 PUSH20 0xFFFFFFFFFFFFFFFFFFFFFFFFFFFFFFFFFFFFFFFF AND DUP5 DUP7 PUSH1 0x40 MLOAD PUSH2 0xA9C SWAP2 SWAP1 PUSH2 0x12D7 JUMP JUMPDEST PUSH0 PUSH1 0x40 MLOAD DUP1 DUP4 SUB DUP2 DUP6 DUP8 GAS CALL SWAP3 POP POP POP RETURNDATASIZE DUP1 PUSH0 DUP2 EQ PUSH2 0xAD6 JUMPI PUSH1 0x40 MLOAD SWAP2 POP PUSH1 0x1F NOT PUSH1 0x3F RETURNDATASIZE ADD AND DUP3 ADD PUSH1 0x40 MSTORE RETURNDATASIZE DUP3 MSTORE RETURNDATASIZE PUSH0 PUSH1 0x20 DUP5 ADD RETURNDATACOPY PUSH2 0xADB JUMP JUMPDEST PUSH1 0x60 SWAP2 POP JUMPDEST POP SWAP2 POP SWAP2 POP PUSH2 0xAEB DUP7 DUP4 DUP4 PUSH2 0xAF6 JUMP JUMPDEST SWAP3 POP POP POP SWAP4 SWAP3 POP POP POP JUMP JUMPDEST PUSH1 0x60 DUP3 PUSH2 0xB0B JUMPI PUSH2 0xB06 DUP3 PUSH2 0xB83 JUMP JUMPDEST PUSH2 0xB7B JUMP JUMPDEST PUSH0 DUP3 MLOAD EQ DUP1 ISZERO PUSH2 0xB31 JUMPI POP PUSH0 DUP5 PUSH20 0xFFFFFFFFFFFFFFFFFFFFFFFFFFFFFFFFFFFFFFFF AND EXTCODESIZE EQ JUMPDEST ISZERO PUSH2 0xB73 JUMPI DUP4 PUSH1 0x40 MLOAD PUSH32 0x9996B31500000000000000000000000000000000000000000000000000000000 DUP2 MSTORE PUSH1 0x4 ADD PUSH2 0xB6A SWAP2 SWAP1 PUSH2 0xF91 JUMP JUMPDEST PUSH1 0x40 MLOAD DUP1 SWAP2 SUB SWAP1 REVERT JUMPDEST DUP2 SWAP1 POP PUSH2 0xB7C JUMP JUMPDEST JUMPDEST SWAP4 SWAP3 POP POP POP JUMP JUMPDEST PUSH0 DUP2 MLOAD GT ISZERO PUSH2 0xB95 JUMPI DUP1 MLOAD DUP1 DUP3 PUSH1 0x20 ADD REVERT JUMPDEST PUSH1 0x40 MLOAD PUSH32 0x1425EA4200000000000000000000000000000000000000000000000000000000 DUP2 MSTORE PUSH1 0x4 ADD PUSH1 0x40 MLOAD DUP1 SWAP2 SUB SWAP1 REVERT JUMPDEST PUSH0 DUP1 REVERT JUMPDEST PUSH0 PUSH20 0xFFFFFFFFFFFFFFFFFFFFFFFFFFFFFFFFFFFFFFFF DUP3 AND SWAP1 POP SWAP2 SWAP1 POP JUMP JUMPDEST PUSH0 PUSH2 0xBF4 DUP3 PUSH2 0xBCB JUMP JUMPDEST SWAP1 POP SWAP2 SWAP1 POP JUMP JUMPDEST PUSH2 0xC04 DUP2 PUSH2 0xBEA JUMP JUMPDEST DUP2 EQ PUSH2 0xC0E JUMPI PUSH0 DUP1 REVERT JUMPDEST POP JUMP JUMPDEST PUSH0 DUP2 CALLDATALOAD SWAP1 POP PUSH2 0xC1F DUP2 PUSH2 0xBFB JUMP JUMPDEST SWAP3 SWAP2 POP POP JUMP JUMPDEST PUSH0 PUSH1 0x20 DUP3 DUP5 SUB SLT ISZERO PUSH2 0xC3A JUMPI PUSH2 0xC39 PUSH2 0xBC7 JUMP JUMPDEST JUMPDEST PUSH0 PUSH2 0xC47 DUP5 DUP3 DUP6 ADD PUSH2 0xC11 JUMP JUMPDEST SWAP2 POP POP SWAP3 SWAP2 POP POP JUMP JUMPDEST PUSH0 DUP2 SWAP1 POP SWAP2 SWAP1 POP JUMP JUMPDEST PUSH2 0xC62 DUP2 PUSH2 0xC50 JUMP JUMPDEST DUP3 MSTORE POP POP JUMP JUMPDEST PUSH0 PUSH1 0x20 DUP3 ADD SWAP1 POP PUSH2 0xC7B PUSH0 DUP4 ADD DUP5 PUSH2 0xC59 JUMP JUMPDEST SWAP3 SWAP2 POP POP JUMP JUMPDEST PUSH0 PUSH1 0x40 DUP3 ADD SWAP1 POP PUSH2 0xC94 PUSH0 DUP4 ADD DUP6 PUSH2 0xC59 JUMP JUMPDEST PUSH2 0xCA1 PUSH1 0x20 DUP4 ADD DUP5 PUSH2 0xC59 JUMP JUMPDEST SWAP4 SWAP3 POP POP POP JUMP JUMPDEST PUSH2 0xCB1 DUP2 PUSH2 0xC50 JUMP JUMPDEST DUP2 EQ PUSH2 0xCBB JUMPI PUSH0 DUP1 REVERT JUMPDEST POP JUMP JUMPDEST PUSH0 DUP2 CALLDATALOAD SWAP1 POP PUSH2 0xCCC DUP2 PUSH2 0xCA8 JUMP JUMPDEST SWAP3 SWAP2 POP POP JUMP JUMPDEST PUSH0 PUSH1 0x20 DUP3 DUP5 SUB SLT ISZERO PUSH2 0xCE7 JUMPI PUSH2 0xCE6 PUSH2 0xBC7 JUMP JUMPDEST JUMPDEST PUSH0 PUSH2 0xCF4 DUP5 DUP3 DUP6 ADD PUSH2 0xCBE JUMP JUMPDEST SWAP2 POP POP SWAP3 SWAP2 POP POP JUMP JUMPDEST PUSH0 DUP2 SWAP1 POP SWAP2 SWAP1 POP JUMP JUMPDEST PUSH0 PUSH2 0xD20 PUSH2 0xD1B PUSH2 0xD16 DUP5 PUSH2 0xBCB JUMP JUMPDEST PUSH2 0xCFD JUMP JUMPDEST PUSH2 0xBCB JUMP JUMPDEST SWAP1 POP SWAP2 SWAP1 POP JUMP JUMPDEST PUSH0 PUSH2 0xD31 DUP3 PUSH2 0xD06 JUMP JUMPDEST SWAP1 POP SWAP2 SWAP1 POP JUMP JUMPDEST PUSH0 PUSH2 0xD42 DUP3 PUSH2 0xD27 JUMP JUMPDEST SWAP1 POP SWAP2 SWAP1 POP JUMP JUMPDEST PUSH2 0xD52 DUP2 PUSH2 0xD38 JUMP JUMPDEST DUP3 MSTORE POP POP JUMP JUMPDEST PUSH0 PUSH1 0x20 DUP3 ADD SWAP1 POP PUSH2 0xD6B PUSH0 DUP4 ADD DUP5 PUSH2 0xD49 JUMP JUMPDEST SWAP3 SWAP2 POP POP JUMP JUMPDEST PUSH0 DUP3 DUP3 MSTORE PUSH1 0x20 DUP3 ADD SWAP1 POP SWAP3 SWAP2 POP POP JUMP JUMPDEST PUSH32 0x4E6F20546F6B656E73205374616B656400000000000000000000000000000000 PUSH0 DUP3 ADD MSTORE POP JUMP JUMPDEST PUSH0 PUSH2 0xDB5 PUSH1 0x10 DUP4 PUSH2 0xD71 JUMP JUMPDEST SWAP2 POP PUSH2 0xDC0 DUP3 PUSH2 0xD81 JUMP JUMPDEST PUSH1 0x20 DUP3 ADD SWAP1 POP SWAP2 SWAP1 POP JUMP JUMPDEST PUSH0 PUSH1 0x20 DUP3 ADD SWAP1 POP DUP2 DUP2 SUB PUSH0 DUP4 ADD MSTORE PUSH2 0xDE2 DUP2 PUSH2 0xDA9 JUMP JUMPDEST SWAP1 POP SWAP2 SWAP1 POP JUMP JUMPDEST PUSH32 0x4E487B7100000000000000000000000000000000000000000000000000000000 PUSH0 MSTORE PUSH1 0x11 PUSH1 0x4 MSTORE PUSH1 0x24 PUSH0 REVERT JUMPDEST PUSH0 PUSH2 0xE20 DUP3 PUSH2 0xC50 JUMP JUMPDEST SWAP2 POP PUSH2 0xE2B DUP4 PUSH2 0xC50 JUMP JUMPDEST SWAP3 POP DUP3 DUP3 ADD SWAP1 POP DUP1 DUP3 GT ISZERO PUSH2 0xE43 JUMPI PUSH2 0xE42 PUSH2 0xDE9 JUMP JUMPDEST JUMPDEST SWAP3 SWAP2 POP POP JUMP JUMPDEST PUSH32 0x596F752063616E2774207769746864726177206265666F7265203120686F7572 PUSH0 DUP3 ADD MSTORE POP JUMP JUMPDEST PUSH0 PUSH2 0xE7D PUSH1 0x20 DUP4 PUSH2 0xD71 JUMP JUMPDEST SWAP2 POP PUSH2 0xE88 DUP3 PUSH2 0xE49 JUMP JUMPDEST PUSH1 0x20 DUP3 ADD SWAP1 POP SWAP2 SWAP1 POP JUMP JUMPDEST PUSH0 PUSH1 0x20 DUP3 ADD SWAP1 POP DUP2 DUP2 SUB PUSH0 DUP4 ADD MSTORE PUSH2 0xEAA DUP2 PUSH2 0xE71 JUMP JUMPDEST SWAP1 POP SWAP2 SWAP1 POP JUMP JUMPDEST PUSH0 PUSH2 0xEBB DUP3 PUSH2 0xC50 JUMP JUMPDEST SWAP2 POP PUSH2 0xEC6 DUP4 PUSH2 0xC50 JUMP JUMPDEST SWAP3 POP DUP3 DUP3 SUB SWAP1 POP DUP2 DUP2 GT ISZERO PUSH2 0xEDE JUMPI PUSH2 0xEDD PUSH2 0xDE9 JUMP JUMPDEST JUMPDEST SWAP3 SWAP2 POP POP JUMP JUMPDEST PUSH0 PUSH2 0xEEE DUP3 PUSH2 0xC50 JUMP JUMPDEST SWAP2 POP PUSH2 0xEF9 DUP4 PUSH2 0xC50 JUMP JUMPDEST SWAP3 POP DUP3 DUP3 MUL PUSH2 0xF07 DUP2 PUSH2 0xC50 JUMP JUMPDEST SWAP2 POP DUP3 DUP3 DIV DUP5 EQ DUP4 ISZERO OR PUSH2 0xF1E JUMPI PUSH2 0xF1D PUSH2 0xDE9 JUMP JUMPDEST JUMPDEST POP SWAP3 SWAP2 POP POP JUMP JUMPDEST PUSH32 0x4E487B7100000000000000000000000000000000000000000000000000000000 PUSH0 MSTORE PUSH1 0x12 PUSH1 0x4 MSTORE PUSH1 0x24 PUSH0 REVERT JUMPDEST PUSH0 PUSH2 0xF5C DUP3 PUSH2 0xC50 JUMP JUMPDEST SWAP2 POP PUSH2 0xF67 DUP4 PUSH2 0xC50 JUMP JUMPDEST SWAP3 POP DUP3 PUSH2 0xF77 JUMPI PUSH2 0xF76 PUSH2 0xF25 JUMP JUMPDEST JUMPDEST DUP3 DUP3 DIV SWAP1 POP SWAP3 SWAP2 POP POP JUMP JUMPDEST PUSH2 0xF8B DUP2 PUSH2 0xBEA JUMP JUMPDEST DUP3 MSTORE POP POP JUMP JUMPDEST PUSH0 PUSH1 0x20 DUP3 ADD SWAP1 POP PUSH2 0xFA4 PUSH0 DUP4 ADD DUP5 PUSH2 0xF82 JUMP JUMPDEST SWAP3 SWAP2 POP POP JUMP JUMPDEST PUSH0 DUP2 MLOAD SWAP1 POP PUSH2 0xFB8 DUP2 PUSH2 0xCA8 JUMP JUMPDEST SWAP3 SWAP2 POP POP JUMP JUMPDEST PUSH0 PUSH1 0x20 DUP3 DUP5 SUB SLT ISZERO PUSH2 0xFD3 JUMPI PUSH2 0xFD2 PUSH2 0xBC7 JUMP JUMPDEST JUMPDEST PUSH0 PUSH2 0xFE0 DUP5 DUP3 DUP6 ADD PUSH2 0xFAA JUMP JUMPDEST SWAP2 POP POP SWAP3 SWAP2 POP POP JUMP JUMPDEST PUSH32 0x4E6F7420456E6F756768204D6F6E657920746F20676976652072657761726400 PUSH0 DUP3 ADD MSTORE POP JUMP JUMPDEST PUSH0 PUSH2 0x101D PUSH1 0x1F DUP4 PUSH2 0xD71 JUMP JUMPDEST SWAP2 POP PUSH2 0x1028 DUP3 PUSH2 0xFE9 JUMP JUMPDEST PUSH1 0x20 DUP3 ADD SWAP1 POP SWAP2 SWAP1 POP JUMP JUMPDEST PUSH0 PUSH1 0x20 DUP3 ADD SWAP1 POP DUP2 DUP2 SUB PUSH0 DUP4 ADD MSTORE PUSH2 0x104A DUP2 PUSH2 0x1011 JUMP JUMPDEST SWAP1 POP SWAP2 SWAP1 POP JUMP JUMPDEST PUSH32 0x596F7527726520737570706F73656420746F20656E746572206120706F736974 PUSH0 DUP3 ADD MSTORE PUSH32 0x6976652076616C75650000000000000000000000000000000000000000000000 PUSH1 0x20 DUP3 ADD MSTORE POP JUMP JUMPDEST PUSH0 PUSH2 0x10AB PUSH1 0x29 DUP4 PUSH2 0xD71 JUMP JUMPDEST SWAP2 POP PUSH2 0x10B6 DUP3 PUSH2 0x1051 JUMP JUMPDEST PUSH1 0x40 DUP3 ADD SWAP1 POP SWAP2 SWAP1 POP JUMP JUMPDEST PUSH0 PUSH1 0x20 DUP3 ADD SWAP1 POP DUP2 DUP2 SUB PUSH0 DUP4 ADD MSTORE PUSH2 0x10D8 DUP2 PUSH2 0x109F JUMP JUMPDEST SWAP1 POP SWAP2 SWAP1 POP JUMP JUMPDEST PUSH32 0x496E73756666696369656E742042616C616E6365000000000000000000000000 PUSH0 DUP3 ADD MSTORE POP JUMP JUMPDEST PUSH0 PUSH2 0x1113 PUSH1 0x14 DUP4 PUSH2 0xD71 JUMP JUMPDEST SWAP2 POP PUSH2 0x111E DUP3 PUSH2 0x10DF JUMP JUMPDEST PUSH1 0x20 DUP3 ADD SWAP1 POP SWAP2 SWAP1 POP JUMP JUMPDEST PUSH0 PUSH1 0x20 DUP3 ADD SWAP1 POP DUP2 DUP2 SUB PUSH0 DUP4 ADD MSTORE PUSH2 0x1140 DUP2 PUSH2 0x1107 JUMP JUMPDEST SWAP1 POP SWAP2 SWAP1 POP JUMP JUMPDEST PUSH32 0x596F7520646F6E2774206861766520656E6F7567682062616C616E6365000000 PUSH0 DUP3 ADD MSTORE POP JUMP JUMPDEST PUSH0 PUSH2 0x117B PUSH1 0x1D DUP4 PUSH2 0xD71 JUMP JUMPDEST SWAP2 POP PUSH2 0x1186 DUP3 PUSH2 0x1147 JUMP JUMPDEST PUSH1 0x20 DUP3 ADD SWAP1 POP SWAP2 SWAP1 POP JUMP JUMPDEST PUSH0 PUSH1 0x20 DUP3 ADD SWAP1 POP DUP2 DUP2 SUB PUSH0 DUP4 ADD MSTORE PUSH2 0x11A8 DUP2 PUSH2 0x116F JUMP JUMPDEST SWAP1 POP SWAP2 SWAP1 POP JUMP JUMPDEST PUSH0 PUSH1 0x40 DUP3 ADD SWAP1 POP PUSH2 0x11C2 PUSH0 DUP4 ADD DUP6 PUSH2 0xF82 JUMP JUMPDEST PUSH2 0x11CF PUSH1 0x20 DUP4 ADD DUP5 PUSH2 0xC59 JUMP JUMPDEST SWAP4 SWAP3 POP POP POP JUMP JUMPDEST PUSH0 PUSH1 0x60 DUP3 ADD SWAP1 POP PUSH2 0x11E9 PUSH0 DUP4 ADD DUP7 PUSH2 0xF82 JUMP JUMPDEST PUSH2 0x11F6 PUSH1 0x20 DUP4 ADD DUP6 PUSH2 0xF82 JUMP JUMPDEST PUSH2 0x1203 PUSH1 0x40 DUP4 ADD DUP5 PUSH2 0xC59 JUMP JUMPDEST SWAP5 SWAP4 POP POP POP POP JUMP JUMPDEST PUSH0 DUP2 ISZERO ISZERO SWAP1 POP SWAP2 SWAP1 POP JUMP JUMPDEST PUSH2 0x121F DUP2 PUSH2 0x120B JUMP JUMPDEST DUP2 EQ PUSH2 0x1229 JUMPI PUSH0 DUP1 REVERT JUMPDEST POP JUMP JUMPDEST PUSH0 DUP2 MLOAD SWAP1 POP PUSH2 0x123A DUP2 PUSH2 0x1216 JUMP JUMPDEST SWAP3 SWAP2 POP POP JUMP JUMPDEST PUSH0 PUSH1 0x20 DUP3 DUP5 SUB SLT ISZERO PUSH2 0x1255 JUMPI PUSH2 0x1254 PUSH2 0xBC7 JUMP JUMPDEST JUMPDEST PUSH0 PUSH2 0x1262 DUP5 DUP3 DUP6 ADD PUSH2 0x122C JUMP JUMPDEST SWAP2 POP POP SWAP3 SWAP2 POP POP JUMP JUMPDEST PUSH0 DUP2 MLOAD SWAP1 POP SWAP2 SWAP1 POP JUMP JUMPDEST PUSH0 DUP2 SWAP1 POP SWAP3 SWAP2 POP POP JUMP JUMPDEST PUSH0 JUMPDEST DUP4 DUP2 LT ISZERO PUSH2 0x129C JUMPI DUP1 DUP3 ADD MLOAD DUP2 DUP5 ADD MSTORE PUSH1 0x20 DUP2 ADD SWAP1 POP PUSH2 0x1281 JUMP JUMPDEST PUSH0 DUP5 DUP5 ADD MSTORE POP POP POP POP JUMP JUMPDEST PUSH0 PUSH2 0x12B1 DUP3 PUSH2 0x126B JUMP JUMPDEST PUSH2 0x12BB DUP2 DUP6 PUSH2 0x1275 JUMP JUMPDEST SWAP4 POP PUSH2 0x12CB DUP2 DUP6 PUSH1 0x20 DUP7 ADD PUSH2 0x127F JUMP JUMPDEST DUP1 DUP5 ADD SWAP2 POP POP SWAP3 SWAP2 POP POP JUMP JUMPDEST PUSH0 PUSH2 0x12E2 DUP3 DUP5 PUSH2 0x12A7 JUMP JUMPDEST SWAP2 POP DUP2 SWAP1 POP SWAP3 SWAP2 POP POP JUMP INVALID LOG2 PUSH5 0x6970667358 0x22 SLT KECCAK256 PUSH11 0x59D0A87615C2244FCB0FBB PUSH29 0x7FE2C68DF4BC406EC61CA08B65E5DEF1F7D70C64736F6C634300081800 CALLER "
				},
				"gasEstimates": {
					"creation": {
						"codeDepositCost": "979800",
						"executionCost": "infinite",
						"totalCost": "infinite"
					},
					"external": {
						"fundRewards(uint256)": "infinite",
						"stake(uint256)": "infinite",
						"stakers(address)": "infinite",
						"timeUntilWithdrawable(address)": "infinite",
						"token()": "infinite",
						"withdraw()": "infinite"
					}
				},
				"methodIdentifiers": {
					"fundRewards(uint256)": "93707a19",
					"stake(uint256)": "a694fc3a",
					"stakers(address)": "9168ae72",
					"timeUntilWithdrawable(address)": "3e11f2e9",
					"token()": "fc0c546a",
					"withdraw()": "3ccfd60b"
				}
			},
			"storageLayout": {
				"storage": [
					{
						"astId": 701,
						"contract": "staking2.sol:StakingTokens",
						"label": "stakers",
						"offset": 0,
						"slot": "0",
						"type": "t_mapping(t_address,t_struct(Stake)696_storage)"
					}
				],
				"types": {
					"t_address": {
						"encoding": "inplace",
						"label": "address",
						"numberOfBytes": "20"
					},
					"t_mapping(t_address,t_struct(Stake)696_storage)": {
						"encoding": "mapping",
						"key": "t_address",
						"label": "mapping(address => struct StakingTokens.Stake)",
						"numberOfBytes": "32",
						"value": "t_struct(Stake)696_storage"
					},
					"t_struct(Stake)696_storage": {
						"encoding": "inplace",
						"label": "struct StakingTokens.Stake",
						"members": [
							{
								"astId": 693,
								"contract": "staking2.sol:StakingTokens",
								"label": "amount",
								"offset": 0,
								"slot": "0",
								"type": "t_uint256"
							},
							{
								"astId": 695,
								"contract": "staking2.sol:StakingTokens",
								"label": "timestamp",
								"offset": 0,
								"slot": "1",
								"type": "t_uint256"
							}
						],
						"numberOfBytes": "64"
					},
					"t_uint256": {
						"encoding": "inplace",
						"label": "uint256",
						"numberOfBytes": "32"
					}
				}
			},
			"userdoc": {
				"kind": "user",
				"methods": {
					"stake(uint256)": {
						"notice": "It allows a user to stake tokens but the amount can't be 0 and checks if they have sufficient balance to stake."
					},
					"withdraw()": {
						"notice": "It allows user to withdraw only after 1 hour and also checks if they have non-zero balance in their account. It will take out all the amount from their account."
					}
				},
				"version": 1
			}
		}
	}
}