{
	"staking.sol": {
		"StakingTokens": {
			"abi": [
				{
					"inputs": [
						{
							"internalType": "contract IERC20",
							"name": "_token",
							"type": "address"
						}
					],
					"stateMutability": "nonpayable",
					"type": "constructor"
				},
				{
					"inputs": [
						{
							"internalType": "address",
							"name": "target",
							"type": "address"
						}
					],
					"name": "AddressEmptyCode",
					"type": "error"
				},
				{
					"inputs": [
						{
							"internalType": "address",
							"name": "account",
							"type": "address"
						}
					],
					"name": "AddressInsufficientBalance",
					"type": "error"
				},
				{
					"inputs": [],
					"name": "FailedInnerCall",
					"type": "error"
				},
				{
					"inputs": [
						{
							"internalType": "string",
							"name": "message",
							"type": "string"
						}
					],
					"name": "InsufficientBalance",
					"type": "error"
				},
				{
					"inputs": [
						{
							"internalType": "string",
							"name": "message",
							"type": "string"
						}
					],
					"name": "MultiStake",
					"type": "error"
				},
				{
					"inputs": [
						{
							"internalType": "string",
							"name": "message",
							"type": "string"
						}
					],
					"name": "NotOwner",
					"type": "error"
				},
				{
					"inputs": [
						{
							"internalType": "address",
							"name": "token",
							"type": "address"
						}
					],
					"name": "SafeERC20FailedOperation",
					"type": "error"
				},
				{
					"inputs": [
						{
							"internalType": "string",
							"name": "message",
							"type": "string"
						}
					],
					"name": "TimeNotCompleted",
					"type": "error"
				},
				{
					"anonymous": false,
					"inputs": [
						{
							"indexed": true,
							"internalType": "address",
							"name": "user",
							"type": "address"
						},
						{
							"indexed": false,
							"internalType": "uint256",
							"name": "amount",
							"type": "uint256"
						}
					],
					"name": "Reward",
					"type": "event"
				},
				{
					"anonymous": false,
					"inputs": [
						{
							"indexed": true,
							"internalType": "address",
							"name": "user",
							"type": "address"
						},
						{
							"indexed": false,
							"internalType": "uint256",
							"name": "amount",
							"type": "uint256"
						}
					],
					"name": "Staked",
					"type": "event"
				},
				{
					"anonymous": false,
					"inputs": [
						{
							"indexed": true,
							"internalType": "address",
							"name": "user",
							"type": "address"
						},
						{
							"indexed": false,
							"internalType": "uint256",
							"name": "amount",
							"type": "uint256"
						}
					],
					"name": "Withdraw",
					"type": "event"
				},
				{
					"inputs": [
						{
							"internalType": "uint8",
							"name": "index",
							"type": "uint8"
						}
					],
					"name": "changeRebasingIndex",
					"outputs": [],
					"stateMutability": "nonpayable",
					"type": "function"
				},
				{
					"inputs": [
						{
							"internalType": "uint256",
							"name": "_amount",
							"type": "uint256"
						}
					],
					"name": "stake",
					"outputs": [],
					"stateMutability": "nonpayable",
					"type": "function"
				},
				{
					"inputs": [
						{
							"internalType": "address",
							"name": "",
							"type": "address"
						}
					],
					"name": "stakers",
					"outputs": [
						{
							"internalType": "uint256",
							"name": "amount",
							"type": "uint256"
						},
						{
							"internalType": "uint256",
							"name": "timestamp",
							"type": "uint256"
						},
						{
							"internalType": "uint256",
							"name": "tokensHeGetting",
							"type": "uint256"
						}
					],
					"stateMutability": "view",
					"type": "function"
				},
				{
					"inputs": [],
					"name": "token",
					"outputs": [
						{
							"internalType": "contract IERC20",
							"name": "",
							"type": "address"
						}
					],
					"stateMutability": "view",
					"type": "function"
				},
				{
					"inputs": [],
					"name": "withdraw",
					"outputs": [],
					"stateMutability": "nonpayable",
					"type": "function"
				}
			],
			"devdoc": {
				"author": "Tushar Arora",
				"details": "uses SafeERC20",
				"errors": {
					"AddressEmptyCode(address)": [
						{
							"details": "There's no code at `target` (it is not a contract)."
						}
					],
					"AddressInsufficientBalance(address)": [
						{
							"details": "The ETH balance of the account is not enough to perform the operation."
						}
					],
					"FailedInnerCall()": [
						{
							"details": "A call to an address target failed. The target may have reverted."
						}
					],
					"SafeERC20FailedOperation(address)": [
						{
							"details": "An operation with an ERC20 token failed."
						}
					]
				},
				"kind": "dev",
				"methods": {
					"changeRebasingIndex(uint8)": {
						"params": {
							"index": "is the percantage of rewards you want to give to the stakers  changes the percentage of rewards the staker will get"
						}
					},
					"stake(uint256)": {
						"details": "Sets the value for {_amount}",
						"params": {
							"_amount": "Value a user want to stake."
						}
					}
				},
				"title": "A contract to allow people to stake coins and get rewards.",
				"version": 1
			},
			"evm": {
				"assembly": "    /* \"staking.sol\":265:4059  contract StakingTokens... */\n  mstore(0x40, 0xa0)\n    /* \"staking.sol\":976:977  1 */\n  0x01\n    /* \"staking.sol\":952:977  uint256 rebasingIndex = 1 */\n  0x02\n  sstore\n    /* \"staking.sol\":1103:1104  0 */\n  0x00\n    /* \"staking.sol\":1075:1104  uint256 totalStakedTokens = 0 */\n  0x04\n  sstore\n    /* \"staking.sol\":1147:1148  0 */\n  0x00\n    /* \"staking.sol\":1111:1148  uint256 totalTokensReceivedToUser = 0 */\n  0x05\n  sstore\n    /* \"staking.sol\":1302:1397  constructor(IERC20 _token) ... */\n  callvalue\n  dup1\n  iszero\n  tag_1\n  jumpi\n  0x00\n  dup1\n  revert\ntag_1:\n  pop\n  mload(0x40)\n  sub(codesize, bytecodeSize)\n  dup1\n  bytecodeSize\n  dup4\n  codecopy\n  dup2\n  dup2\n  add\n  0x40\n  mstore\n  dup2\n  add\n  swap1\n  tag_2\n  swap2\n  swap1\n  tag_3\n  jump\t// in\ntag_2:\n    /* \"staking.sol\":1354:1360  _token */\n  dup1\n    /* \"staking.sol\":1346:1360  token = _token */\n  0xffffffffffffffffffffffffffffffffffffffff\n  and\n  0x80\n  dup2\n  0xffffffffffffffffffffffffffffffffffffffff\n  and\n  dup2\n  mstore\n  pop\n  pop\n    /* \"staking.sol\":1379:1389  msg.sender */\n  caller\n    /* \"staking.sol\":1371:1376  owner */\n  0x01\n  0x00\n    /* \"staking.sol\":1371:1389  owner = msg.sender */\n  0x0100\n  exp\n  dup2\n  sload\n  dup2\n  0xffffffffffffffffffffffffffffffffffffffff\n  mul\n  not\n  and\n  swap1\n  dup4\n  0xffffffffffffffffffffffffffffffffffffffff\n  and\n  mul\n  or\n  swap1\n  sstore\n  pop\n    /* \"staking.sol\":1302:1397  constructor(IERC20 _token) ... */\n  pop\n    /* \"staking.sol\":265:4059  contract StakingTokens... */\n  jump(tag_6)\n    /* \"#utility.yul\":88:205   */\ntag_8:\n    /* \"#utility.yul\":197:198   */\n  0x00\n    /* \"#utility.yul\":194:195   */\n  dup1\n    /* \"#utility.yul\":187:199   */\n  revert\n    /* \"#utility.yul\":334:460   */\ntag_10:\n    /* \"#utility.yul\":371:378   */\n  0x00\n    /* \"#utility.yul\":411:453   */\n  0xffffffffffffffffffffffffffffffffffffffff\n    /* \"#utility.yul\":404:409   */\n  dup3\n    /* \"#utility.yul\":400:454   */\n  and\n    /* \"#utility.yul\":389:454   */\n  swap1\n  pop\n    /* \"#utility.yul\":334:460   */\n  swap2\n  swap1\n  pop\n  jump\t// out\n    /* \"#utility.yul\":466:562   */\ntag_11:\n    /* \"#utility.yul\":503:510   */\n  0x00\n    /* \"#utility.yul\":532:556   */\n  tag_21\n    /* \"#utility.yul\":550:555   */\n  dup3\n    /* \"#utility.yul\":532:556   */\n  tag_10\n  jump\t// in\ntag_21:\n    /* \"#utility.yul\":521:556   */\n  swap1\n  pop\n    /* \"#utility.yul\":466:562   */\n  swap2\n  swap1\n  pop\n  jump\t// out\n    /* \"#utility.yul\":568:677   */\ntag_12:\n    /* \"#utility.yul\":618:625   */\n  0x00\n    /* \"#utility.yul\":647:671   */\n  tag_23\n    /* \"#utility.yul\":665:670   */\n  dup3\n    /* \"#utility.yul\":647:671   */\n  tag_11\n  jump\t// in\ntag_23:\n    /* \"#utility.yul\":636:671   */\n  swap1\n  pop\n    /* \"#utility.yul\":568:677   */\n  swap2\n  swap1\n  pop\n  jump\t// out\n    /* \"#utility.yul\":683:831   */\ntag_13:\n    /* \"#utility.yul\":769:806   */\n  tag_25\n    /* \"#utility.yul\":800:805   */\n  dup2\n    /* \"#utility.yul\":769:806   */\n  tag_12\n  jump\t// in\ntag_25:\n    /* \"#utility.yul\":762:767   */\n  dup2\n    /* \"#utility.yul\":759:807   */\n  eq\n    /* \"#utility.yul\":749:825   */\n  tag_26\n  jumpi\n    /* \"#utility.yul\":821:822   */\n  0x00\n    /* \"#utility.yul\":818:819   */\n  dup1\n    /* \"#utility.yul\":811:823   */\n  revert\n    /* \"#utility.yul\":749:825   */\ntag_26:\n    /* \"#utility.yul\":683:831   */\n  pop\n  jump\t// out\n    /* \"#utility.yul\":837:1006   */\ntag_14:\n    /* \"#utility.yul\":907:912   */\n  0x00\n    /* \"#utility.yul\":938:944   */\n  dup2\n    /* \"#utility.yul\":932:945   */\n  mload\n    /* \"#utility.yul\":923:945   */\n  swap1\n  pop\n    /* \"#utility.yul\":954:1000   */\n  tag_28\n    /* \"#utility.yul\":994:999   */\n  dup2\n    /* \"#utility.yul\":954:1000   */\n  tag_13\n  jump\t// in\ntag_28:\n    /* \"#utility.yul\":837:1006   */\n  swap3\n  swap2\n  pop\n  pop\n  jump\t// out\n    /* \"#utility.yul\":1012:1389   */\ntag_3:\n    /* \"#utility.yul\":1095:1101   */\n  0x00\n    /* \"#utility.yul\":1144:1146   */\n  0x20\n    /* \"#utility.yul\":1132:1141   */\n  dup3\n    /* \"#utility.yul\":1123:1130   */\n  dup5\n    /* \"#utility.yul\":1119:1142   */\n  sub\n    /* \"#utility.yul\":1115:1147   */\n  slt\n    /* \"#utility.yul\":1112:1231   */\n  iszero\n  tag_30\n  jumpi\n    /* \"#utility.yul\":1150:1229   */\n  tag_31\n  tag_8\n  jump\t// in\ntag_31:\n    /* \"#utility.yul\":1112:1231   */\ntag_30:\n    /* \"#utility.yul\":1270:1271   */\n  0x00\n    /* \"#utility.yul\":1295:1372   */\n  tag_32\n    /* \"#utility.yul\":1364:1371   */\n  dup5\n    /* \"#utility.yul\":1355:1361   */\n  dup3\n    /* \"#utility.yul\":1344:1353   */\n  dup6\n    /* \"#utility.yul\":1340:1362   */\n  add\n    /* \"#utility.yul\":1295:1372   */\n  tag_14\n  jump\t// in\ntag_32:\n    /* \"#utility.yul\":1285:1372   */\n  swap2\n  pop\n    /* \"#utility.yul\":1241:1382   */\n  pop\n    /* \"#utility.yul\":1012:1389   */\n  swap3\n  swap2\n  pop\n  pop\n  jump\t// out\n    /* \"staking.sol\":265:4059  contract StakingTokens... */\ntag_6:\n  mload(0x80)\n  codecopy(0x00, dataOffset(sub_0), dataSize(sub_0))\n  0x00\n  assignImmutable(\"0x887d510a66c2c5edb473d8bcaa91e9efa96aa179a0ec88f5292ca216a1999f71\")\n  return(0x00, dataSize(sub_0))\nstop\n\nsub_0: assembly {\n        /* \"staking.sol\":265:4059  contract StakingTokens... */\n      mstore(0x40, 0x80)\n      callvalue\n      dup1\n      iszero\n      tag_1\n      jumpi\n      0x00\n      dup1\n      revert\n    tag_1:\n      pop\n      jumpi(tag_2, lt(calldatasize, 0x04))\n      shr(0xe0, calldataload(0x00))\n      dup1\n      0x337b8b96\n      eq\n      tag_3\n      jumpi\n      dup1\n      0x3ccfd60b\n      eq\n      tag_4\n      jumpi\n      dup1\n      0x9168ae72\n      eq\n      tag_5\n      jumpi\n      dup1\n      0xa694fc3a\n      eq\n      tag_6\n      jumpi\n      dup1\n      0xfc0c546a\n      eq\n      tag_7\n      jumpi\n    tag_2:\n      0x00\n      dup1\n      revert\n        /* \"staking.sol\":3869:4056  function changeRebasingIndex(uint8 index) public    ... */\n    tag_3:\n      tag_8\n      0x04\n      dup1\n      calldatasize\n      sub\n      dup2\n      add\n      swap1\n      tag_9\n      swap2\n      swap1\n      tag_10\n      jump\t// in\n    tag_9:\n      tag_11\n      jump\t// in\n    tag_8:\n      stop\n        /* \"staking.sol\":2555:3690  function withdraw() public ... */\n    tag_4:\n      tag_12\n      tag_13\n      jump\t// in\n    tag_12:\n      stop\n        /* \"staking.sol\":879:923  mapping(address => stakeData) public stakers */\n    tag_5:\n      tag_14\n      0x04\n      dup1\n      calldatasize\n      sub\n      dup2\n      add\n      swap1\n      tag_15\n      swap2\n      swap1\n      tag_16\n      jump\t// in\n    tag_15:\n      tag_17\n      jump\t// in\n    tag_14:\n      mload(0x40)\n      tag_18\n      swap4\n      swap3\n      swap2\n      swap1\n      tag_19\n      jump\t// in\n    tag_18:\n      mload(0x40)\n      dup1\n      swap2\n      sub\n      swap1\n      return\n        /* \"staking.sol\":1635:2352  function stake(uint256 _amount) public... */\n    tag_6:\n      tag_20\n      0x04\n      dup1\n      calldatasize\n      sub\n      dup2\n      add\n      swap1\n      tag_21\n      swap2\n      swap1\n      tag_22\n      jump\t// in\n    tag_21:\n      tag_23\n      jump\t// in\n    tag_20:\n      stop\n        /* \"staking.sol\":329:358  IERC20 public immutable token */\n    tag_7:\n      tag_24\n      tag_25\n      jump\t// in\n    tag_24:\n      mload(0x40)\n      tag_26\n      swap2\n      swap1\n      tag_27\n      jump\t// in\n    tag_26:\n      mload(0x40)\n      dup1\n      swap2\n      sub\n      swap1\n      return\n        /* \"staking.sol\":3869:4056  function changeRebasingIndex(uint8 index) public    ... */\n    tag_11:\n        /* \"staking.sol\":3955:3960  owner */\n      0x01\n      0x00\n      swap1\n      sload\n      swap1\n      0x0100\n      exp\n      swap1\n      div\n      0xffffffffffffffffffffffffffffffffffffffff\n      and\n        /* \"staking.sol\":3941:3960  msg.sender != owner */\n      0xffffffffffffffffffffffffffffffffffffffff\n      and\n        /* \"staking.sol\":3941:3951  msg.sender */\n      caller\n        /* \"staking.sol\":3941:3960  msg.sender != owner */\n      0xffffffffffffffffffffffffffffffffffffffff\n      and\n      eq\n        /* \"staking.sol\":3938:4014  if(msg.sender != owner)... */\n      tag_29\n      jumpi\n        /* \"staking.sol\":3982:4014  NotOwner(\"you're not the owner\") */\n      mload(0x40)\n      0xf7251ccf00000000000000000000000000000000000000000000000000000000\n      dup2\n      mstore\n      0x04\n      add\n      tag_30\n      swap1\n      tag_31\n      jump\t// in\n    tag_30:\n      mload(0x40)\n      dup1\n      swap2\n      sub\n      swap1\n      revert\n        /* \"staking.sol\":3938:4014  if(msg.sender != owner)... */\n    tag_29:\n        /* \"staking.sol\":4043:4048  index */\n      dup1\n        /* \"staking.sol\":4027:4048  rebasingIndex = index */\n      0xff\n      and\n        /* \"staking.sol\":4027:4040  rebasingIndex */\n      0x02\n        /* \"staking.sol\":4027:4048  rebasingIndex = index */\n      dup2\n      swap1\n      sstore\n      pop\n        /* \"staking.sol\":3869:4056  function changeRebasingIndex(uint8 index) public    ... */\n      pop\n      jump\t// out\n        /* \"staking.sol\":2555:3690  function withdraw() public ... */\n    tag_13:\n        /* \"staking.sol\":2599:2620  stakeData memory user */\n      0x00\n        /* \"staking.sol\":2623:2630  stakers */\n      dup1\n        /* \"staking.sol\":2623:2642  stakers[msg.sender] */\n      0x00\n        /* \"staking.sol\":2631:2641  msg.sender */\n      caller\n        /* \"staking.sol\":2623:2642  stakers[msg.sender] */\n      0xffffffffffffffffffffffffffffffffffffffff\n      and\n      0xffffffffffffffffffffffffffffffffffffffff\n      and\n      dup2\n      mstore\n      0x20\n      add\n      swap1\n      dup2\n      mstore\n      0x20\n      add\n      0x00\n      keccak256\n        /* \"staking.sol\":2599:2642  stakeData memory user = stakers[msg.sender] */\n      mload(0x40)\n      dup1\n      0x60\n      add\n      0x40\n      mstore\n      swap1\n      dup2\n      0x00\n      dup3\n      add\n      sload\n      dup2\n      mstore\n      0x20\n      add\n      0x01\n      dup3\n      add\n      sload\n      dup2\n      mstore\n      0x20\n      add\n      0x02\n      dup3\n      add\n      sload\n      dup2\n      mstore\n      pop\n      pop\n      swap1\n      pop\n        /* \"staking.sol\":2671:2672  0 */\n      0x00\n        /* \"staking.sol\":2656:2660  user */\n      dup2\n        /* \"staking.sol\":2656:2667  user.amount */\n      0x00\n      add\n      mload\n        /* \"staking.sol\":2656:2672  user.amount <= 0 */\n      gt\n        /* \"staking.sol\":2653:2756  if(user.amount <= 0)... */\n      tag_33\n      jumpi\n        /* \"staking.sol\":2705:2744  InsufficientBalance(\"No Tokens Staked\") */\n      mload(0x40)\n      0x7979dc8700000000000000000000000000000000000000000000000000000000\n      dup2\n      mstore\n      0x04\n      add\n      tag_34\n      swap1\n      tag_35\n      jump\t// in\n    tag_34:\n      mload(0x40)\n      dup1\n      swap2\n      sub\n      swap1\n      revert\n        /* \"staking.sol\":2653:2756  if(user.amount <= 0)... */\n    tag_33:\n        /* \"staking.sol\":2787:2791  user */\n      dup1\n        /* \"staking.sol\":2787:2801  user.timestamp */\n      0x20\n      add\n      mload\n        /* \"staking.sol\":2769:2784  block.timestamp */\n      timestamp\n        /* \"staking.sol\":2769:2801  block.timestamp < user.timestamp */\n      lt\n        /* \"staking.sol\":2766:2875  if(block.timestamp < user.timestamp)... */\n      iszero\n      tag_36\n      jumpi\n        /* \"staking.sol\":2823:2875  TimeNotCompleted(\"You can't withdraw before 1 hour\") */\n      mload(0x40)\n      0x30f1c21600000000000000000000000000000000000000000000000000000000\n      dup2\n      mstore\n      0x04\n      add\n      tag_37\n      swap1\n      tag_38\n      jump\t// in\n    tag_37:\n      mload(0x40)\n      dup1\n      swap2\n      sub\n      swap1\n      revert\n        /* \"staking.sol\":2766:2875  if(block.timestamp < user.timestamp)... */\n    tag_36:\n        /* \"staking.sol\":2888:2902  uint stakeTime */\n      0x00\n        /* \"staking.sol\":2940:2947  1 hours */\n      0x0e10\n        /* \"staking.sol\":2923:2927  user */\n      dup3\n        /* \"staking.sol\":2923:2937  user.timestamp */\n      0x20\n      add\n      mload\n        /* \"staking.sol\":2905:2920  block.timestamp */\n      timestamp\n        /* \"staking.sol\":2905:2937  block.timestamp - user.timestamp */\n      tag_39\n      swap2\n      swap1\n      tag_40\n      jump\t// in\n    tag_39:\n        /* \"staking.sol\":2905:2947  block.timestamp - user.timestamp + 1 hours */\n      tag_41\n      swap2\n      swap1\n      tag_42\n      jump\t// in\n    tag_41:\n        /* \"staking.sol\":2888:2947  uint stakeTime = block.timestamp - user.timestamp + 1 hours */\n      swap1\n      pop\n        /* \"staking.sol\":2958:2973  uint totalHours */\n      0x00\n        /* \"staking.sol\":2988:2995  1 hours */\n      0x0e10\n        /* \"staking.sol\":2976:2985  stakeTime */\n      dup3\n        /* \"staking.sol\":2976:2995  stakeTime / 1 hours */\n      tag_43\n      swap2\n      swap1\n      tag_44\n      jump\t// in\n    tag_43:\n        /* \"staking.sol\":2958:2995  uint totalHours = stakeTime / 1 hours */\n      swap1\n      pop\n        /* \"staking.sol\":3006:3017  uint reward */\n      0x00\n        /* \"staking.sol\":3065:3068  100 */\n      0x64\n        /* \"staking.sol\":3051:3061  totalHours */\n      dup3\n        /* \"staking.sol\":3037:3041  user */\n      dup6\n        /* \"staking.sol\":3037:3048  user.amount */\n      0x00\n      add\n      mload\n        /* \"staking.sol\":3037:3061  user.amount * totalHours */\n      tag_45\n      swap2\n      swap1\n      tag_46\n      jump\t// in\n    tag_45:\n        /* \"staking.sol\":3020:3033  rebasingIndex */\n      sload(0x02)\n        /* \"staking.sol\":3020:3062  rebasingIndex * (user.amount * totalHours) */\n      tag_47\n      swap2\n      swap1\n      tag_46\n      jump\t// in\n    tag_47:\n        /* \"staking.sol\":3020:3068  rebasingIndex * (user.amount * totalHours) / 100 */\n      tag_48\n      swap2\n      swap1\n      tag_44\n      jump\t// in\n    tag_48:\n        /* \"staking.sol\":3006:3068  uint reward = rebasingIndex * (user.amount * totalHours) / 100 */\n      swap1\n      pop\n        /* \"staking.sol\":3268:3274  reward */\n      dup1\n        /* \"staking.sol\":3254:3258  user */\n      dup5\n        /* \"staking.sol\":3254:3265  user.amount */\n      0x00\n      add\n      mload\n        /* \"staking.sol\":3254:3274  user.amount + reward */\n      tag_49\n      swap2\n      swap1\n      tag_42\n      jump\t// in\n    tag_49:\n        /* \"staking.sol\":3220:3225  token */\n      immutable(\"0x887d510a66c2c5edb473d8bcaa91e9efa96aa179a0ec88f5292ca216a1999f71\")\n        /* \"staking.sol\":3220:3235  token.balanceOf */\n      0xffffffffffffffffffffffffffffffffffffffff\n      and\n      0x70a08231\n        /* \"staking.sol\":3244:3248  this */\n      address\n        /* \"staking.sol\":3220:3250  token.balanceOf(address(this)) */\n      mload(0x40)\n      dup3\n      0xffffffff\n      and\n      0xe0\n      shl\n      dup2\n      mstore\n      0x04\n      add\n      tag_50\n      swap2\n      swap1\n      tag_51\n      jump\t// in\n    tag_50:\n      0x20\n      mload(0x40)\n      dup1\n      dup4\n      sub\n      dup2\n      dup7\n      gas\n      staticcall\n      iszero\n      dup1\n      iszero\n      tag_53\n      jumpi\n      returndatasize\n      0x00\n      dup1\n      returndatacopy\n      revert(0x00, returndatasize)\n    tag_53:\n      pop\n      pop\n      pop\n      pop\n      mload(0x40)\n      returndatasize\n      not(0x1f)\n      0x1f\n      dup3\n      add\n      and\n      dup3\n      add\n      dup1\n      0x40\n      mstore\n      pop\n      dup2\n      add\n      swap1\n      tag_54\n      swap2\n      swap1\n      tag_55\n      jump\t// in\n    tag_54:\n        /* \"staking.sol\":3220:3275  token.balanceOf(address(this)) < (user.amount + reward) */\n      lt\n        /* \"staking.sol\":3217:3351  if(token.balanceOf(address(this)) < (user.amount + reward))... */\n      iszero\n      tag_56\n      jumpi\n        /* \"staking.sol\":3297:3351  InsufficientBalance(\"Not Enough Money to give reward\") */\n      mload(0x40)\n      0x7979dc8700000000000000000000000000000000000000000000000000000000\n      dup2\n      mstore\n      0x04\n      add\n      tag_57\n      swap1\n      tag_58\n      jump\t// in\n    tag_57:\n      mload(0x40)\n      dup1\n      swap2\n      sub\n      swap1\n      revert\n        /* \"staking.sol\":3217:3351  if(token.balanceOf(address(this)) < (user.amount + reward))... */\n    tag_56:\n        /* \"staking.sol\":3420:3472  token.safeTransfer(msg.sender, user.amount + reward) */\n      tag_59\n        /* \"staking.sol\":3439:3449  msg.sender */\n      caller\n        /* \"staking.sol\":3465:3471  reward */\n      dup3\n        /* \"staking.sol\":3451:3455  user */\n      dup7\n        /* \"staking.sol\":3451:3462  user.amount */\n      0x00\n      add\n      mload\n        /* \"staking.sol\":3451:3471  user.amount + reward */\n      tag_60\n      swap2\n      swap1\n      tag_42\n      jump\t// in\n    tag_60:\n        /* \"staking.sol\":3420:3425  token */\n      immutable(\"0x887d510a66c2c5edb473d8bcaa91e9efa96aa179a0ec88f5292ca216a1999f71\")\n        /* \"staking.sol\":3420:3438  token.safeTransfer */\n      0xffffffffffffffffffffffffffffffffffffffff\n      and\n      tag_61\n      swap1\n        /* \"staking.sol\":3420:3472  token.safeTransfer(msg.sender, user.amount + reward) */\n      swap3\n      swap2\n      swap1\n      0xffffffff\n      and\n      jump\t// in\n    tag_59:\n        /* \"staking.sol\":3499:3509  msg.sender */\n      caller\n        /* \"staking.sol\":3490:3532  Withdraw(msg.sender, reward + user.amount) */\n      0xffffffffffffffffffffffffffffffffffffffff\n      and\n      0x884edad9ce6fa2440d8a54cc123490eb96d2768479d49ff9c7366125a9424364\n        /* \"staking.sol\":3520:3524  user */\n      dup6\n        /* \"staking.sol\":3520:3531  user.amount */\n      0x00\n      add\n      mload\n        /* \"staking.sol\":3511:3517  reward */\n      dup4\n        /* \"staking.sol\":3511:3531  reward + user.amount */\n      tag_62\n      swap2\n      swap1\n      tag_42\n      jump\t// in\n    tag_62:\n        /* \"staking.sol\":3490:3532  Withdraw(msg.sender, reward + user.amount) */\n      mload(0x40)\n      tag_63\n      swap2\n      swap1\n      tag_64\n      jump\t// in\n    tag_63:\n      mload(0x40)\n      dup1\n      swap2\n      sub\n      swap1\n      log2\n        /* \"staking.sol\":3593:3594  0 */\n      0x00\n        /* \"staking.sol\":3564:3571  stakers */\n      dup1\n        /* \"staking.sol\":3564:3583  stakers[msg.sender] */\n      0x00\n        /* \"staking.sol\":3572:3582  msg.sender */\n      caller\n        /* \"staking.sol\":3564:3583  stakers[msg.sender] */\n      0xffffffffffffffffffffffffffffffffffffffff\n      and\n      0xffffffffffffffffffffffffffffffffffffffff\n      and\n      dup2\n      mstore\n      0x20\n      add\n      swap1\n      dup2\n      mstore\n      0x20\n      add\n      0x00\n      keccak256\n        /* \"staking.sol\":3564:3590  stakers[msg.sender].amount */\n      0x00\n      add\n        /* \"staking.sol\":3564:3594  stakers[msg.sender].amount = 0 */\n      dup2\n      swap1\n      sstore\n      pop\n        /* \"staking.sol\":3637:3638  0 */\n      0x00\n        /* \"staking.sol\":3605:3612  stakers */\n      dup1\n        /* \"staking.sol\":3605:3624  stakers[msg.sender] */\n      0x00\n        /* \"staking.sol\":3613:3623  msg.sender */\n      caller\n        /* \"staking.sol\":3605:3624  stakers[msg.sender] */\n      0xffffffffffffffffffffffffffffffffffffffff\n      and\n      0xffffffffffffffffffffffffffffffffffffffff\n      and\n      dup2\n      mstore\n      0x20\n      add\n      swap1\n      dup2\n      mstore\n      0x20\n      add\n      0x00\n      keccak256\n        /* \"staking.sol\":3605:3634  stakers[msg.sender].timestamp */\n      0x01\n      add\n        /* \"staking.sol\":3605:3638  stakers[msg.sender].timestamp = 0 */\n      dup2\n      swap1\n      sstore\n      pop\n        /* \"staking.sol\":3663:3673  msg.sender */\n      caller\n        /* \"staking.sol\":3656:3682  Reward(msg.sender, reward) */\n      0xffffffffffffffffffffffffffffffffffffffff\n      and\n      0x619caafabdd75649b302ba8419e48cccf64f37f1983ac4727cfb38b57703ffc9\n        /* \"staking.sol\":3675:3681  reward */\n      dup3\n        /* \"staking.sol\":3656:3682  Reward(msg.sender, reward) */\n      mload(0x40)\n      tag_65\n      swap2\n      swap1\n      tag_64\n      jump\t// in\n    tag_65:\n      mload(0x40)\n      dup1\n      swap2\n      sub\n      swap1\n      log2\n        /* \"staking.sol\":2588:3690  {... */\n      pop\n      pop\n      pop\n      pop\n        /* \"staking.sol\":2555:3690  function withdraw() public ... */\n      jump\t// out\n        /* \"staking.sol\":879:923  mapping(address => stakeData) public stakers */\n    tag_17:\n      mstore(0x20, 0x00)\n      dup1\n      0x00\n      mstore\n      keccak256(0x00, 0x40)\n      0x00\n      swap2\n      pop\n      swap1\n      pop\n      dup1\n      0x00\n      add\n      sload\n      swap1\n      dup1\n      0x01\n      add\n      sload\n      swap1\n      dup1\n      0x02\n      add\n      sload\n      swap1\n      pop\n      dup4\n      jump\t// out\n        /* \"staking.sol\":1635:2352  function stake(uint256 _amount) public... */\n    tag_23:\n        /* \"staking.sol\":1722:1723  0 */\n      0x00\n        /* \"staking.sol\":1693:1700  stakers */\n      dup1\n        /* \"staking.sol\":1693:1712  stakers[msg.sender] */\n      0x00\n        /* \"staking.sol\":1701:1711  msg.sender */\n      caller\n        /* \"staking.sol\":1693:1712  stakers[msg.sender] */\n      0xffffffffffffffffffffffffffffffffffffffff\n      and\n      0xffffffffffffffffffffffffffffffffffffffff\n      and\n      dup2\n      mstore\n      0x20\n      add\n      swap1\n      dup2\n      mstore\n      0x20\n      add\n      0x00\n      keccak256\n        /* \"staking.sol\":1693:1719  stakers[msg.sender].amount */\n      0x00\n      add\n      sload\n        /* \"staking.sol\":1693:1723  stakers[msg.sender].amount > 0 */\n      gt\n        /* \"staking.sol\":1690:1826  if(stakers[msg.sender].amount > 0)... */\n      iszero\n      tag_67\n      jumpi\n        /* \"staking.sol\":1745:1826  MultiStake(\"You can't stake again without withdrawing your previous money first\") */\n      mload(0x40)\n      0x0dd028d800000000000000000000000000000000000000000000000000000000\n      dup2\n      mstore\n      0x04\n      add\n      tag_68\n      swap1\n      tag_69\n      jump\t// in\n    tag_68:\n      mload(0x40)\n      dup1\n      swap2\n      sub\n      swap1\n      revert\n        /* \"staking.sol\":1690:1826  if(stakers[msg.sender].amount > 0)... */\n    tag_67:\n        /* \"staking.sol\":1853:1854  0 */\n      0x00\n        /* \"staking.sol\":1842:1849  _amount */\n      dup2\n        /* \"staking.sol\":1842:1854  _amount <= 0 */\n      gt\n      iszero\n        /* \"staking.sol\":1842:1895  _amount <= 0 || token.balanceOf(msg.sender) < _amount */\n      dup1\n      tag_70\n      jumpi\n      pop\n        /* \"staking.sol\":1888:1895  _amount */\n      dup1\n        /* \"staking.sol\":1858:1863  token */\n      immutable(\"0x887d510a66c2c5edb473d8bcaa91e9efa96aa179a0ec88f5292ca216a1999f71\")\n        /* \"staking.sol\":1858:1873  token.balanceOf */\n      0xffffffffffffffffffffffffffffffffffffffff\n      and\n      0x70a08231\n        /* \"staking.sol\":1874:1884  msg.sender */\n      caller\n        /* \"staking.sol\":1858:1885  token.balanceOf(msg.sender) */\n      mload(0x40)\n      dup3\n      0xffffffff\n      and\n      0xe0\n      shl\n      dup2\n      mstore\n      0x04\n      add\n      tag_71\n      swap2\n      swap1\n      tag_51\n      jump\t// in\n    tag_71:\n      0x20\n      mload(0x40)\n      dup1\n      dup4\n      sub\n      dup2\n      dup7\n      gas\n      staticcall\n      iszero\n      dup1\n      iszero\n      tag_73\n      jumpi\n      returndatasize\n      0x00\n      dup1\n      returndatacopy\n      revert(0x00, returndatasize)\n    tag_73:\n      pop\n      pop\n      pop\n      pop\n      mload(0x40)\n      returndatasize\n      not(0x1f)\n      0x1f\n      dup3\n      add\n      and\n      dup3\n      add\n      dup1\n      0x40\n      mstore\n      pop\n      dup2\n      add\n      swap1\n      tag_74\n      swap2\n      swap1\n      tag_55\n      jump\t// in\n    tag_74:\n        /* \"staking.sol\":1858:1895  token.balanceOf(msg.sender) < _amount */\n      lt\n        /* \"staking.sol\":1842:1895  _amount <= 0 || token.balanceOf(msg.sender) < _amount */\n    tag_70:\n        /* \"staking.sol\":1839:1960  if(_amount <= 0 || token.balanceOf(msg.sender) < _amount)... */\n      iszero\n      tag_75\n      jumpi\n        /* \"staking.sol\":1917:1960  InsufficientBalance(\"Insufficient Balance\") */\n      mload(0x40)\n      0x7979dc8700000000000000000000000000000000000000000000000000000000\n      dup2\n      mstore\n      0x04\n      add\n      tag_76\n      swap1\n      tag_77\n      jump\t// in\n    tag_76:\n      mload(0x40)\n      dup1\n      swap2\n      sub\n      swap1\n      revert\n        /* \"staking.sol\":1839:1960  if(_amount <= 0 || token.balanceOf(msg.sender) < _amount)... */\n    tag_75:\n        /* \"staking.sol\":2123:2181  token.safeTransferFrom(msg.sender, address(this), _amount) */\n      tag_78\n        /* \"staking.sol\":2146:2156  msg.sender */\n      caller\n        /* \"staking.sol\":2166:2170  this */\n      address\n        /* \"staking.sol\":2173:2180  _amount */\n      dup4\n        /* \"staking.sol\":2123:2128  token */\n      immutable(\"0x887d510a66c2c5edb473d8bcaa91e9efa96aa179a0ec88f5292ca216a1999f71\")\n        /* \"staking.sol\":2123:2145  token.safeTransferFrom */\n      0xffffffffffffffffffffffffffffffffffffffff\n      and\n      tag_79\n      swap1\n        /* \"staking.sol\":2123:2181  token.safeTransferFrom(msg.sender, address(this), _amount) */\n      swap4\n      swap3\n      swap2\n      swap1\n      0xffffffff\n      and\n      jump\t// in\n    tag_78:\n        /* \"staking.sol\":2224:2231  _amount */\n      dup1\n        /* \"staking.sol\":2194:2201  stakers */\n      0x00\n        /* \"staking.sol\":2194:2213  stakers[msg.sender] */\n      dup1\n        /* \"staking.sol\":2202:2212  msg.sender */\n      caller\n        /* \"staking.sol\":2194:2213  stakers[msg.sender] */\n      0xffffffffffffffffffffffffffffffffffffffff\n      and\n      0xffffffffffffffffffffffffffffffffffffffff\n      and\n      dup2\n      mstore\n      0x20\n      add\n      swap1\n      dup2\n      mstore\n      0x20\n      add\n      0x00\n      keccak256\n        /* \"staking.sol\":2194:2220  stakers[msg.sender].amount */\n      0x00\n      add\n      0x00\n        /* \"staking.sol\":2194:2231  stakers[msg.sender].amount += _amount */\n      dup3\n      dup3\n      sload\n      tag_80\n      swap2\n      swap1\n      tag_42\n      jump\t// in\n    tag_80:\n      swap3\n      pop\n      pop\n      dup2\n      swap1\n      sstore\n      pop\n        /* \"staking.sol\":2292:2299  1 hours */\n      0x0e10\n        /* \"staking.sol\":2274:2289  block.timestamp */\n      timestamp\n        /* \"staking.sol\":2274:2299  block.timestamp + 1 hours */\n      tag_81\n      swap2\n      swap1\n      tag_42\n      jump\t// in\n    tag_81:\n        /* \"staking.sol\":2242:2249  stakers */\n      0x00\n        /* \"staking.sol\":2242:2261  stakers[msg.sender] */\n      dup1\n        /* \"staking.sol\":2250:2260  msg.sender */\n      caller\n        /* \"staking.sol\":2242:2261  stakers[msg.sender] */\n      0xffffffffffffffffffffffffffffffffffffffff\n      and\n      0xffffffffffffffffffffffffffffffffffffffff\n      and\n      dup2\n      mstore\n      0x20\n      add\n      swap1\n      dup2\n      mstore\n      0x20\n      add\n      0x00\n      keccak256\n        /* \"staking.sol\":2242:2271  stakers[msg.sender].timestamp */\n      0x01\n      add\n        /* \"staking.sol\":2242:2299  stakers[msg.sender].timestamp = block.timestamp + 1 hours */\n      dup2\n      swap1\n      sstore\n      pop\n        /* \"staking.sol\":2324:2334  msg.sender */\n      caller\n        /* \"staking.sol\":2317:2344  Staked(msg.sender, _amount) */\n      0xffffffffffffffffffffffffffffffffffffffff\n      and\n      0x9e71bc8eea02a63969f509818f2dafb9254532904319f9dbda79b67bd34a5f3d\n        /* \"staking.sol\":2336:2343  _amount */\n      dup3\n        /* \"staking.sol\":2317:2344  Staked(msg.sender, _amount) */\n      mload(0x40)\n      tag_82\n      swap2\n      swap1\n      tag_64\n      jump\t// in\n    tag_82:\n      mload(0x40)\n      dup1\n      swap2\n      sub\n      swap1\n      log2\n        /* \"staking.sol\":1635:2352  function stake(uint256 _amount) public... */\n      pop\n      jump\t// out\n        /* \"staking.sol\":329:358  IERC20 public immutable token */\n    tag_25:\n      immutable(\"0x887d510a66c2c5edb473d8bcaa91e9efa96aa179a0ec88f5292ca216a1999f71\")\n      dup2\n      jump\t// out\n        /* \"@openzeppelin/contracts/token/ERC20/utils/SafeERC20.sol\":1303:1463  function safeTransfer(IERC20 token, address to, uint256 value) internal {... */\n    tag_61:\n        /* \"@openzeppelin/contracts/token/ERC20/utils/SafeERC20.sol\":1385:1456  _callOptionalReturn(token, abi.encodeCall(token.transfer, (to, value))) */\n      tag_84\n        /* \"@openzeppelin/contracts/token/ERC20/utils/SafeERC20.sol\":1405:1410  token */\n      dup4\n        /* \"@openzeppelin/contracts/token/ERC20/utils/SafeERC20.sol\":1427:1432  token */\n      dup5\n        /* \"@openzeppelin/contracts/token/ERC20/utils/SafeERC20.sol\":1427:1441  token.transfer */\n      0xffffffffffffffffffffffffffffffffffffffff\n      and\n      0xa9059cbb\n        /* \"@openzeppelin/contracts/token/ERC20/utils/SafeERC20.sol\":1444:1446  to */\n      dup6\n        /* \"@openzeppelin/contracts/token/ERC20/utils/SafeERC20.sol\":1448:1453  value */\n      dup6\n        /* \"@openzeppelin/contracts/token/ERC20/utils/SafeERC20.sol\":1412:1455  abi.encodeCall(token.transfer, (to, value)) */\n      add(0x24, mload(0x40))\n      tag_85\n      swap3\n      swap2\n      swap1\n      tag_86\n      jump\t// in\n    tag_85:\n      mload(0x40)\n      0x20\n      dup2\n      dup4\n      sub\n      sub\n      dup2\n      mstore\n      swap1\n      0x40\n      mstore\n      swap2\n      pop\n      0xe0\n      shl\n      0x20\n      dup3\n      add\n      dup1\n      mload\n      0xffffffffffffffffffffffffffffffffffffffffffffffffffffffff\n      dup4\n      dup2\n      dup4\n      and\n      or\n      dup4\n      mstore\n      pop\n      pop\n      pop\n      pop\n        /* \"@openzeppelin/contracts/token/ERC20/utils/SafeERC20.sol\":1385:1404  _callOptionalReturn */\n      tag_87\n        /* \"@openzeppelin/contracts/token/ERC20/utils/SafeERC20.sol\":1385:1456  _callOptionalReturn(token, abi.encodeCall(token.transfer, (to, value))) */\n      jump\t// in\n    tag_84:\n        /* \"@openzeppelin/contracts/token/ERC20/utils/SafeERC20.sol\":1303:1463  function safeTransfer(IERC20 token, address to, uint256 value) internal {... */\n      pop\n      pop\n      pop\n      jump\t// out\n        /* \"@openzeppelin/contracts/token/ERC20/utils/SafeERC20.sol\":1702:1890  function safeTransferFrom(IERC20 token, address from, address to, uint256 value) internal {... */\n    tag_79:\n        /* \"@openzeppelin/contracts/token/ERC20/utils/SafeERC20.sol\":1802:1883  _callOptionalReturn(token, abi.encodeCall(token.transferFrom, (from, to, value))) */\n      tag_89\n        /* \"@openzeppelin/contracts/token/ERC20/utils/SafeERC20.sol\":1822:1827  token */\n      dup5\n        /* \"@openzeppelin/contracts/token/ERC20/utils/SafeERC20.sol\":1844:1849  token */\n      dup6\n        /* \"@openzeppelin/contracts/token/ERC20/utils/SafeERC20.sol\":1844:1862  token.transferFrom */\n      0xffffffffffffffffffffffffffffffffffffffff\n      and\n      0x23b872dd\n        /* \"@openzeppelin/contracts/token/ERC20/utils/SafeERC20.sol\":1865:1869  from */\n      dup7\n        /* \"@openzeppelin/contracts/token/ERC20/utils/SafeERC20.sol\":1871:1873  to */\n      dup7\n        /* \"@openzeppelin/contracts/token/ERC20/utils/SafeERC20.sol\":1875:1880  value */\n      dup7\n        /* \"@openzeppelin/contracts/token/ERC20/utils/SafeERC20.sol\":1829:1882  abi.encodeCall(token.transferFrom, (from, to, value)) */\n      add(0x24, mload(0x40))\n      tag_90\n      swap4\n      swap3\n      swap2\n      swap1\n      tag_91\n      jump\t// in\n    tag_90:\n      mload(0x40)\n      0x20\n      dup2\n      dup4\n      sub\n      sub\n      dup2\n      mstore\n      swap1\n      0x40\n      mstore\n      swap2\n      pop\n      0xe0\n      shl\n      0x20\n      dup3\n      add\n      dup1\n      mload\n      0xffffffffffffffffffffffffffffffffffffffffffffffffffffffff\n      dup4\n      dup2\n      dup4\n      and\n      or\n      dup4\n      mstore\n      pop\n      pop\n      pop\n      pop\n        /* \"@openzeppelin/contracts/token/ERC20/utils/SafeERC20.sol\":1802:1821  _callOptionalReturn */\n      tag_87\n        /* \"@openzeppelin/contracts/token/ERC20/utils/SafeERC20.sol\":1802:1883  _callOptionalReturn(token, abi.encodeCall(token.transferFrom, (from, to, value))) */\n      jump\t// in\n    tag_89:\n        /* \"@openzeppelin/contracts/token/ERC20/utils/SafeERC20.sol\":1702:1890  function safeTransferFrom(IERC20 token, address from, address to, uint256 value) internal {... */\n      pop\n      pop\n      pop\n      pop\n      jump\t// out\n        /* \"@openzeppelin/contracts/token/ERC20/utils/SafeERC20.sol\":4059:4688  function _callOptionalReturn(IERC20 token, bytes memory data) private {... */\n    tag_87:\n        /* \"@openzeppelin/contracts/token/ERC20/utils/SafeERC20.sol\":4478:4501  bytes memory returndata */\n      0x00\n        /* \"@openzeppelin/contracts/token/ERC20/utils/SafeERC20.sol\":4504:4537  address(token).functionCall(data) */\n      tag_93\n        /* \"@openzeppelin/contracts/token/ERC20/utils/SafeERC20.sol\":4532:4536  data */\n      dup3\n        /* \"@openzeppelin/contracts/token/ERC20/utils/SafeERC20.sol\":4512:4517  token */\n      dup5\n        /* \"@openzeppelin/contracts/token/ERC20/utils/SafeERC20.sol\":4504:4531  address(token).functionCall */\n      0xffffffffffffffffffffffffffffffffffffffff\n      and\n      tag_94\n      swap1\n        /* \"@openzeppelin/contracts/token/ERC20/utils/SafeERC20.sol\":4504:4537  address(token).functionCall(data) */\n      swap2\n      swap1\n      0xffffffff\n      and\n      jump\t// in\n    tag_93:\n        /* \"@openzeppelin/contracts/token/ERC20/utils/SafeERC20.sol\":4478:4537  bytes memory returndata = address(token).functionCall(data) */\n      swap1\n      pop\n        /* \"@openzeppelin/contracts/token/ERC20/utils/SafeERC20.sol\":4572:4573  0 */\n      0x00\n        /* \"@openzeppelin/contracts/token/ERC20/utils/SafeERC20.sol\":4551:4561  returndata */\n      dup2\n        /* \"@openzeppelin/contracts/token/ERC20/utils/SafeERC20.sol\":4551:4568  returndata.length */\n      mload\n        /* \"@openzeppelin/contracts/token/ERC20/utils/SafeERC20.sol\":4551:4573  returndata.length != 0 */\n      eq\n      iszero\n        /* \"@openzeppelin/contracts/token/ERC20/utils/SafeERC20.sol\":4551:4608  returndata.length != 0 && !abi.decode(returndata, (bool)) */\n      dup1\n      iszero\n      tag_95\n      jumpi\n      pop\n        /* \"@openzeppelin/contracts/token/ERC20/utils/SafeERC20.sol\":4589:4599  returndata */\n      dup1\n        /* \"@openzeppelin/contracts/token/ERC20/utils/SafeERC20.sol\":4578:4608  abi.decode(returndata, (bool)) */\n      dup1\n      0x20\n      add\n      swap1\n      mload\n      dup2\n      add\n      swap1\n      tag_96\n      swap2\n      swap1\n      tag_97\n      jump\t// in\n    tag_96:\n        /* \"@openzeppelin/contracts/token/ERC20/utils/SafeERC20.sol\":4577:4608  !abi.decode(returndata, (bool)) */\n      iszero\n        /* \"@openzeppelin/contracts/token/ERC20/utils/SafeERC20.sol\":4551:4608  returndata.length != 0 && !abi.decode(returndata, (bool)) */\n    tag_95:\n        /* \"@openzeppelin/contracts/token/ERC20/utils/SafeERC20.sol\":4547:4682  if (returndata.length != 0 && !abi.decode(returndata, (bool))) {... */\n      iszero\n      tag_98\n      jumpi\n        /* \"@openzeppelin/contracts/token/ERC20/utils/SafeERC20.sol\":4664:4669  token */\n      dup3\n        /* \"@openzeppelin/contracts/token/ERC20/utils/SafeERC20.sol\":4631:4671  SafeERC20FailedOperation(address(token)) */\n      mload(0x40)\n      0x5274afe700000000000000000000000000000000000000000000000000000000\n      dup2\n      mstore\n      0x04\n      add\n      tag_99\n      swap2\n      swap1\n      tag_51\n      jump\t// in\n    tag_99:\n      mload(0x40)\n      dup1\n      swap2\n      sub\n      swap1\n      revert\n        /* \"@openzeppelin/contracts/token/ERC20/utils/SafeERC20.sol\":4547:4682  if (returndata.length != 0 && !abi.decode(returndata, (bool))) {... */\n    tag_98:\n        /* \"@openzeppelin/contracts/token/ERC20/utils/SafeERC20.sol\":4129:4688  {... */\n      pop\n        /* \"@openzeppelin/contracts/token/ERC20/utils/SafeERC20.sol\":4059:4688  function _callOptionalReturn(IERC20 token, bytes memory data) private {... */\n      pop\n      pop\n      jump\t// out\n        /* \"@openzeppelin/contracts/utils/Address.sol\":2705:2856  function functionCall(address target, bytes memory data) internal returns (bytes memory) {... */\n    tag_94:\n        /* \"@openzeppelin/contracts/utils/Address.sol\":2780:2792  bytes memory */\n      0x60\n        /* \"@openzeppelin/contracts/utils/Address.sol\":2811:2849  functionCallWithValue(target, data, 0) */\n      tag_101\n        /* \"@openzeppelin/contracts/utils/Address.sol\":2833:2839  target */\n      dup4\n        /* \"@openzeppelin/contracts/utils/Address.sol\":2841:2845  data */\n      dup4\n        /* \"@openzeppelin/contracts/utils/Address.sol\":2847:2848  0 */\n      0x00\n        /* \"@openzeppelin/contracts/utils/Address.sol\":2811:2832  functionCallWithValue */\n      tag_102\n        /* \"@openzeppelin/contracts/utils/Address.sol\":2811:2849  functionCallWithValue(target, data, 0) */\n      jump\t// in\n    tag_101:\n        /* \"@openzeppelin/contracts/utils/Address.sol\":2804:2849  return functionCallWithValue(target, data, 0) */\n      swap1\n      pop\n        /* \"@openzeppelin/contracts/utils/Address.sol\":2705:2856  function functionCall(address target, bytes memory data) internal returns (bytes memory) {... */\n      swap3\n      swap2\n      pop\n      pop\n      jump\t// out\n        /* \"@openzeppelin/contracts/utils/Address.sol\":3180:3572  function functionCallWithValue(address target, bytes memory data, uint256 value) internal returns (bytes memory) {... */\n    tag_102:\n        /* \"@openzeppelin/contracts/utils/Address.sol\":3279:3291  bytes memory */\n      0x60\n        /* \"@openzeppelin/contracts/utils/Address.sol\":3331:3336  value */\n      dup2\n        /* \"@openzeppelin/contracts/utils/Address.sol\":3307:3328  address(this).balance */\n      selfbalance\n        /* \"@openzeppelin/contracts/utils/Address.sol\":3307:3336  address(this).balance < value */\n      lt\n        /* \"@openzeppelin/contracts/utils/Address.sol\":3303:3411  if (address(this).balance < value) {... */\n      iszero\n      tag_104\n      jumpi\n        /* \"@openzeppelin/contracts/utils/Address.sol\":3394:3398  this */\n      address\n        /* \"@openzeppelin/contracts/utils/Address.sol\":3359:3400  AddressInsufficientBalance(address(this)) */\n      mload(0x40)\n      0xcd78605900000000000000000000000000000000000000000000000000000000\n      dup2\n      mstore\n      0x04\n      add\n      tag_105\n      swap2\n      swap1\n      tag_51\n      jump\t// in\n    tag_105:\n      mload(0x40)\n      dup1\n      swap2\n      sub\n      swap1\n      revert\n        /* \"@openzeppelin/contracts/utils/Address.sol\":3303:3411  if (address(this).balance < value) {... */\n    tag_104:\n        /* \"@openzeppelin/contracts/utils/Address.sol\":3421:3433  bool success */\n      0x00\n        /* \"@openzeppelin/contracts/utils/Address.sol\":3435:3458  bytes memory returndata */\n      dup1\n        /* \"@openzeppelin/contracts/utils/Address.sol\":3462:3468  target */\n      dup6\n        /* \"@openzeppelin/contracts/utils/Address.sol\":3462:3473  target.call */\n      0xffffffffffffffffffffffffffffffffffffffff\n      and\n        /* \"@openzeppelin/contracts/utils/Address.sol\":3481:3486  value */\n      dup5\n        /* \"@openzeppelin/contracts/utils/Address.sol\":3488:3492  data */\n      dup7\n        /* \"@openzeppelin/contracts/utils/Address.sol\":3462:3493  target.call{value: value}(data) */\n      mload(0x40)\n      tag_106\n      swap2\n      swap1\n      tag_107\n      jump\t// in\n    tag_106:\n      0x00\n      mload(0x40)\n      dup1\n      dup4\n      sub\n      dup2\n      dup6\n      dup8\n      gas\n      call\n      swap3\n      pop\n      pop\n      pop\n      returndatasize\n      dup1\n      0x00\n      dup2\n      eq\n      tag_110\n      jumpi\n      mload(0x40)\n      swap2\n      pop\n      and(add(returndatasize, 0x3f), not(0x1f))\n      dup3\n      add\n      0x40\n      mstore\n      returndatasize\n      dup3\n      mstore\n      returndatasize\n      0x00\n      0x20\n      dup5\n      add\n      returndatacopy\n      jump(tag_109)\n    tag_110:\n      0x60\n      swap2\n      pop\n    tag_109:\n      pop\n        /* \"@openzeppelin/contracts/utils/Address.sol\":3420:3493  (bool success, bytes memory returndata) = target.call{value: value}(data) */\n      swap2\n      pop\n      swap2\n      pop\n        /* \"@openzeppelin/contracts/utils/Address.sol\":3510:3565  verifyCallResultFromTarget(target, success, returndata) */\n      tag_111\n        /* \"@openzeppelin/contracts/utils/Address.sol\":3537:3543  target */\n      dup7\n        /* \"@openzeppelin/contracts/utils/Address.sol\":3545:3552  success */\n      dup4\n        /* \"@openzeppelin/contracts/utils/Address.sol\":3554:3564  returndata */\n      dup4\n        /* \"@openzeppelin/contracts/utils/Address.sol\":3510:3536  verifyCallResultFromTarget */\n      tag_112\n        /* \"@openzeppelin/contracts/utils/Address.sol\":3510:3565  verifyCallResultFromTarget(target, success, returndata) */\n      jump\t// in\n    tag_111:\n        /* \"@openzeppelin/contracts/utils/Address.sol\":3503:3565  return verifyCallResultFromTarget(target, success, returndata) */\n      swap3\n      pop\n      pop\n      pop\n        /* \"@openzeppelin/contracts/utils/Address.sol\":3180:3572  function functionCallWithValue(address target, bytes memory data, uint256 value) internal returns (bytes memory) {... */\n      swap4\n      swap3\n      pop\n      pop\n      pop\n      jump\t// out\n        /* \"@openzeppelin/contracts/utils/Address.sol\":4625:5207  function verifyCallResultFromTarget(... */\n    tag_112:\n        /* \"@openzeppelin/contracts/utils/Address.sol\":4769:4781  bytes memory */\n      0x60\n        /* \"@openzeppelin/contracts/utils/Address.sol\":4798:4805  success */\n      dup3\n        /* \"@openzeppelin/contracts/utils/Address.sol\":4793:5201  if (!success) {... */\n      tag_114\n      jumpi\n        /* \"@openzeppelin/contracts/utils/Address.sol\":4821:4840  _revert(returndata) */\n      tag_115\n        /* \"@openzeppelin/contracts/utils/Address.sol\":4829:4839  returndata */\n      dup3\n        /* \"@openzeppelin/contracts/utils/Address.sol\":4821:4828  _revert */\n      tag_116\n        /* \"@openzeppelin/contracts/utils/Address.sol\":4821:4840  _revert(returndata) */\n      jump\t// in\n    tag_115:\n        /* \"@openzeppelin/contracts/utils/Address.sol\":4793:5201  if (!success) {... */\n      jump(tag_117)\n    tag_114:\n        /* \"@openzeppelin/contracts/utils/Address.sol\":5066:5067  0 */\n      0x00\n        /* \"@openzeppelin/contracts/utils/Address.sol\":5045:5055  returndata */\n      dup3\n        /* \"@openzeppelin/contracts/utils/Address.sol\":5045:5062  returndata.length */\n      mload\n        /* \"@openzeppelin/contracts/utils/Address.sol\":5045:5067  returndata.length == 0 */\n      eq\n        /* \"@openzeppelin/contracts/utils/Address.sol\":5045:5094  returndata.length == 0 && target.code.length == 0 */\n      dup1\n      iszero\n      tag_118\n      jumpi\n      pop\n        /* \"@openzeppelin/contracts/utils/Address.sol\":5093:5094  0 */\n      0x00\n        /* \"@openzeppelin/contracts/utils/Address.sol\":5071:5077  target */\n      dup5\n        /* \"@openzeppelin/contracts/utils/Address.sol\":5071:5089  target.code.length */\n      0xffffffffffffffffffffffffffffffffffffffff\n      and\n      extcodesize\n        /* \"@openzeppelin/contracts/utils/Address.sol\":5071:5094  target.code.length == 0 */\n      eq\n        /* \"@openzeppelin/contracts/utils/Address.sol\":5045:5094  returndata.length == 0 && target.code.length == 0 */\n    tag_118:\n        /* \"@openzeppelin/contracts/utils/Address.sol\":5041:5160  if (returndata.length == 0 && target.code.length == 0) {... */\n      iszero\n      tag_119\n      jumpi\n        /* \"@openzeppelin/contracts/utils/Address.sol\":5138:5144  target */\n      dup4\n        /* \"@openzeppelin/contracts/utils/Address.sol\":5121:5145  AddressEmptyCode(target) */\n      mload(0x40)\n      0x9996b31500000000000000000000000000000000000000000000000000000000\n      dup2\n      mstore\n      0x04\n      add\n      tag_120\n      swap2\n      swap1\n      tag_51\n      jump\t// in\n    tag_120:\n      mload(0x40)\n      dup1\n      swap2\n      sub\n      swap1\n      revert\n        /* \"@openzeppelin/contracts/utils/Address.sol\":5041:5160  if (returndata.length == 0 && target.code.length == 0) {... */\n    tag_119:\n        /* \"@openzeppelin/contracts/utils/Address.sol\":5180:5190  returndata */\n      dup2\n        /* \"@openzeppelin/contracts/utils/Address.sol\":5173:5190  return returndata */\n      swap1\n      pop\n      jump(tag_113)\n        /* \"@openzeppelin/contracts/utils/Address.sol\":4793:5201  if (!success) {... */\n    tag_117:\n        /* \"@openzeppelin/contracts/utils/Address.sol\":4625:5207  function verifyCallResultFromTarget(... */\n    tag_113:\n      swap4\n      swap3\n      pop\n      pop\n      pop\n      jump\t// out\n        /* \"@openzeppelin/contracts/utils/Address.sol\":5743:6259  function _revert(bytes memory returndata) private pure {... */\n    tag_116:\n        /* \"@openzeppelin/contracts/utils/Address.sol\":5894:5895  0 */\n      0x00\n        /* \"@openzeppelin/contracts/utils/Address.sol\":5874:5884  returndata */\n      dup2\n        /* \"@openzeppelin/contracts/utils/Address.sol\":5874:5891  returndata.length */\n      mload\n        /* \"@openzeppelin/contracts/utils/Address.sol\":5874:5895  returndata.length > 0 */\n      gt\n        /* \"@openzeppelin/contracts/utils/Address.sol\":5870:6253  if (returndata.length > 0) {... */\n      iszero\n      tag_122\n      jumpi\n        /* \"@openzeppelin/contracts/utils/Address.sol\":6102:6112  returndata */\n      dup1\n        /* \"@openzeppelin/contracts/utils/Address.sol\":6096:6113  mload(returndata) */\n      mload\n        /* \"@openzeppelin/contracts/utils/Address.sol\":6158:6173  returndata_size */\n      dup1\n        /* \"@openzeppelin/contracts/utils/Address.sol\":6145:6155  returndata */\n      dup3\n        /* \"@openzeppelin/contracts/utils/Address.sol\":6141:6143  32 */\n      0x20\n        /* \"@openzeppelin/contracts/utils/Address.sol\":6137:6156  add(32, returndata) */\n      add\n        /* \"@openzeppelin/contracts/utils/Address.sol\":6130:6174  revert(add(32, returndata), returndata_size) */\n      revert\n        /* \"@openzeppelin/contracts/utils/Address.sol\":5870:6253  if (returndata.length > 0) {... */\n    tag_122:\n        /* \"@openzeppelin/contracts/utils/Address.sol\":6225:6242  FailedInnerCall() */\n      mload(0x40)\n      0x1425ea4200000000000000000000000000000000000000000000000000000000\n      dup2\n      mstore\n      0x04\n      add\n      mload(0x40)\n      dup1\n      swap2\n      sub\n      swap1\n      revert\n        /* \"#utility.yul\":88:205   */\n    tag_125:\n        /* \"#utility.yul\":197:198   */\n      0x00\n        /* \"#utility.yul\":194:195   */\n      dup1\n        /* \"#utility.yul\":187:199   */\n      revert\n        /* \"#utility.yul\":334:420   */\n    tag_127:\n        /* \"#utility.yul\":369:376   */\n      0x00\n        /* \"#utility.yul\":409:413   */\n      0xff\n        /* \"#utility.yul\":402:407   */\n      dup3\n        /* \"#utility.yul\":398:414   */\n      and\n        /* \"#utility.yul\":387:414   */\n      swap1\n      pop\n        /* \"#utility.yul\":334:420   */\n      swap2\n      swap1\n      pop\n      jump\t// out\n        /* \"#utility.yul\":426:544   */\n    tag_128:\n        /* \"#utility.yul\":497:519   */\n      tag_173\n        /* \"#utility.yul\":513:518   */\n      dup2\n        /* \"#utility.yul\":497:519   */\n      tag_127\n      jump\t// in\n    tag_173:\n        /* \"#utility.yul\":490:495   */\n      dup2\n        /* \"#utility.yul\":487:520   */\n      eq\n        /* \"#utility.yul\":477:538   */\n      tag_174\n      jumpi\n        /* \"#utility.yul\":534:535   */\n      0x00\n        /* \"#utility.yul\":531:532   */\n      dup1\n        /* \"#utility.yul\":524:536   */\n      revert\n        /* \"#utility.yul\":477:538   */\n    tag_174:\n        /* \"#utility.yul\":426:544   */\n      pop\n      jump\t// out\n        /* \"#utility.yul\":550:685   */\n    tag_129:\n        /* \"#utility.yul\":594:599   */\n      0x00\n        /* \"#utility.yul\":632:638   */\n      dup2\n        /* \"#utility.yul\":619:639   */\n      calldataload\n        /* \"#utility.yul\":610:639   */\n      swap1\n      pop\n        /* \"#utility.yul\":648:679   */\n      tag_176\n        /* \"#utility.yul\":673:678   */\n      dup2\n        /* \"#utility.yul\":648:679   */\n      tag_128\n      jump\t// in\n    tag_176:\n        /* \"#utility.yul\":550:685   */\n      swap3\n      swap2\n      pop\n      pop\n      jump\t// out\n        /* \"#utility.yul\":691:1016   */\n    tag_10:\n        /* \"#utility.yul\":748:754   */\n      0x00\n        /* \"#utility.yul\":797:799   */\n      0x20\n        /* \"#utility.yul\":785:794   */\n      dup3\n        /* \"#utility.yul\":776:783   */\n      dup5\n        /* \"#utility.yul\":772:795   */\n      sub\n        /* \"#utility.yul\":768:800   */\n      slt\n        /* \"#utility.yul\":765:884   */\n      iszero\n      tag_178\n      jumpi\n        /* \"#utility.yul\":803:882   */\n      tag_179\n      tag_125\n      jump\t// in\n    tag_179:\n        /* \"#utility.yul\":765:884   */\n    tag_178:\n        /* \"#utility.yul\":923:924   */\n      0x00\n        /* \"#utility.yul\":948:999   */\n      tag_180\n        /* \"#utility.yul\":991:998   */\n      dup5\n        /* \"#utility.yul\":982:988   */\n      dup3\n        /* \"#utility.yul\":971:980   */\n      dup6\n        /* \"#utility.yul\":967:989   */\n      add\n        /* \"#utility.yul\":948:999   */\n      tag_129\n      jump\t// in\n    tag_180:\n        /* \"#utility.yul\":938:999   */\n      swap2\n      pop\n        /* \"#utility.yul\":894:1009   */\n      pop\n        /* \"#utility.yul\":691:1016   */\n      swap3\n      swap2\n      pop\n      pop\n      jump\t// out\n        /* \"#utility.yul\":1022:1148   */\n    tag_130:\n        /* \"#utility.yul\":1059:1066   */\n      0x00\n        /* \"#utility.yul\":1099:1141   */\n      0xffffffffffffffffffffffffffffffffffffffff\n        /* \"#utility.yul\":1092:1097   */\n      dup3\n        /* \"#utility.yul\":1088:1142   */\n      and\n        /* \"#utility.yul\":1077:1142   */\n      swap1\n      pop\n        /* \"#utility.yul\":1022:1148   */\n      swap2\n      swap1\n      pop\n      jump\t// out\n        /* \"#utility.yul\":1154:1250   */\n    tag_131:\n        /* \"#utility.yul\":1191:1198   */\n      0x00\n        /* \"#utility.yul\":1220:1244   */\n      tag_183\n        /* \"#utility.yul\":1238:1243   */\n      dup3\n        /* \"#utility.yul\":1220:1244   */\n      tag_130\n      jump\t// in\n    tag_183:\n        /* \"#utility.yul\":1209:1244   */\n      swap1\n      pop\n        /* \"#utility.yul\":1154:1250   */\n      swap2\n      swap1\n      pop\n      jump\t// out\n        /* \"#utility.yul\":1256:1378   */\n    tag_132:\n        /* \"#utility.yul\":1329:1353   */\n      tag_185\n        /* \"#utility.yul\":1347:1352   */\n      dup2\n        /* \"#utility.yul\":1329:1353   */\n      tag_131\n      jump\t// in\n    tag_185:\n        /* \"#utility.yul\":1322:1327   */\n      dup2\n        /* \"#utility.yul\":1319:1354   */\n      eq\n        /* \"#utility.yul\":1309:1372   */\n      tag_186\n      jumpi\n        /* \"#utility.yul\":1368:1369   */\n      0x00\n        /* \"#utility.yul\":1365:1366   */\n      dup1\n        /* \"#utility.yul\":1358:1370   */\n      revert\n        /* \"#utility.yul\":1309:1372   */\n    tag_186:\n        /* \"#utility.yul\":1256:1378   */\n      pop\n      jump\t// out\n        /* \"#utility.yul\":1384:1523   */\n    tag_133:\n        /* \"#utility.yul\":1430:1435   */\n      0x00\n        /* \"#utility.yul\":1468:1474   */\n      dup2\n        /* \"#utility.yul\":1455:1475   */\n      calldataload\n        /* \"#utility.yul\":1446:1475   */\n      swap1\n      pop\n        /* \"#utility.yul\":1484:1517   */\n      tag_188\n        /* \"#utility.yul\":1511:1516   */\n      dup2\n        /* \"#utility.yul\":1484:1517   */\n      tag_132\n      jump\t// in\n    tag_188:\n        /* \"#utility.yul\":1384:1523   */\n      swap3\n      swap2\n      pop\n      pop\n      jump\t// out\n        /* \"#utility.yul\":1529:1858   */\n    tag_16:\n        /* \"#utility.yul\":1588:1594   */\n      0x00\n        /* \"#utility.yul\":1637:1639   */\n      0x20\n        /* \"#utility.yul\":1625:1634   */\n      dup3\n        /* \"#utility.yul\":1616:1623   */\n      dup5\n        /* \"#utility.yul\":1612:1635   */\n      sub\n        /* \"#utility.yul\":1608:1640   */\n      slt\n        /* \"#utility.yul\":1605:1724   */\n      iszero\n      tag_190\n      jumpi\n        /* \"#utility.yul\":1643:1722   */\n      tag_191\n      tag_125\n      jump\t// in\n    tag_191:\n        /* \"#utility.yul\":1605:1724   */\n    tag_190:\n        /* \"#utility.yul\":1763:1764   */\n      0x00\n        /* \"#utility.yul\":1788:1841   */\n      tag_192\n        /* \"#utility.yul\":1833:1840   */\n      dup5\n        /* \"#utility.yul\":1824:1830   */\n      dup3\n        /* \"#utility.yul\":1813:1822   */\n      dup6\n        /* \"#utility.yul\":1809:1831   */\n      add\n        /* \"#utility.yul\":1788:1841   */\n      tag_133\n      jump\t// in\n    tag_192:\n        /* \"#utility.yul\":1778:1841   */\n      swap2\n      pop\n        /* \"#utility.yul\":1734:1851   */\n      pop\n        /* \"#utility.yul\":1529:1858   */\n      swap3\n      swap2\n      pop\n      pop\n      jump\t// out\n        /* \"#utility.yul\":1864:1941   */\n    tag_134:\n        /* \"#utility.yul\":1901:1908   */\n      0x00\n        /* \"#utility.yul\":1930:1935   */\n      dup2\n        /* \"#utility.yul\":1919:1935   */\n      swap1\n      pop\n        /* \"#utility.yul\":1864:1941   */\n      swap2\n      swap1\n      pop\n      jump\t// out\n        /* \"#utility.yul\":1947:2065   */\n    tag_135:\n        /* \"#utility.yul\":2034:2058   */\n      tag_195\n        /* \"#utility.yul\":2052:2057   */\n      dup2\n        /* \"#utility.yul\":2034:2058   */\n      tag_134\n      jump\t// in\n    tag_195:\n        /* \"#utility.yul\":2029:2032   */\n      dup3\n        /* \"#utility.yul\":2022:2059   */\n      mstore\n        /* \"#utility.yul\":1947:2065   */\n      pop\n      pop\n      jump\t// out\n        /* \"#utility.yul\":2071:2513   */\n    tag_19:\n        /* \"#utility.yul\":2220:2224   */\n      0x00\n        /* \"#utility.yul\":2258:2260   */\n      0x60\n        /* \"#utility.yul\":2247:2256   */\n      dup3\n        /* \"#utility.yul\":2243:2261   */\n      add\n        /* \"#utility.yul\":2235:2261   */\n      swap1\n      pop\n        /* \"#utility.yul\":2271:2342   */\n      tag_197\n        /* \"#utility.yul\":2339:2340   */\n      0x00\n        /* \"#utility.yul\":2328:2337   */\n      dup4\n        /* \"#utility.yul\":2324:2341   */\n      add\n        /* \"#utility.yul\":2315:2321   */\n      dup7\n        /* \"#utility.yul\":2271:2342   */\n      tag_135\n      jump\t// in\n    tag_197:\n        /* \"#utility.yul\":2352:2424   */\n      tag_198\n        /* \"#utility.yul\":2420:2422   */\n      0x20\n        /* \"#utility.yul\":2409:2418   */\n      dup4\n        /* \"#utility.yul\":2405:2423   */\n      add\n        /* \"#utility.yul\":2396:2402   */\n      dup6\n        /* \"#utility.yul\":2352:2424   */\n      tag_135\n      jump\t// in\n    tag_198:\n        /* \"#utility.yul\":2434:2506   */\n      tag_199\n        /* \"#utility.yul\":2502:2504   */\n      0x40\n        /* \"#utility.yul\":2491:2500   */\n      dup4\n        /* \"#utility.yul\":2487:2505   */\n      add\n        /* \"#utility.yul\":2478:2484   */\n      dup5\n        /* \"#utility.yul\":2434:2506   */\n      tag_135\n      jump\t// in\n    tag_199:\n        /* \"#utility.yul\":2071:2513   */\n      swap5\n      swap4\n      pop\n      pop\n      pop\n      pop\n      jump\t// out\n        /* \"#utility.yul\":2519:2641   */\n    tag_136:\n        /* \"#utility.yul\":2592:2616   */\n      tag_201\n        /* \"#utility.yul\":2610:2615   */\n      dup2\n        /* \"#utility.yul\":2592:2616   */\n      tag_134\n      jump\t// in\n    tag_201:\n        /* \"#utility.yul\":2585:2590   */\n      dup2\n        /* \"#utility.yul\":2582:2617   */\n      eq\n        /* \"#utility.yul\":2572:2635   */\n      tag_202\n      jumpi\n        /* \"#utility.yul\":2631:2632   */\n      0x00\n        /* \"#utility.yul\":2628:2629   */\n      dup1\n        /* \"#utility.yul\":2621:2633   */\n      revert\n        /* \"#utility.yul\":2572:2635   */\n    tag_202:\n        /* \"#utility.yul\":2519:2641   */\n      pop\n      jump\t// out\n        /* \"#utility.yul\":2647:2786   */\n    tag_137:\n        /* \"#utility.yul\":2693:2698   */\n      0x00\n        /* \"#utility.yul\":2731:2737   */\n      dup2\n        /* \"#utility.yul\":2718:2738   */\n      calldataload\n        /* \"#utility.yul\":2709:2738   */\n      swap1\n      pop\n        /* \"#utility.yul\":2747:2780   */\n      tag_204\n        /* \"#utility.yul\":2774:2779   */\n      dup2\n        /* \"#utility.yul\":2747:2780   */\n      tag_136\n      jump\t// in\n    tag_204:\n        /* \"#utility.yul\":2647:2786   */\n      swap3\n      swap2\n      pop\n      pop\n      jump\t// out\n        /* \"#utility.yul\":2792:3121   */\n    tag_22:\n        /* \"#utility.yul\":2851:2857   */\n      0x00\n        /* \"#utility.yul\":2900:2902   */\n      0x20\n        /* \"#utility.yul\":2888:2897   */\n      dup3\n        /* \"#utility.yul\":2879:2886   */\n      dup5\n        /* \"#utility.yul\":2875:2898   */\n      sub\n        /* \"#utility.yul\":2871:2903   */\n      slt\n        /* \"#utility.yul\":2868:2987   */\n      iszero\n      tag_206\n      jumpi\n        /* \"#utility.yul\":2906:2985   */\n      tag_207\n      tag_125\n      jump\t// in\n    tag_207:\n        /* \"#utility.yul\":2868:2987   */\n    tag_206:\n        /* \"#utility.yul\":3026:3027   */\n      0x00\n        /* \"#utility.yul\":3051:3104   */\n      tag_208\n        /* \"#utility.yul\":3096:3103   */\n      dup5\n        /* \"#utility.yul\":3087:3093   */\n      dup3\n        /* \"#utility.yul\":3076:3085   */\n      dup6\n        /* \"#utility.yul\":3072:3094   */\n      add\n        /* \"#utility.yul\":3051:3104   */\n      tag_137\n      jump\t// in\n    tag_208:\n        /* \"#utility.yul\":3041:3104   */\n      swap2\n      pop\n        /* \"#utility.yul\":2997:3114   */\n      pop\n        /* \"#utility.yul\":2792:3121   */\n      swap3\n      swap2\n      pop\n      pop\n      jump\t// out\n        /* \"#utility.yul\":3127:3187   */\n    tag_138:\n        /* \"#utility.yul\":3155:3158   */\n      0x00\n        /* \"#utility.yul\":3176:3181   */\n      dup2\n        /* \"#utility.yul\":3169:3181   */\n      swap1\n      pop\n        /* \"#utility.yul\":3127:3187   */\n      swap2\n      swap1\n      pop\n      jump\t// out\n        /* \"#utility.yul\":3193:3335   */\n    tag_139:\n        /* \"#utility.yul\":3243:3252   */\n      0x00\n        /* \"#utility.yul\":3276:3329   */\n      tag_211\n        /* \"#utility.yul\":3294:3328   */\n      tag_212\n        /* \"#utility.yul\":3303:3327   */\n      tag_213\n        /* \"#utility.yul\":3321:3326   */\n      dup5\n        /* \"#utility.yul\":3303:3327   */\n      tag_130\n      jump\t// in\n    tag_213:\n        /* \"#utility.yul\":3294:3328   */\n      tag_138\n      jump\t// in\n    tag_212:\n        /* \"#utility.yul\":3276:3329   */\n      tag_130\n      jump\t// in\n    tag_211:\n        /* \"#utility.yul\":3263:3329   */\n      swap1\n      pop\n        /* \"#utility.yul\":3193:3335   */\n      swap2\n      swap1\n      pop\n      jump\t// out\n        /* \"#utility.yul\":3341:3467   */\n    tag_140:\n        /* \"#utility.yul\":3391:3400   */\n      0x00\n        /* \"#utility.yul\":3424:3461   */\n      tag_215\n        /* \"#utility.yul\":3455:3460   */\n      dup3\n        /* \"#utility.yul\":3424:3461   */\n      tag_139\n      jump\t// in\n    tag_215:\n        /* \"#utility.yul\":3411:3461   */\n      swap1\n      pop\n        /* \"#utility.yul\":3341:3467   */\n      swap2\n      swap1\n      pop\n      jump\t// out\n        /* \"#utility.yul\":3473:3612   */\n    tag_141:\n        /* \"#utility.yul\":3536:3545   */\n      0x00\n        /* \"#utility.yul\":3569:3606   */\n      tag_217\n        /* \"#utility.yul\":3600:3605   */\n      dup3\n        /* \"#utility.yul\":3569:3606   */\n      tag_140\n      jump\t// in\n    tag_217:\n        /* \"#utility.yul\":3556:3606   */\n      swap1\n      pop\n        /* \"#utility.yul\":3473:3612   */\n      swap2\n      swap1\n      pop\n      jump\t// out\n        /* \"#utility.yul\":3618:3775   */\n    tag_142:\n        /* \"#utility.yul\":3718:3768   */\n      tag_219\n        /* \"#utility.yul\":3762:3767   */\n      dup2\n        /* \"#utility.yul\":3718:3768   */\n      tag_141\n      jump\t// in\n    tag_219:\n        /* \"#utility.yul\":3713:3716   */\n      dup3\n        /* \"#utility.yul\":3706:3769   */\n      mstore\n        /* \"#utility.yul\":3618:3775   */\n      pop\n      pop\n      jump\t// out\n        /* \"#utility.yul\":3781:4029   */\n    tag_27:\n        /* \"#utility.yul\":3887:3891   */\n      0x00\n        /* \"#utility.yul\":3925:3927   */\n      0x20\n        /* \"#utility.yul\":3914:3923   */\n      dup3\n        /* \"#utility.yul\":3910:3928   */\n      add\n        /* \"#utility.yul\":3902:3928   */\n      swap1\n      pop\n        /* \"#utility.yul\":3938:4022   */\n      tag_221\n        /* \"#utility.yul\":4019:4020   */\n      0x00\n        /* \"#utility.yul\":4008:4017   */\n      dup4\n        /* \"#utility.yul\":4004:4021   */\n      add\n        /* \"#utility.yul\":3995:4001   */\n      dup5\n        /* \"#utility.yul\":3938:4022   */\n      tag_142\n      jump\t// in\n    tag_221:\n        /* \"#utility.yul\":3781:4029   */\n      swap3\n      swap2\n      pop\n      pop\n      jump\t// out\n        /* \"#utility.yul\":4035:4204   */\n    tag_143:\n        /* \"#utility.yul\":4119:4130   */\n      0x00\n        /* \"#utility.yul\":4153:4159   */\n      dup3\n        /* \"#utility.yul\":4148:4151   */\n      dup3\n        /* \"#utility.yul\":4141:4160   */\n      mstore\n        /* \"#utility.yul\":4193:4197   */\n      0x20\n        /* \"#utility.yul\":4188:4191   */\n      dup3\n        /* \"#utility.yul\":4184:4198   */\n      add\n        /* \"#utility.yul\":4169:4198   */\n      swap1\n      pop\n        /* \"#utility.yul\":4035:4204   */\n      swap3\n      swap2\n      pop\n      pop\n      jump\t// out\n        /* \"#utility.yul\":4210:4380   */\n    tag_144:\n        /* \"#utility.yul\":4350:4372   */\n      0x796f75277265206e6f7420746865206f776e6572000000000000000000000000\n        /* \"#utility.yul\":4346:4347   */\n      0x00\n        /* \"#utility.yul\":4338:4344   */\n      dup3\n        /* \"#utility.yul\":4334:4348   */\n      add\n        /* \"#utility.yul\":4327:4373   */\n      mstore\n        /* \"#utility.yul\":4210:4380   */\n      pop\n      jump\t// out\n        /* \"#utility.yul\":4386:4752   */\n    tag_145:\n        /* \"#utility.yul\":4528:4531   */\n      0x00\n        /* \"#utility.yul\":4549:4616   */\n      tag_225\n        /* \"#utility.yul\":4613:4615   */\n      0x14\n        /* \"#utility.yul\":4608:4611   */\n      dup4\n        /* \"#utility.yul\":4549:4616   */\n      tag_143\n      jump\t// in\n    tag_225:\n        /* \"#utility.yul\":4542:4616   */\n      swap2\n      pop\n        /* \"#utility.yul\":4625:4718   */\n      tag_226\n        /* \"#utility.yul\":4714:4717   */\n      dup3\n        /* \"#utility.yul\":4625:4718   */\n      tag_144\n      jump\t// in\n    tag_226:\n        /* \"#utility.yul\":4743:4745   */\n      0x20\n        /* \"#utility.yul\":4738:4741   */\n      dup3\n        /* \"#utility.yul\":4734:4746   */\n      add\n        /* \"#utility.yul\":4727:4746   */\n      swap1\n      pop\n        /* \"#utility.yul\":4386:4752   */\n      swap2\n      swap1\n      pop\n      jump\t// out\n        /* \"#utility.yul\":4758:5177   */\n    tag_31:\n        /* \"#utility.yul\":4924:4928   */\n      0x00\n        /* \"#utility.yul\":4962:4964   */\n      0x20\n        /* \"#utility.yul\":4951:4960   */\n      dup3\n        /* \"#utility.yul\":4947:4965   */\n      add\n        /* \"#utility.yul\":4939:4965   */\n      swap1\n      pop\n        /* \"#utility.yul\":5011:5020   */\n      dup2\n        /* \"#utility.yul\":5005:5009   */\n      dup2\n        /* \"#utility.yul\":5001:5021   */\n      sub\n        /* \"#utility.yul\":4997:4998   */\n      0x00\n        /* \"#utility.yul\":4986:4995   */\n      dup4\n        /* \"#utility.yul\":4982:4999   */\n      add\n        /* \"#utility.yul\":4975:5022   */\n      mstore\n        /* \"#utility.yul\":5039:5170   */\n      tag_228\n        /* \"#utility.yul\":5165:5169   */\n      dup2\n        /* \"#utility.yul\":5039:5170   */\n      tag_145\n      jump\t// in\n    tag_228:\n        /* \"#utility.yul\":5031:5170   */\n      swap1\n      pop\n        /* \"#utility.yul\":4758:5177   */\n      swap2\n      swap1\n      pop\n      jump\t// out\n        /* \"#utility.yul\":5183:5349   */\n    tag_146:\n        /* \"#utility.yul\":5323:5341   */\n      0x4e6f20546f6b656e73205374616b656400000000000000000000000000000000\n        /* \"#utility.yul\":5319:5320   */\n      0x00\n        /* \"#utility.yul\":5311:5317   */\n      dup3\n        /* \"#utility.yul\":5307:5321   */\n      add\n        /* \"#utility.yul\":5300:5342   */\n      mstore\n        /* \"#utility.yul\":5183:5349   */\n      pop\n      jump\t// out\n        /* \"#utility.yul\":5355:5721   */\n    tag_147:\n        /* \"#utility.yul\":5497:5500   */\n      0x00\n        /* \"#utility.yul\":5518:5585   */\n      tag_231\n        /* \"#utility.yul\":5582:5584   */\n      0x10\n        /* \"#utility.yul\":5577:5580   */\n      dup4\n        /* \"#utility.yul\":5518:5585   */\n      tag_143\n      jump\t// in\n    tag_231:\n        /* \"#utility.yul\":5511:5585   */\n      swap2\n      pop\n        /* \"#utility.yul\":5594:5687   */\n      tag_232\n        /* \"#utility.yul\":5683:5686   */\n      dup3\n        /* \"#utility.yul\":5594:5687   */\n      tag_146\n      jump\t// in\n    tag_232:\n        /* \"#utility.yul\":5712:5714   */\n      0x20\n        /* \"#utility.yul\":5707:5710   */\n      dup3\n        /* \"#utility.yul\":5703:5715   */\n      add\n        /* \"#utility.yul\":5696:5715   */\n      swap1\n      pop\n        /* \"#utility.yul\":5355:5721   */\n      swap2\n      swap1\n      pop\n      jump\t// out\n        /* \"#utility.yul\":5727:6146   */\n    tag_35:\n        /* \"#utility.yul\":5893:5897   */\n      0x00\n        /* \"#utility.yul\":5931:5933   */\n      0x20\n        /* \"#utility.yul\":5920:5929   */\n      dup3\n        /* \"#utility.yul\":5916:5934   */\n      add\n        /* \"#utility.yul\":5908:5934   */\n      swap1\n      pop\n        /* \"#utility.yul\":5980:5989   */\n      dup2\n        /* \"#utility.yul\":5974:5978   */\n      dup2\n        /* \"#utility.yul\":5970:5990   */\n      sub\n        /* \"#utility.yul\":5966:5967   */\n      0x00\n        /* \"#utility.yul\":5955:5964   */\n      dup4\n        /* \"#utility.yul\":5951:5968   */\n      add\n        /* \"#utility.yul\":5944:5991   */\n      mstore\n        /* \"#utility.yul\":6008:6139   */\n      tag_234\n        /* \"#utility.yul\":6134:6138   */\n      dup2\n        /* \"#utility.yul\":6008:6139   */\n      tag_147\n      jump\t// in\n    tag_234:\n        /* \"#utility.yul\":6000:6139   */\n      swap1\n      pop\n        /* \"#utility.yul\":5727:6146   */\n      swap2\n      swap1\n      pop\n      jump\t// out\n        /* \"#utility.yul\":6152:6334   */\n    tag_148:\n        /* \"#utility.yul\":6292:6326   */\n      0x596f752063616e2774207769746864726177206265666f7265203120686f7572\n        /* \"#utility.yul\":6288:6289   */\n      0x00\n        /* \"#utility.yul\":6280:6286   */\n      dup3\n        /* \"#utility.yul\":6276:6290   */\n      add\n        /* \"#utility.yul\":6269:6327   */\n      mstore\n        /* \"#utility.yul\":6152:6334   */\n      pop\n      jump\t// out\n        /* \"#utility.yul\":6340:6706   */\n    tag_149:\n        /* \"#utility.yul\":6482:6485   */\n      0x00\n        /* \"#utility.yul\":6503:6570   */\n      tag_237\n        /* \"#utility.yul\":6567:6569   */\n      0x20\n        /* \"#utility.yul\":6562:6565   */\n      dup4\n        /* \"#utility.yul\":6503:6570   */\n      tag_143\n      jump\t// in\n    tag_237:\n        /* \"#utility.yul\":6496:6570   */\n      swap2\n      pop\n        /* \"#utility.yul\":6579:6672   */\n      tag_238\n        /* \"#utility.yul\":6668:6671   */\n      dup3\n        /* \"#utility.yul\":6579:6672   */\n      tag_148\n      jump\t// in\n    tag_238:\n        /* \"#utility.yul\":6697:6699   */\n      0x20\n        /* \"#utility.yul\":6692:6695   */\n      dup3\n        /* \"#utility.yul\":6688:6700   */\n      add\n        /* \"#utility.yul\":6681:6700   */\n      swap1\n      pop\n        /* \"#utility.yul\":6340:6706   */\n      swap2\n      swap1\n      pop\n      jump\t// out\n        /* \"#utility.yul\":6712:7131   */\n    tag_38:\n        /* \"#utility.yul\":6878:6882   */\n      0x00\n        /* \"#utility.yul\":6916:6918   */\n      0x20\n        /* \"#utility.yul\":6905:6914   */\n      dup3\n        /* \"#utility.yul\":6901:6919   */\n      add\n        /* \"#utility.yul\":6893:6919   */\n      swap1\n      pop\n        /* \"#utility.yul\":6965:6974   */\n      dup2\n        /* \"#utility.yul\":6959:6963   */\n      dup2\n        /* \"#utility.yul\":6955:6975   */\n      sub\n        /* \"#utility.yul\":6951:6952   */\n      0x00\n        /* \"#utility.yul\":6940:6949   */\n      dup4\n        /* \"#utility.yul\":6936:6953   */\n      add\n        /* \"#utility.yul\":6929:6976   */\n      mstore\n        /* \"#utility.yul\":6993:7124   */\n      tag_240\n        /* \"#utility.yul\":7119:7123   */\n      dup2\n        /* \"#utility.yul\":6993:7124   */\n      tag_149\n      jump\t// in\n    tag_240:\n        /* \"#utility.yul\":6985:7124   */\n      swap1\n      pop\n        /* \"#utility.yul\":6712:7131   */\n      swap2\n      swap1\n      pop\n      jump\t// out\n        /* \"#utility.yul\":7137:7317   */\n    tag_150:\n        /* \"#utility.yul\":7185:7262   */\n      0x4e487b7100000000000000000000000000000000000000000000000000000000\n        /* \"#utility.yul\":7182:7183   */\n      0x00\n        /* \"#utility.yul\":7175:7263   */\n      mstore\n        /* \"#utility.yul\":7282:7286   */\n      0x11\n        /* \"#utility.yul\":7279:7280   */\n      0x04\n        /* \"#utility.yul\":7272:7287   */\n      mstore\n        /* \"#utility.yul\":7306:7310   */\n      0x24\n        /* \"#utility.yul\":7303:7304   */\n      0x00\n        /* \"#utility.yul\":7296:7311   */\n      revert\n        /* \"#utility.yul\":7323:7517   */\n    tag_40:\n        /* \"#utility.yul\":7363:7367   */\n      0x00\n        /* \"#utility.yul\":7383:7403   */\n      tag_243\n        /* \"#utility.yul\":7401:7402   */\n      dup3\n        /* \"#utility.yul\":7383:7403   */\n      tag_134\n      jump\t// in\n    tag_243:\n        /* \"#utility.yul\":7378:7403   */\n      swap2\n      pop\n        /* \"#utility.yul\":7417:7437   */\n      tag_244\n        /* \"#utility.yul\":7435:7436   */\n      dup4\n        /* \"#utility.yul\":7417:7437   */\n      tag_134\n      jump\t// in\n    tag_244:\n        /* \"#utility.yul\":7412:7437   */\n      swap3\n      pop\n        /* \"#utility.yul\":7461:7462   */\n      dup3\n        /* \"#utility.yul\":7458:7459   */\n      dup3\n        /* \"#utility.yul\":7454:7463   */\n      sub\n        /* \"#utility.yul\":7446:7463   */\n      swap1\n      pop\n        /* \"#utility.yul\":7485:7486   */\n      dup2\n        /* \"#utility.yul\":7479:7483   */\n      dup2\n        /* \"#utility.yul\":7476:7487   */\n      gt\n        /* \"#utility.yul\":7473:7510   */\n      iszero\n      tag_245\n      jumpi\n        /* \"#utility.yul\":7490:7508   */\n      tag_246\n      tag_150\n      jump\t// in\n    tag_246:\n        /* \"#utility.yul\":7473:7510   */\n    tag_245:\n        /* \"#utility.yul\":7323:7517   */\n      swap3\n      swap2\n      pop\n      pop\n      jump\t// out\n        /* \"#utility.yul\":7523:7714   */\n    tag_42:\n        /* \"#utility.yul\":7563:7566   */\n      0x00\n        /* \"#utility.yul\":7582:7602   */\n      tag_248\n        /* \"#utility.yul\":7600:7601   */\n      dup3\n        /* \"#utility.yul\":7582:7602   */\n      tag_134\n      jump\t// in\n    tag_248:\n        /* \"#utility.yul\":7577:7602   */\n      swap2\n      pop\n        /* \"#utility.yul\":7616:7636   */\n      tag_249\n        /* \"#utility.yul\":7634:7635   */\n      dup4\n        /* \"#utility.yul\":7616:7636   */\n      tag_134\n      jump\t// in\n    tag_249:\n        /* \"#utility.yul\":7611:7636   */\n      swap3\n      pop\n        /* \"#utility.yul\":7659:7660   */\n      dup3\n        /* \"#utility.yul\":7656:7657   */\n      dup3\n        /* \"#utility.yul\":7652:7661   */\n      add\n        /* \"#utility.yul\":7645:7661   */\n      swap1\n      pop\n        /* \"#utility.yul\":7680:7683   */\n      dup1\n        /* \"#utility.yul\":7677:7678   */\n      dup3\n        /* \"#utility.yul\":7674:7684   */\n      gt\n        /* \"#utility.yul\":7671:7707   */\n      iszero\n      tag_250\n      jumpi\n        /* \"#utility.yul\":7687:7705   */\n      tag_251\n      tag_150\n      jump\t// in\n    tag_251:\n        /* \"#utility.yul\":7671:7707   */\n    tag_250:\n        /* \"#utility.yul\":7523:7714   */\n      swap3\n      swap2\n      pop\n      pop\n      jump\t// out\n        /* \"#utility.yul\":7720:7900   */\n    tag_151:\n        /* \"#utility.yul\":7768:7845   */\n      0x4e487b7100000000000000000000000000000000000000000000000000000000\n        /* \"#utility.yul\":7765:7766   */\n      0x00\n        /* \"#utility.yul\":7758:7846   */\n      mstore\n        /* \"#utility.yul\":7865:7869   */\n      0x12\n        /* \"#utility.yul\":7862:7863   */\n      0x04\n        /* \"#utility.yul\":7855:7870   */\n      mstore\n        /* \"#utility.yul\":7889:7893   */\n      0x24\n        /* \"#utility.yul\":7886:7887   */\n      0x00\n        /* \"#utility.yul\":7879:7894   */\n      revert\n        /* \"#utility.yul\":7906:8091   */\n    tag_44:\n        /* \"#utility.yul\":7946:7947   */\n      0x00\n        /* \"#utility.yul\":7963:7983   */\n      tag_254\n        /* \"#utility.yul\":7981:7982   */\n      dup3\n        /* \"#utility.yul\":7963:7983   */\n      tag_134\n      jump\t// in\n    tag_254:\n        /* \"#utility.yul\":7958:7983   */\n      swap2\n      pop\n        /* \"#utility.yul\":7997:8017   */\n      tag_255\n        /* \"#utility.yul\":8015:8016   */\n      dup4\n        /* \"#utility.yul\":7997:8017   */\n      tag_134\n      jump\t// in\n    tag_255:\n        /* \"#utility.yul\":7992:8017   */\n      swap3\n      pop\n        /* \"#utility.yul\":8036:8037   */\n      dup3\n        /* \"#utility.yul\":8026:8061   */\n      tag_256\n      jumpi\n        /* \"#utility.yul\":8041:8059   */\n      tag_257\n      tag_151\n      jump\t// in\n    tag_257:\n        /* \"#utility.yul\":8026:8061   */\n    tag_256:\n        /* \"#utility.yul\":8083:8084   */\n      dup3\n        /* \"#utility.yul\":8080:8081   */\n      dup3\n        /* \"#utility.yul\":8076:8085   */\n      div\n        /* \"#utility.yul\":8071:8085   */\n      swap1\n      pop\n        /* \"#utility.yul\":7906:8091   */\n      swap3\n      swap2\n      pop\n      pop\n      jump\t// out\n        /* \"#utility.yul\":8097:8507   */\n    tag_46:\n        /* \"#utility.yul\":8137:8144   */\n      0x00\n        /* \"#utility.yul\":8160:8180   */\n      tag_259\n        /* \"#utility.yul\":8178:8179   */\n      dup3\n        /* \"#utility.yul\":8160:8180   */\n      tag_134\n      jump\t// in\n    tag_259:\n        /* \"#utility.yul\":8155:8180   */\n      swap2\n      pop\n        /* \"#utility.yul\":8194:8214   */\n      tag_260\n        /* \"#utility.yul\":8212:8213   */\n      dup4\n        /* \"#utility.yul\":8194:8214   */\n      tag_134\n      jump\t// in\n    tag_260:\n        /* \"#utility.yul\":8189:8214   */\n      swap3\n      pop\n        /* \"#utility.yul\":8249:8250   */\n      dup3\n        /* \"#utility.yul\":8246:8247   */\n      dup3\n        /* \"#utility.yul\":8242:8251   */\n      mul\n        /* \"#utility.yul\":8271:8301   */\n      tag_261\n        /* \"#utility.yul\":8289:8300   */\n      dup2\n        /* \"#utility.yul\":8271:8301   */\n      tag_134\n      jump\t// in\n    tag_261:\n        /* \"#utility.yul\":8260:8301   */\n      swap2\n      pop\n        /* \"#utility.yul\":8450:8451   */\n      dup3\n        /* \"#utility.yul\":8441:8448   */\n      dup3\n        /* \"#utility.yul\":8437:8452   */\n      div\n        /* \"#utility.yul\":8434:8435   */\n      dup5\n        /* \"#utility.yul\":8431:8453   */\n      eq\n        /* \"#utility.yul\":8411:8412   */\n      dup4\n        /* \"#utility.yul\":8404:8413   */\n      iszero\n        /* \"#utility.yul\":8384:8467   */\n      or\n        /* \"#utility.yul\":8361:8500   */\n      tag_262\n      jumpi\n        /* \"#utility.yul\":8480:8498   */\n      tag_263\n      tag_150\n      jump\t// in\n    tag_263:\n        /* \"#utility.yul\":8361:8500   */\n    tag_262:\n        /* \"#utility.yul\":8145:8507   */\n      pop\n        /* \"#utility.yul\":8097:8507   */\n      swap3\n      swap2\n      pop\n      pop\n      jump\t// out\n        /* \"#utility.yul\":8513:8631   */\n    tag_152:\n        /* \"#utility.yul\":8600:8624   */\n      tag_265\n        /* \"#utility.yul\":8618:8623   */\n      dup2\n        /* \"#utility.yul\":8600:8624   */\n      tag_131\n      jump\t// in\n    tag_265:\n        /* \"#utility.yul\":8595:8598   */\n      dup3\n        /* \"#utility.yul\":8588:8625   */\n      mstore\n        /* \"#utility.yul\":8513:8631   */\n      pop\n      pop\n      jump\t// out\n        /* \"#utility.yul\":8637:8859   */\n    tag_51:\n        /* \"#utility.yul\":8730:8734   */\n      0x00\n        /* \"#utility.yul\":8768:8770   */\n      0x20\n        /* \"#utility.yul\":8757:8766   */\n      dup3\n        /* \"#utility.yul\":8753:8771   */\n      add\n        /* \"#utility.yul\":8745:8771   */\n      swap1\n      pop\n        /* \"#utility.yul\":8781:8852   */\n      tag_267\n        /* \"#utility.yul\":8849:8850   */\n      0x00\n        /* \"#utility.yul\":8838:8847   */\n      dup4\n        /* \"#utility.yul\":8834:8851   */\n      add\n        /* \"#utility.yul\":8825:8831   */\n      dup5\n        /* \"#utility.yul\":8781:8852   */\n      tag_152\n      jump\t// in\n    tag_267:\n        /* \"#utility.yul\":8637:8859   */\n      swap3\n      swap2\n      pop\n      pop\n      jump\t// out\n        /* \"#utility.yul\":8865:9008   */\n    tag_153:\n        /* \"#utility.yul\":8922:8927   */\n      0x00\n        /* \"#utility.yul\":8953:8959   */\n      dup2\n        /* \"#utility.yul\":8947:8960   */\n      mload\n        /* \"#utility.yul\":8938:8960   */\n      swap1\n      pop\n        /* \"#utility.yul\":8969:9002   */\n      tag_269\n        /* \"#utility.yul\":8996:9001   */\n      dup2\n        /* \"#utility.yul\":8969:9002   */\n      tag_136\n      jump\t// in\n    tag_269:\n        /* \"#utility.yul\":8865:9008   */\n      swap3\n      swap2\n      pop\n      pop\n      jump\t// out\n        /* \"#utility.yul\":9014:9365   */\n    tag_55:\n        /* \"#utility.yul\":9084:9090   */\n      0x00\n        /* \"#utility.yul\":9133:9135   */\n      0x20\n        /* \"#utility.yul\":9121:9130   */\n      dup3\n        /* \"#utility.yul\":9112:9119   */\n      dup5\n        /* \"#utility.yul\":9108:9131   */\n      sub\n        /* \"#utility.yul\":9104:9136   */\n      slt\n        /* \"#utility.yul\":9101:9220   */\n      iszero\n      tag_271\n      jumpi\n        /* \"#utility.yul\":9139:9218   */\n      tag_272\n      tag_125\n      jump\t// in\n    tag_272:\n        /* \"#utility.yul\":9101:9220   */\n    tag_271:\n        /* \"#utility.yul\":9259:9260   */\n      0x00\n        /* \"#utility.yul\":9284:9348   */\n      tag_273\n        /* \"#utility.yul\":9340:9347   */\n      dup5\n        /* \"#utility.yul\":9331:9337   */\n      dup3\n        /* \"#utility.yul\":9320:9329   */\n      dup6\n        /* \"#utility.yul\":9316:9338   */\n      add\n        /* \"#utility.yul\":9284:9348   */\n      tag_153\n      jump\t// in\n    tag_273:\n        /* \"#utility.yul\":9274:9348   */\n      swap2\n      pop\n        /* \"#utility.yul\":9230:9358   */\n      pop\n        /* \"#utility.yul\":9014:9365   */\n      swap3\n      swap2\n      pop\n      pop\n      jump\t// out\n        /* \"#utility.yul\":9371:9552   */\n    tag_154:\n        /* \"#utility.yul\":9511:9544   */\n      0x4e6f7420456e6f756768204d6f6e657920746f20676976652072657761726400\n        /* \"#utility.yul\":9507:9508   */\n      0x00\n        /* \"#utility.yul\":9499:9505   */\n      dup3\n        /* \"#utility.yul\":9495:9509   */\n      add\n        /* \"#utility.yul\":9488:9545   */\n      mstore\n        /* \"#utility.yul\":9371:9552   */\n      pop\n      jump\t// out\n        /* \"#utility.yul\":9558:9924   */\n    tag_155:\n        /* \"#utility.yul\":9700:9703   */\n      0x00\n        /* \"#utility.yul\":9721:9788   */\n      tag_276\n        /* \"#utility.yul\":9785:9787   */\n      0x1f\n        /* \"#utility.yul\":9780:9783   */\n      dup4\n        /* \"#utility.yul\":9721:9788   */\n      tag_143\n      jump\t// in\n    tag_276:\n        /* \"#utility.yul\":9714:9788   */\n      swap2\n      pop\n        /* \"#utility.yul\":9797:9890   */\n      tag_277\n        /* \"#utility.yul\":9886:9889   */\n      dup3\n        /* \"#utility.yul\":9797:9890   */\n      tag_154\n      jump\t// in\n    tag_277:\n        /* \"#utility.yul\":9915:9917   */\n      0x20\n        /* \"#utility.yul\":9910:9913   */\n      dup3\n        /* \"#utility.yul\":9906:9918   */\n      add\n        /* \"#utility.yul\":9899:9918   */\n      swap1\n      pop\n        /* \"#utility.yul\":9558:9924   */\n      swap2\n      swap1\n      pop\n      jump\t// out\n        /* \"#utility.yul\":9930:10349   */\n    tag_58:\n        /* \"#utility.yul\":10096:10100   */\n      0x00\n        /* \"#utility.yul\":10134:10136   */\n      0x20\n        /* \"#utility.yul\":10123:10132   */\n      dup3\n        /* \"#utility.yul\":10119:10137   */\n      add\n        /* \"#utility.yul\":10111:10137   */\n      swap1\n      pop\n        /* \"#utility.yul\":10183:10192   */\n      dup2\n        /* \"#utility.yul\":10177:10181   */\n      dup2\n        /* \"#utility.yul\":10173:10193   */\n      sub\n        /* \"#utility.yul\":10169:10170   */\n      0x00\n        /* \"#utility.yul\":10158:10167   */\n      dup4\n        /* \"#utility.yul\":10154:10171   */\n      add\n        /* \"#utility.yul\":10147:10194   */\n      mstore\n        /* \"#utility.yul\":10211:10342   */\n      tag_279\n        /* \"#utility.yul\":10337:10341   */\n      dup2\n        /* \"#utility.yul\":10211:10342   */\n      tag_155\n      jump\t// in\n    tag_279:\n        /* \"#utility.yul\":10203:10342   */\n      swap1\n      pop\n        /* \"#utility.yul\":9930:10349   */\n      swap2\n      swap1\n      pop\n      jump\t// out\n        /* \"#utility.yul\":10355:10577   */\n    tag_64:\n        /* \"#utility.yul\":10448:10452   */\n      0x00\n        /* \"#utility.yul\":10486:10488   */\n      0x20\n        /* \"#utility.yul\":10475:10484   */\n      dup3\n        /* \"#utility.yul\":10471:10489   */\n      add\n        /* \"#utility.yul\":10463:10489   */\n      swap1\n      pop\n        /* \"#utility.yul\":10499:10570   */\n      tag_281\n        /* \"#utility.yul\":10567:10568   */\n      0x00\n        /* \"#utility.yul\":10556:10565   */\n      dup4\n        /* \"#utility.yul\":10552:10569   */\n      add\n        /* \"#utility.yul\":10543:10549   */\n      dup5\n        /* \"#utility.yul\":10499:10570   */\n      tag_135\n      jump\t// in\n    tag_281:\n        /* \"#utility.yul\":10355:10577   */\n      swap3\n      swap2\n      pop\n      pop\n      jump\t// out\n        /* \"#utility.yul\":10583:10874   */\n    tag_156:\n        /* \"#utility.yul\":10723:10757   */\n      0x596f752063616e2774207374616b6520616761696e20776974686f7574207769\n        /* \"#utility.yul\":10719:10720   */\n      0x00\n        /* \"#utility.yul\":10711:10717   */\n      dup3\n        /* \"#utility.yul\":10707:10721   */\n      add\n        /* \"#utility.yul\":10700:10758   */\n      mstore\n        /* \"#utility.yul\":10792:10826   */\n      0x746864726177696e6720796f75722070726576696f7573206d6f6e6579206669\n        /* \"#utility.yul\":10787:10789   */\n      0x20\n        /* \"#utility.yul\":10779:10785   */\n      dup3\n        /* \"#utility.yul\":10775:10790   */\n      add\n        /* \"#utility.yul\":10768:10827   */\n      mstore\n        /* \"#utility.yul\":10861:10866   */\n      0x7273740000000000000000000000000000000000000000000000000000000000\n        /* \"#utility.yul\":10856:10858   */\n      0x40\n        /* \"#utility.yul\":10848:10854   */\n      dup3\n        /* \"#utility.yul\":10844:10859   */\n      add\n        /* \"#utility.yul\":10837:10867   */\n      mstore\n        /* \"#utility.yul\":10583:10874   */\n      pop\n      jump\t// out\n        /* \"#utility.yul\":10880:11246   */\n    tag_157:\n        /* \"#utility.yul\":11022:11025   */\n      0x00\n        /* \"#utility.yul\":11043:11110   */\n      tag_284\n        /* \"#utility.yul\":11107:11109   */\n      0x43\n        /* \"#utility.yul\":11102:11105   */\n      dup4\n        /* \"#utility.yul\":11043:11110   */\n      tag_143\n      jump\t// in\n    tag_284:\n        /* \"#utility.yul\":11036:11110   */\n      swap2\n      pop\n        /* \"#utility.yul\":11119:11212   */\n      tag_285\n        /* \"#utility.yul\":11208:11211   */\n      dup3\n        /* \"#utility.yul\":11119:11212   */\n      tag_156\n      jump\t// in\n    tag_285:\n        /* \"#utility.yul\":11237:11239   */\n      0x60\n        /* \"#utility.yul\":11232:11235   */\n      dup3\n        /* \"#utility.yul\":11228:11240   */\n      add\n        /* \"#utility.yul\":11221:11240   */\n      swap1\n      pop\n        /* \"#utility.yul\":10880:11246   */\n      swap2\n      swap1\n      pop\n      jump\t// out\n        /* \"#utility.yul\":11252:11671   */\n    tag_69:\n        /* \"#utility.yul\":11418:11422   */\n      0x00\n        /* \"#utility.yul\":11456:11458   */\n      0x20\n        /* \"#utility.yul\":11445:11454   */\n      dup3\n        /* \"#utility.yul\":11441:11459   */\n      add\n        /* \"#utility.yul\":11433:11459   */\n      swap1\n      pop\n        /* \"#utility.yul\":11505:11514   */\n      dup2\n        /* \"#utility.yul\":11499:11503   */\n      dup2\n        /* \"#utility.yul\":11495:11515   */\n      sub\n        /* \"#utility.yul\":11491:11492   */\n      0x00\n        /* \"#utility.yul\":11480:11489   */\n      dup4\n        /* \"#utility.yul\":11476:11493   */\n      add\n        /* \"#utility.yul\":11469:11516   */\n      mstore\n        /* \"#utility.yul\":11533:11664   */\n      tag_287\n        /* \"#utility.yul\":11659:11663   */\n      dup2\n        /* \"#utility.yul\":11533:11664   */\n      tag_157\n      jump\t// in\n    tag_287:\n        /* \"#utility.yul\":11525:11664   */\n      swap1\n      pop\n        /* \"#utility.yul\":11252:11671   */\n      swap2\n      swap1\n      pop\n      jump\t// out\n        /* \"#utility.yul\":11677:11847   */\n    tag_158:\n        /* \"#utility.yul\":11817:11839   */\n      0x496e73756666696369656e742042616c616e6365000000000000000000000000\n        /* \"#utility.yul\":11813:11814   */\n      0x00\n        /* \"#utility.yul\":11805:11811   */\n      dup3\n        /* \"#utility.yul\":11801:11815   */\n      add\n        /* \"#utility.yul\":11794:11840   */\n      mstore\n        /* \"#utility.yul\":11677:11847   */\n      pop\n      jump\t// out\n        /* \"#utility.yul\":11853:12219   */\n    tag_159:\n        /* \"#utility.yul\":11995:11998   */\n      0x00\n        /* \"#utility.yul\":12016:12083   */\n      tag_290\n        /* \"#utility.yul\":12080:12082   */\n      0x14\n        /* \"#utility.yul\":12075:12078   */\n      dup4\n        /* \"#utility.yul\":12016:12083   */\n      tag_143\n      jump\t// in\n    tag_290:\n        /* \"#utility.yul\":12009:12083   */\n      swap2\n      pop\n        /* \"#utility.yul\":12092:12185   */\n      tag_291\n        /* \"#utility.yul\":12181:12184   */\n      dup3\n        /* \"#utility.yul\":12092:12185   */\n      tag_158\n      jump\t// in\n    tag_291:\n        /* \"#utility.yul\":12210:12212   */\n      0x20\n        /* \"#utility.yul\":12205:12208   */\n      dup3\n        /* \"#utility.yul\":12201:12213   */\n      add\n        /* \"#utility.yul\":12194:12213   */\n      swap1\n      pop\n        /* \"#utility.yul\":11853:12219   */\n      swap2\n      swap1\n      pop\n      jump\t// out\n        /* \"#utility.yul\":12225:12644   */\n    tag_77:\n        /* \"#utility.yul\":12391:12395   */\n      0x00\n        /* \"#utility.yul\":12429:12431   */\n      0x20\n        /* \"#utility.yul\":12418:12427   */\n      dup3\n        /* \"#utility.yul\":12414:12432   */\n      add\n        /* \"#utility.yul\":12406:12432   */\n      swap1\n      pop\n        /* \"#utility.yul\":12478:12487   */\n      dup2\n        /* \"#utility.yul\":12472:12476   */\n      dup2\n        /* \"#utility.yul\":12468:12488   */\n      sub\n        /* \"#utility.yul\":12464:12465   */\n      0x00\n        /* \"#utility.yul\":12453:12462   */\n      dup4\n        /* \"#utility.yul\":12449:12466   */\n      add\n        /* \"#utility.yul\":12442:12489   */\n      mstore\n        /* \"#utility.yul\":12506:12637   */\n      tag_293\n        /* \"#utility.yul\":12632:12636   */\n      dup2\n        /* \"#utility.yul\":12506:12637   */\n      tag_159\n      jump\t// in\n    tag_293:\n        /* \"#utility.yul\":12498:12637   */\n      swap1\n      pop\n        /* \"#utility.yul\":12225:12644   */\n      swap2\n      swap1\n      pop\n      jump\t// out\n        /* \"#utility.yul\":12650:12982   */\n    tag_86:\n        /* \"#utility.yul\":12771:12775   */\n      0x00\n        /* \"#utility.yul\":12809:12811   */\n      0x40\n        /* \"#utility.yul\":12798:12807   */\n      dup3\n        /* \"#utility.yul\":12794:12812   */\n      add\n        /* \"#utility.yul\":12786:12812   */\n      swap1\n      pop\n        /* \"#utility.yul\":12822:12893   */\n      tag_295\n        /* \"#utility.yul\":12890:12891   */\n      0x00\n        /* \"#utility.yul\":12879:12888   */\n      dup4\n        /* \"#utility.yul\":12875:12892   */\n      add\n        /* \"#utility.yul\":12866:12872   */\n      dup6\n        /* \"#utility.yul\":12822:12893   */\n      tag_152\n      jump\t// in\n    tag_295:\n        /* \"#utility.yul\":12903:12975   */\n      tag_296\n        /* \"#utility.yul\":12971:12973   */\n      0x20\n        /* \"#utility.yul\":12960:12969   */\n      dup4\n        /* \"#utility.yul\":12956:12974   */\n      add\n        /* \"#utility.yul\":12947:12953   */\n      dup5\n        /* \"#utility.yul\":12903:12975   */\n      tag_135\n      jump\t// in\n    tag_296:\n        /* \"#utility.yul\":12650:12982   */\n      swap4\n      swap3\n      pop\n      pop\n      pop\n      jump\t// out\n        /* \"#utility.yul\":12988:13430   */\n    tag_91:\n        /* \"#utility.yul\":13137:13141   */\n      0x00\n        /* \"#utility.yul\":13175:13177   */\n      0x60\n        /* \"#utility.yul\":13164:13173   */\n      dup3\n        /* \"#utility.yul\":13160:13178   */\n      add\n        /* \"#utility.yul\":13152:13178   */\n      swap1\n      pop\n        /* \"#utility.yul\":13188:13259   */\n      tag_298\n        /* \"#utility.yul\":13256:13257   */\n      0x00\n        /* \"#utility.yul\":13245:13254   */\n      dup4\n        /* \"#utility.yul\":13241:13258   */\n      add\n        /* \"#utility.yul\":13232:13238   */\n      dup7\n        /* \"#utility.yul\":13188:13259   */\n      tag_152\n      jump\t// in\n    tag_298:\n        /* \"#utility.yul\":13269:13341   */\n      tag_299\n        /* \"#utility.yul\":13337:13339   */\n      0x20\n        /* \"#utility.yul\":13326:13335   */\n      dup4\n        /* \"#utility.yul\":13322:13340   */\n      add\n        /* \"#utility.yul\":13313:13319   */\n      dup6\n        /* \"#utility.yul\":13269:13341   */\n      tag_152\n      jump\t// in\n    tag_299:\n        /* \"#utility.yul\":13351:13423   */\n      tag_300\n        /* \"#utility.yul\":13419:13421   */\n      0x40\n        /* \"#utility.yul\":13408:13417   */\n      dup4\n        /* \"#utility.yul\":13404:13422   */\n      add\n        /* \"#utility.yul\":13395:13401   */\n      dup5\n        /* \"#utility.yul\":13351:13423   */\n      tag_135\n      jump\t// in\n    tag_300:\n        /* \"#utility.yul\":12988:13430   */\n      swap5\n      swap4\n      pop\n      pop\n      pop\n      pop\n      jump\t// out\n        /* \"#utility.yul\":13436:13526   */\n    tag_160:\n        /* \"#utility.yul\":13470:13477   */\n      0x00\n        /* \"#utility.yul\":13513:13518   */\n      dup2\n        /* \"#utility.yul\":13506:13519   */\n      iszero\n        /* \"#utility.yul\":13499:13520   */\n      iszero\n        /* \"#utility.yul\":13488:13520   */\n      swap1\n      pop\n        /* \"#utility.yul\":13436:13526   */\n      swap2\n      swap1\n      pop\n      jump\t// out\n        /* \"#utility.yul\":13532:13648   */\n    tag_161:\n        /* \"#utility.yul\":13602:13623   */\n      tag_303\n        /* \"#utility.yul\":13617:13622   */\n      dup2\n        /* \"#utility.yul\":13602:13623   */\n      tag_160\n      jump\t// in\n    tag_303:\n        /* \"#utility.yul\":13595:13600   */\n      dup2\n        /* \"#utility.yul\":13592:13624   */\n      eq\n        /* \"#utility.yul\":13582:13642   */\n      tag_304\n      jumpi\n        /* \"#utility.yul\":13638:13639   */\n      0x00\n        /* \"#utility.yul\":13635:13636   */\n      dup1\n        /* \"#utility.yul\":13628:13640   */\n      revert\n        /* \"#utility.yul\":13582:13642   */\n    tag_304:\n        /* \"#utility.yul\":13532:13648   */\n      pop\n      jump\t// out\n        /* \"#utility.yul\":13654:13791   */\n    tag_162:\n        /* \"#utility.yul\":13708:13713   */\n      0x00\n        /* \"#utility.yul\":13739:13745   */\n      dup2\n        /* \"#utility.yul\":13733:13746   */\n      mload\n        /* \"#utility.yul\":13724:13746   */\n      swap1\n      pop\n        /* \"#utility.yul\":13755:13785   */\n      tag_306\n        /* \"#utility.yul\":13779:13784   */\n      dup2\n        /* \"#utility.yul\":13755:13785   */\n      tag_161\n      jump\t// in\n    tag_306:\n        /* \"#utility.yul\":13654:13791   */\n      swap3\n      swap2\n      pop\n      pop\n      jump\t// out\n        /* \"#utility.yul\":13797:14142   */\n    tag_97:\n        /* \"#utility.yul\":13864:13870   */\n      0x00\n        /* \"#utility.yul\":13913:13915   */\n      0x20\n        /* \"#utility.yul\":13901:13910   */\n      dup3\n        /* \"#utility.yul\":13892:13899   */\n      dup5\n        /* \"#utility.yul\":13888:13911   */\n      sub\n        /* \"#utility.yul\":13884:13916   */\n      slt\n        /* \"#utility.yul\":13881:14000   */\n      iszero\n      tag_308\n      jumpi\n        /* \"#utility.yul\":13919:13998   */\n      tag_309\n      tag_125\n      jump\t// in\n    tag_309:\n        /* \"#utility.yul\":13881:14000   */\n    tag_308:\n        /* \"#utility.yul\":14039:14040   */\n      0x00\n        /* \"#utility.yul\":14064:14125   */\n      tag_310\n        /* \"#utility.yul\":14117:14124   */\n      dup5\n        /* \"#utility.yul\":14108:14114   */\n      dup3\n        /* \"#utility.yul\":14097:14106   */\n      dup6\n        /* \"#utility.yul\":14093:14115   */\n      add\n        /* \"#utility.yul\":14064:14125   */\n      tag_162\n      jump\t// in\n    tag_310:\n        /* \"#utility.yul\":14054:14125   */\n      swap2\n      pop\n        /* \"#utility.yul\":14010:14135   */\n      pop\n        /* \"#utility.yul\":13797:14142   */\n      swap3\n      swap2\n      pop\n      pop\n      jump\t// out\n        /* \"#utility.yul\":14148:14246   */\n    tag_163:\n        /* \"#utility.yul\":14199:14205   */\n      0x00\n        /* \"#utility.yul\":14233:14238   */\n      dup2\n        /* \"#utility.yul\":14227:14239   */\n      mload\n        /* \"#utility.yul\":14217:14239   */\n      swap1\n      pop\n        /* \"#utility.yul\":14148:14246   */\n      swap2\n      swap1\n      pop\n      jump\t// out\n        /* \"#utility.yul\":14252:14399   */\n    tag_164:\n        /* \"#utility.yul\":14353:14364   */\n      0x00\n        /* \"#utility.yul\":14390:14393   */\n      dup2\n        /* \"#utility.yul\":14375:14393   */\n      swap1\n      pop\n        /* \"#utility.yul\":14252:14399   */\n      swap3\n      swap2\n      pop\n      pop\n      jump\t// out\n        /* \"#utility.yul\":14405:14651   */\n    tag_165:\n        /* \"#utility.yul\":14486:14487   */\n      0x00\n        /* \"#utility.yul\":14496:14609   */\n    tag_314:\n        /* \"#utility.yul\":14510:14516   */\n      dup4\n        /* \"#utility.yul\":14507:14508   */\n      dup2\n        /* \"#utility.yul\":14504:14517   */\n      lt\n        /* \"#utility.yul\":14496:14609   */\n      iszero\n      tag_316\n      jumpi\n        /* \"#utility.yul\":14595:14596   */\n      dup1\n        /* \"#utility.yul\":14590:14593   */\n      dup3\n        /* \"#utility.yul\":14586:14597   */\n      add\n        /* \"#utility.yul\":14580:14598   */\n      mload\n        /* \"#utility.yul\":14576:14577   */\n      dup2\n        /* \"#utility.yul\":14571:14574   */\n      dup5\n        /* \"#utility.yul\":14567:14578   */\n      add\n        /* \"#utility.yul\":14560:14599   */\n      mstore\n        /* \"#utility.yul\":14532:14534   */\n      0x20\n        /* \"#utility.yul\":14529:14530   */\n      dup2\n        /* \"#utility.yul\":14525:14535   */\n      add\n        /* \"#utility.yul\":14520:14535   */\n      swap1\n      pop\n        /* \"#utility.yul\":14496:14609   */\n      jump(tag_314)\n    tag_316:\n        /* \"#utility.yul\":14643:14644   */\n      0x00\n        /* \"#utility.yul\":14634:14640   */\n      dup5\n        /* \"#utility.yul\":14629:14632   */\n      dup5\n        /* \"#utility.yul\":14625:14641   */\n      add\n        /* \"#utility.yul\":14618:14645   */\n      mstore\n        /* \"#utility.yul\":14467:14651   */\n      pop\n        /* \"#utility.yul\":14405:14651   */\n      pop\n      pop\n      pop\n      jump\t// out\n        /* \"#utility.yul\":14657:15043   */\n    tag_166:\n        /* \"#utility.yul\":14761:14764   */\n      0x00\n        /* \"#utility.yul\":14789:14827   */\n      tag_318\n        /* \"#utility.yul\":14821:14826   */\n      dup3\n        /* \"#utility.yul\":14789:14827   */\n      tag_163\n      jump\t// in\n    tag_318:\n        /* \"#utility.yul\":14843:14931   */\n      tag_319\n        /* \"#utility.yul\":14924:14930   */\n      dup2\n        /* \"#utility.yul\":14919:14922   */\n      dup6\n        /* \"#utility.yul\":14843:14931   */\n      tag_164\n      jump\t// in\n    tag_319:\n        /* \"#utility.yul\":14836:14931   */\n      swap4\n      pop\n        /* \"#utility.yul\":14940:15005   */\n      tag_320\n        /* \"#utility.yul\":14998:15004   */\n      dup2\n        /* \"#utility.yul\":14993:14996   */\n      dup6\n        /* \"#utility.yul\":14986:14990   */\n      0x20\n        /* \"#utility.yul\":14979:14984   */\n      dup7\n        /* \"#utility.yul\":14975:14991   */\n      add\n        /* \"#utility.yul\":14940:15005   */\n      tag_165\n      jump\t// in\n    tag_320:\n        /* \"#utility.yul\":15030:15036   */\n      dup1\n        /* \"#utility.yul\":15025:15028   */\n      dup5\n        /* \"#utility.yul\":15021:15037   */\n      add\n        /* \"#utility.yul\":15014:15037   */\n      swap2\n      pop\n        /* \"#utility.yul\":14765:15043   */\n      pop\n        /* \"#utility.yul\":14657:15043   */\n      swap3\n      swap2\n      pop\n      pop\n      jump\t// out\n        /* \"#utility.yul\":15049:15320   */\n    tag_107:\n        /* \"#utility.yul\":15179:15182   */\n      0x00\n        /* \"#utility.yul\":15201:15294   */\n      tag_322\n        /* \"#utility.yul\":15290:15293   */\n      dup3\n        /* \"#utility.yul\":15281:15287   */\n      dup5\n        /* \"#utility.yul\":15201:15294   */\n      tag_166\n      jump\t// in\n    tag_322:\n        /* \"#utility.yul\":15194:15294   */\n      swap2\n      pop\n        /* \"#utility.yul\":15311:15314   */\n      dup2\n        /* \"#utility.yul\":15304:15314   */\n      swap1\n      pop\n        /* \"#utility.yul\":15049:15320   */\n      swap3\n      swap2\n      pop\n      pop\n      jump\t// out\n\n    auxdata: 0xa2646970667358221220cb55e4bc70dcc5ff5c8d9e8f45c826f3bb1fef74cc7990e583cf53c0aac3bf0264736f6c63430008180033\n}\n",
				"bytecode": {
					"linkReferences": {},
					"object": "60a060405260016002555f6004555f6005553480156200001d575f80fd5b506040516200151138038062001511833981810160405281019062000043919062000136565b8073ffffffffffffffffffffffffffffffffffffffff1660808173ffffffffffffffffffffffffffffffffffffffff16815250503360015f6101000a81548173ffffffffffffffffffffffffffffffffffffffff021916908373ffffffffffffffffffffffffffffffffffffffff1602179055505062000166565b5f80fd5b5f73ffffffffffffffffffffffffffffffffffffffff82169050919050565b5f620000ed82620000c2565b9050919050565b5f6200010082620000e1565b9050919050565b6200011281620000f4565b81146200011d575f80fd5b50565b5f81519050620001308162000107565b92915050565b5f602082840312156200014e576200014d620000be565b5b5f6200015d8482850162000120565b91505092915050565b6080516113766200019b5f395f81816102e7015281816103d301528181610601015281816106e1015261081e01526113765ff3fe608060405234801561000f575f80fd5b5060043610610055575f3560e01c8063337b8b96146100595780633ccfd60b146100755780639168ae721461007f578063a694fc3a146100b1578063fc0c546a146100cd575b5f80fd5b610073600480360381019061006e9190610bbf565b6100eb565b005b61007d610187565b005b61009960048036038101906100949190610c44565b61054e565b6040516100a893929190610c87565b60405180910390f35b6100cb60048036038101906100c69190610ce6565b610573565b005b6100d561081c565b6040516100e29190610d6c565b60405180910390f35b60015f9054906101000a900473ffffffffffffffffffffffffffffffffffffffff1673ffffffffffffffffffffffffffffffffffffffff163373ffffffffffffffffffffffffffffffffffffffff161461017a576040517ff7251ccf00000000000000000000000000000000000000000000000000000000815260040161017190610ddf565b60405180910390fd5b8060ff1660028190555050565b5f805f3373ffffffffffffffffffffffffffffffffffffffff1673ffffffffffffffffffffffffffffffffffffffff1681526020019081526020015f206040518060600160405290815f82015481526020016001820154815260200160028201548152505090505f815f015111610233576040517f7979dc8700000000000000000000000000000000000000000000000000000000815260040161022a90610e47565b60405180910390fd5b806020015142101561027a576040517f30f1c21600000000000000000000000000000000000000000000000000000000815260040161027190610eaf565b60405180910390fd5b5f610e1082602001514261028e9190610efa565b6102989190610f2d565b90505f610e10826102a99190610f8d565b90505f606482855f01516102bd9190610fbd565b6002546102ca9190610fbd565b6102d49190610f8d565b905080845f01516102e59190610f2d565b7f000000000000000000000000000000000000000000000000000000000000000073ffffffffffffffffffffffffffffffffffffffff166370a08231306040518263ffffffff1660e01b815260040161033e919061100d565b602060405180830381865afa158015610359573d5f803e3d5ffd5b505050506040513d601f19601f8201168201806040525081019061037d919061103a565b10156103be576040517f7979dc870000000000000000000000000000000000000000000000000000000081526004016103b5906110af565b60405180910390fd5b6104173382865f01516103d19190610f2d565b7f000000000000000000000000000000000000000000000000000000000000000073ffffffffffffffffffffffffffffffffffffffff166108409092919063ffffffff16565b3373ffffffffffffffffffffffffffffffffffffffff167f884edad9ce6fa2440d8a54cc123490eb96d2768479d49ff9c7366125a9424364855f01518361045e9190610f2d565b60405161046b91906110cd565b60405180910390a25f805f3373ffffffffffffffffffffffffffffffffffffffff1673ffffffffffffffffffffffffffffffffffffffff1681526020019081526020015f205f01819055505f805f3373ffffffffffffffffffffffffffffffffffffffff1673ffffffffffffffffffffffffffffffffffffffff1681526020019081526020015f20600101819055503373ffffffffffffffffffffffffffffffffffffffff167f619caafabdd75649b302ba8419e48cccf64f37f1983ac4727cfb38b57703ffc98260405161054091906110cd565b60405180910390a250505050565b5f602052805f5260405f205f91509050805f0154908060010154908060020154905083565b5f805f3373ffffffffffffffffffffffffffffffffffffffff1673ffffffffffffffffffffffffffffffffffffffff1681526020019081526020015f205f015411156105f4576040517f0dd028d80000000000000000000000000000000000000000000000000000000081526004016105eb9061117c565b60405180910390fd5b5f811115806106995750807f000000000000000000000000000000000000000000000000000000000000000073ffffffffffffffffffffffffffffffffffffffff166370a08231336040518263ffffffff1660e01b8152600401610658919061100d565b602060405180830381865afa158015610673573d5f803e3d5ffd5b505050506040513d601f19601f82011682018060405250810190610697919061103a565b105b156106d9576040517f7979dc870000000000000000000000000000000000000000000000000000000081526004016106d0906111e4565b60405180910390fd5b6107263330837f000000000000000000000000000000000000000000000000000000000000000073ffffffffffffffffffffffffffffffffffffffff166108bf909392919063ffffffff16565b805f803373ffffffffffffffffffffffffffffffffffffffff1673ffffffffffffffffffffffffffffffffffffffff1681526020019081526020015f205f015f8282546107739190610f2d565b92505081905550610e10426107889190610f2d565b5f803373ffffffffffffffffffffffffffffffffffffffff1673ffffffffffffffffffffffffffffffffffffffff1681526020019081526020015f20600101819055503373ffffffffffffffffffffffffffffffffffffffff167f9e71bc8eea02a63969f509818f2dafb9254532904319f9dbda79b67bd34a5f3d8260405161081191906110cd565b60405180910390a250565b7f000000000000000000000000000000000000000000000000000000000000000081565b6108ba838473ffffffffffffffffffffffffffffffffffffffff1663a9059cbb8585604051602401610873929190611202565b604051602081830303815290604052915060e01b6020820180517bffffffffffffffffffffffffffffffffffffffffffffffffffffffff8381831617835250505050610941565b505050565b61093b848573ffffffffffffffffffffffffffffffffffffffff166323b872dd8686866040516024016108f493929190611229565b604051602081830303815290604052915060e01b6020820180517bffffffffffffffffffffffffffffffffffffffffffffffffffffffff8381831617835250505050610941565b50505050565b5f61096b828473ffffffffffffffffffffffffffffffffffffffff166109d690919063ffffffff16565b90505f81511415801561098f57508080602001905181019061098d9190611293565b155b156109d157826040517f5274afe70000000000000000000000000000000000000000000000000000000081526004016109c8919061100d565b60405180910390fd5b505050565b60606109e383835f6109eb565b905092915050565b606081471015610a3257306040517fcd786059000000000000000000000000000000000000000000000000000000008152600401610a29919061100d565b60405180910390fd5b5f808573ffffffffffffffffffffffffffffffffffffffff168486604051610a5a919061132a565b5f6040518083038185875af1925050503d805f8114610a94576040519150601f19603f3d011682016040523d82523d5f602084013e610a99565b606091505b5091509150610aa9868383610ab4565b925050509392505050565b606082610ac957610ac482610b41565b610b39565b5f8251148015610aef57505f8473ffffffffffffffffffffffffffffffffffffffff163b145b15610b3157836040517f9996b315000000000000000000000000000000000000000000000000000000008152600401610b28919061100d565b60405180910390fd5b819050610b3a565b5b9392505050565b5f81511115610b535780518082602001fd5b6040517f1425ea4200000000000000000000000000000000000000000000000000000000815260040160405180910390fd5b5f80fd5b5f60ff82169050919050565b610b9e81610b89565b8114610ba8575f80fd5b50565b5f81359050610bb981610b95565b92915050565b5f60208284031215610bd457610bd3610b85565b5b5f610be184828501610bab565b91505092915050565b5f73ffffffffffffffffffffffffffffffffffffffff82169050919050565b5f610c1382610bea565b9050919050565b610c2381610c09565b8114610c2d575f80fd5b50565b5f81359050610c3e81610c1a565b92915050565b5f60208284031215610c5957610c58610b85565b5b5f610c6684828501610c30565b91505092915050565b5f819050919050565b610c8181610c6f565b82525050565b5f606082019050610c9a5f830186610c78565b610ca76020830185610c78565b610cb46040830184610c78565b949350505050565b610cc581610c6f565b8114610ccf575f80fd5b50565b5f81359050610ce081610cbc565b92915050565b5f60208284031215610cfb57610cfa610b85565b5b5f610d0884828501610cd2565b91505092915050565b5f819050919050565b5f610d34610d2f610d2a84610bea565b610d11565b610bea565b9050919050565b5f610d4582610d1a565b9050919050565b5f610d5682610d3b565b9050919050565b610d6681610d4c565b82525050565b5f602082019050610d7f5f830184610d5d565b92915050565b5f82825260208201905092915050565b7f796f75277265206e6f7420746865206f776e65720000000000000000000000005f82015250565b5f610dc9601483610d85565b9150610dd482610d95565b602082019050919050565b5f6020820190508181035f830152610df681610dbd565b9050919050565b7f4e6f20546f6b656e73205374616b6564000000000000000000000000000000005f82015250565b5f610e31601083610d85565b9150610e3c82610dfd565b602082019050919050565b5f6020820190508181035f830152610e5e81610e25565b9050919050565b7f596f752063616e2774207769746864726177206265666f7265203120686f75725f82015250565b5f610e99602083610d85565b9150610ea482610e65565b602082019050919050565b5f6020820190508181035f830152610ec681610e8d565b9050919050565b7f4e487b71000000000000000000000000000000000000000000000000000000005f52601160045260245ffd5b5f610f0482610c6f565b9150610f0f83610c6f565b9250828203905081811115610f2757610f26610ecd565b5b92915050565b5f610f3782610c6f565b9150610f4283610c6f565b9250828201905080821115610f5a57610f59610ecd565b5b92915050565b7f4e487b71000000000000000000000000000000000000000000000000000000005f52601260045260245ffd5b5f610f9782610c6f565b9150610fa283610c6f565b925082610fb257610fb1610f60565b5b828204905092915050565b5f610fc782610c6f565b9150610fd283610c6f565b9250828202610fe081610c6f565b91508282048414831517610ff757610ff6610ecd565b5b5092915050565b61100781610c09565b82525050565b5f6020820190506110205f830184610ffe565b92915050565b5f8151905061103481610cbc565b92915050565b5f6020828403121561104f5761104e610b85565b5b5f61105c84828501611026565b91505092915050565b7f4e6f7420456e6f756768204d6f6e657920746f206769766520726577617264005f82015250565b5f611099601f83610d85565b91506110a482611065565b602082019050919050565b5f6020820190508181035f8301526110c68161108d565b9050919050565b5f6020820190506110e05f830184610c78565b92915050565b7f596f752063616e2774207374616b6520616761696e20776974686f75742077695f8201527f746864726177696e6720796f75722070726576696f7573206d6f6e657920666960208201527f7273740000000000000000000000000000000000000000000000000000000000604082015250565b5f611166604383610d85565b9150611171826110e6565b606082019050919050565b5f6020820190508181035f8301526111938161115a565b9050919050565b7f496e73756666696369656e742042616c616e63650000000000000000000000005f82015250565b5f6111ce601483610d85565b91506111d98261119a565b602082019050919050565b5f6020820190508181035f8301526111fb816111c2565b9050919050565b5f6040820190506112155f830185610ffe565b6112226020830184610c78565b9392505050565b5f60608201905061123c5f830186610ffe565b6112496020830185610ffe565b6112566040830184610c78565b949350505050565b5f8115159050919050565b6112728161125e565b811461127c575f80fd5b50565b5f8151905061128d81611269565b92915050565b5f602082840312156112a8576112a7610b85565b5b5f6112b58482850161127f565b91505092915050565b5f81519050919050565b5f81905092915050565b5f5b838110156112ef5780820151818401526020810190506112d4565b5f8484015250505050565b5f611304826112be565b61130e81856112c8565b935061131e8185602086016112d2565b80840191505092915050565b5f61133582846112fa565b91508190509291505056fea2646970667358221220cb55e4bc70dcc5ff5c8d9e8f45c826f3bb1fef74cc7990e583cf53c0aac3bf0264736f6c63430008180033",
					"opcodes": "PUSH1 0xA0 PUSH1 0x40 MSTORE PUSH1 0x1 PUSH1 0x2 SSTORE PUSH0 PUSH1 0x4 SSTORE PUSH0 PUSH1 0x5 SSTORE CALLVALUE DUP1 ISZERO PUSH3 0x1D JUMPI PUSH0 DUP1 REVERT JUMPDEST POP PUSH1 0x40 MLOAD PUSH3 0x1511 CODESIZE SUB DUP1 PUSH3 0x1511 DUP4 CODECOPY DUP2 DUP2 ADD PUSH1 0x40 MSTORE DUP2 ADD SWAP1 PUSH3 0x43 SWAP2 SWAP1 PUSH3 0x136 JUMP JUMPDEST DUP1 PUSH20 0xFFFFFFFFFFFFFFFFFFFFFFFFFFFFFFFFFFFFFFFF AND PUSH1 0x80 DUP2 PUSH20 0xFFFFFFFFFFFFFFFFFFFFFFFFFFFFFFFFFFFFFFFF AND DUP2 MSTORE POP POP CALLER PUSH1 0x1 PUSH0 PUSH2 0x100 EXP DUP2 SLOAD DUP2 PUSH20 0xFFFFFFFFFFFFFFFFFFFFFFFFFFFFFFFFFFFFFFFF MUL NOT AND SWAP1 DUP4 PUSH20 0xFFFFFFFFFFFFFFFFFFFFFFFFFFFFFFFFFFFFFFFF AND MUL OR SWAP1 SSTORE POP POP PUSH3 0x166 JUMP JUMPDEST PUSH0 DUP1 REVERT JUMPDEST PUSH0 PUSH20 0xFFFFFFFFFFFFFFFFFFFFFFFFFFFFFFFFFFFFFFFF DUP3 AND SWAP1 POP SWAP2 SWAP1 POP JUMP JUMPDEST PUSH0 PUSH3 0xED DUP3 PUSH3 0xC2 JUMP JUMPDEST SWAP1 POP SWAP2 SWAP1 POP JUMP JUMPDEST PUSH0 PUSH3 0x100 DUP3 PUSH3 0xE1 JUMP JUMPDEST SWAP1 POP SWAP2 SWAP1 POP JUMP JUMPDEST PUSH3 0x112 DUP2 PUSH3 0xF4 JUMP JUMPDEST DUP2 EQ PUSH3 0x11D JUMPI PUSH0 DUP1 REVERT JUMPDEST POP JUMP JUMPDEST PUSH0 DUP2 MLOAD SWAP1 POP PUSH3 0x130 DUP2 PUSH3 0x107 JUMP JUMPDEST SWAP3 SWAP2 POP POP JUMP JUMPDEST PUSH0 PUSH1 0x20 DUP3 DUP5 SUB SLT ISZERO PUSH3 0x14E JUMPI PUSH3 0x14D PUSH3 0xBE JUMP JUMPDEST JUMPDEST PUSH0 PUSH3 0x15D DUP5 DUP3 DUP6 ADD PUSH3 0x120 JUMP JUMPDEST SWAP2 POP POP SWAP3 SWAP2 POP POP JUMP JUMPDEST PUSH1 0x80 MLOAD PUSH2 0x1376 PUSH3 0x19B PUSH0 CODECOPY PUSH0 DUP2 DUP2 PUSH2 0x2E7 ADD MSTORE DUP2 DUP2 PUSH2 0x3D3 ADD MSTORE DUP2 DUP2 PUSH2 0x601 ADD MSTORE DUP2 DUP2 PUSH2 0x6E1 ADD MSTORE PUSH2 0x81E ADD MSTORE PUSH2 0x1376 PUSH0 RETURN INVALID PUSH1 0x80 PUSH1 0x40 MSTORE CALLVALUE DUP1 ISZERO PUSH2 0xF JUMPI PUSH0 DUP1 REVERT JUMPDEST POP PUSH1 0x4 CALLDATASIZE LT PUSH2 0x55 JUMPI PUSH0 CALLDATALOAD PUSH1 0xE0 SHR DUP1 PUSH4 0x337B8B96 EQ PUSH2 0x59 JUMPI DUP1 PUSH4 0x3CCFD60B EQ PUSH2 0x75 JUMPI DUP1 PUSH4 0x9168AE72 EQ PUSH2 0x7F JUMPI DUP1 PUSH4 0xA694FC3A EQ PUSH2 0xB1 JUMPI DUP1 PUSH4 0xFC0C546A EQ PUSH2 0xCD JUMPI JUMPDEST PUSH0 DUP1 REVERT JUMPDEST PUSH2 0x73 PUSH1 0x4 DUP1 CALLDATASIZE SUB DUP2 ADD SWAP1 PUSH2 0x6E SWAP2 SWAP1 PUSH2 0xBBF JUMP JUMPDEST PUSH2 0xEB JUMP JUMPDEST STOP JUMPDEST PUSH2 0x7D PUSH2 0x187 JUMP JUMPDEST STOP JUMPDEST PUSH2 0x99 PUSH1 0x4 DUP1 CALLDATASIZE SUB DUP2 ADD SWAP1 PUSH2 0x94 SWAP2 SWAP1 PUSH2 0xC44 JUMP JUMPDEST PUSH2 0x54E JUMP JUMPDEST PUSH1 0x40 MLOAD PUSH2 0xA8 SWAP4 SWAP3 SWAP2 SWAP1 PUSH2 0xC87 JUMP JUMPDEST PUSH1 0x40 MLOAD DUP1 SWAP2 SUB SWAP1 RETURN JUMPDEST PUSH2 0xCB PUSH1 0x4 DUP1 CALLDATASIZE SUB DUP2 ADD SWAP1 PUSH2 0xC6 SWAP2 SWAP1 PUSH2 0xCE6 JUMP JUMPDEST PUSH2 0x573 JUMP JUMPDEST STOP JUMPDEST PUSH2 0xD5 PUSH2 0x81C JUMP JUMPDEST PUSH1 0x40 MLOAD PUSH2 0xE2 SWAP2 SWAP1 PUSH2 0xD6C JUMP JUMPDEST PUSH1 0x40 MLOAD DUP1 SWAP2 SUB SWAP1 RETURN JUMPDEST PUSH1 0x1 PUSH0 SWAP1 SLOAD SWAP1 PUSH2 0x100 EXP SWAP1 DIV PUSH20 0xFFFFFFFFFFFFFFFFFFFFFFFFFFFFFFFFFFFFFFFF AND PUSH20 0xFFFFFFFFFFFFFFFFFFFFFFFFFFFFFFFFFFFFFFFF AND CALLER PUSH20 0xFFFFFFFFFFFFFFFFFFFFFFFFFFFFFFFFFFFFFFFF AND EQ PUSH2 0x17A JUMPI PUSH1 0x40 MLOAD PUSH32 0xF7251CCF00000000000000000000000000000000000000000000000000000000 DUP2 MSTORE PUSH1 0x4 ADD PUSH2 0x171 SWAP1 PUSH2 0xDDF JUMP JUMPDEST PUSH1 0x40 MLOAD DUP1 SWAP2 SUB SWAP1 REVERT JUMPDEST DUP1 PUSH1 0xFF AND PUSH1 0x2 DUP2 SWAP1 SSTORE POP POP JUMP JUMPDEST PUSH0 DUP1 PUSH0 CALLER PUSH20 0xFFFFFFFFFFFFFFFFFFFFFFFFFFFFFFFFFFFFFFFF AND PUSH20 0xFFFFFFFFFFFFFFFFFFFFFFFFFFFFFFFFFFFFFFFF AND DUP2 MSTORE PUSH1 0x20 ADD SWAP1 DUP2 MSTORE PUSH1 0x20 ADD PUSH0 KECCAK256 PUSH1 0x40 MLOAD DUP1 PUSH1 0x60 ADD PUSH1 0x40 MSTORE SWAP1 DUP2 PUSH0 DUP3 ADD SLOAD DUP2 MSTORE PUSH1 0x20 ADD PUSH1 0x1 DUP3 ADD SLOAD DUP2 MSTORE PUSH1 0x20 ADD PUSH1 0x2 DUP3 ADD SLOAD DUP2 MSTORE POP POP SWAP1 POP PUSH0 DUP2 PUSH0 ADD MLOAD GT PUSH2 0x233 JUMPI PUSH1 0x40 MLOAD PUSH32 0x7979DC8700000000000000000000000000000000000000000000000000000000 DUP2 MSTORE PUSH1 0x4 ADD PUSH2 0x22A SWAP1 PUSH2 0xE47 JUMP JUMPDEST PUSH1 0x40 MLOAD DUP1 SWAP2 SUB SWAP1 REVERT JUMPDEST DUP1 PUSH1 0x20 ADD MLOAD TIMESTAMP LT ISZERO PUSH2 0x27A JUMPI PUSH1 0x40 MLOAD PUSH32 0x30F1C21600000000000000000000000000000000000000000000000000000000 DUP2 MSTORE PUSH1 0x4 ADD PUSH2 0x271 SWAP1 PUSH2 0xEAF JUMP JUMPDEST PUSH1 0x40 MLOAD DUP1 SWAP2 SUB SWAP1 REVERT JUMPDEST PUSH0 PUSH2 0xE10 DUP3 PUSH1 0x20 ADD MLOAD TIMESTAMP PUSH2 0x28E SWAP2 SWAP1 PUSH2 0xEFA JUMP JUMPDEST PUSH2 0x298 SWAP2 SWAP1 PUSH2 0xF2D JUMP JUMPDEST SWAP1 POP PUSH0 PUSH2 0xE10 DUP3 PUSH2 0x2A9 SWAP2 SWAP1 PUSH2 0xF8D JUMP JUMPDEST SWAP1 POP PUSH0 PUSH1 0x64 DUP3 DUP6 PUSH0 ADD MLOAD PUSH2 0x2BD SWAP2 SWAP1 PUSH2 0xFBD JUMP JUMPDEST PUSH1 0x2 SLOAD PUSH2 0x2CA SWAP2 SWAP1 PUSH2 0xFBD JUMP JUMPDEST PUSH2 0x2D4 SWAP2 SWAP1 PUSH2 0xF8D JUMP JUMPDEST SWAP1 POP DUP1 DUP5 PUSH0 ADD MLOAD PUSH2 0x2E5 SWAP2 SWAP1 PUSH2 0xF2D JUMP JUMPDEST PUSH32 0x0 PUSH20 0xFFFFFFFFFFFFFFFFFFFFFFFFFFFFFFFFFFFFFFFF AND PUSH4 0x70A08231 ADDRESS PUSH1 0x40 MLOAD DUP3 PUSH4 0xFFFFFFFF AND PUSH1 0xE0 SHL DUP2 MSTORE PUSH1 0x4 ADD PUSH2 0x33E SWAP2 SWAP1 PUSH2 0x100D JUMP JUMPDEST PUSH1 0x20 PUSH1 0x40 MLOAD DUP1 DUP4 SUB DUP2 DUP7 GAS STATICCALL ISZERO DUP1 ISZERO PUSH2 0x359 JUMPI RETURNDATASIZE PUSH0 DUP1 RETURNDATACOPY RETURNDATASIZE PUSH0 REVERT JUMPDEST POP POP POP POP PUSH1 0x40 MLOAD RETURNDATASIZE PUSH1 0x1F NOT PUSH1 0x1F DUP3 ADD AND DUP3 ADD DUP1 PUSH1 0x40 MSTORE POP DUP2 ADD SWAP1 PUSH2 0x37D SWAP2 SWAP1 PUSH2 0x103A JUMP JUMPDEST LT ISZERO PUSH2 0x3BE JUMPI PUSH1 0x40 MLOAD PUSH32 0x7979DC8700000000000000000000000000000000000000000000000000000000 DUP2 MSTORE PUSH1 0x4 ADD PUSH2 0x3B5 SWAP1 PUSH2 0x10AF JUMP JUMPDEST PUSH1 0x40 MLOAD DUP1 SWAP2 SUB SWAP1 REVERT JUMPDEST PUSH2 0x417 CALLER DUP3 DUP7 PUSH0 ADD MLOAD PUSH2 0x3D1 SWAP2 SWAP1 PUSH2 0xF2D JUMP JUMPDEST PUSH32 0x0 PUSH20 0xFFFFFFFFFFFFFFFFFFFFFFFFFFFFFFFFFFFFFFFF AND PUSH2 0x840 SWAP1 SWAP3 SWAP2 SWAP1 PUSH4 0xFFFFFFFF AND JUMP JUMPDEST CALLER PUSH20 0xFFFFFFFFFFFFFFFFFFFFFFFFFFFFFFFFFFFFFFFF AND PUSH32 0x884EDAD9CE6FA2440D8A54CC123490EB96D2768479D49FF9C7366125A9424364 DUP6 PUSH0 ADD MLOAD DUP4 PUSH2 0x45E SWAP2 SWAP1 PUSH2 0xF2D JUMP JUMPDEST PUSH1 0x40 MLOAD PUSH2 0x46B SWAP2 SWAP1 PUSH2 0x10CD JUMP JUMPDEST PUSH1 0x40 MLOAD DUP1 SWAP2 SUB SWAP1 LOG2 PUSH0 DUP1 PUSH0 CALLER PUSH20 0xFFFFFFFFFFFFFFFFFFFFFFFFFFFFFFFFFFFFFFFF AND PUSH20 0xFFFFFFFFFFFFFFFFFFFFFFFFFFFFFFFFFFFFFFFF AND DUP2 MSTORE PUSH1 0x20 ADD SWAP1 DUP2 MSTORE PUSH1 0x20 ADD PUSH0 KECCAK256 PUSH0 ADD DUP2 SWAP1 SSTORE POP PUSH0 DUP1 PUSH0 CALLER PUSH20 0xFFFFFFFFFFFFFFFFFFFFFFFFFFFFFFFFFFFFFFFF AND PUSH20 0xFFFFFFFFFFFFFFFFFFFFFFFFFFFFFFFFFFFFFFFF AND DUP2 MSTORE PUSH1 0x20 ADD SWAP1 DUP2 MSTORE PUSH1 0x20 ADD PUSH0 KECCAK256 PUSH1 0x1 ADD DUP2 SWAP1 SSTORE POP CALLER PUSH20 0xFFFFFFFFFFFFFFFFFFFFFFFFFFFFFFFFFFFFFFFF AND PUSH32 0x619CAAFABDD75649B302BA8419E48CCCF64F37F1983AC4727CFB38B57703FFC9 DUP3 PUSH1 0x40 MLOAD PUSH2 0x540 SWAP2 SWAP1 PUSH2 0x10CD JUMP JUMPDEST PUSH1 0x40 MLOAD DUP1 SWAP2 SUB SWAP1 LOG2 POP POP POP POP JUMP JUMPDEST PUSH0 PUSH1 0x20 MSTORE DUP1 PUSH0 MSTORE PUSH1 0x40 PUSH0 KECCAK256 PUSH0 SWAP2 POP SWAP1 POP DUP1 PUSH0 ADD SLOAD SWAP1 DUP1 PUSH1 0x1 ADD SLOAD SWAP1 DUP1 PUSH1 0x2 ADD SLOAD SWAP1 POP DUP4 JUMP JUMPDEST PUSH0 DUP1 PUSH0 CALLER PUSH20 0xFFFFFFFFFFFFFFFFFFFFFFFFFFFFFFFFFFFFFFFF AND PUSH20 0xFFFFFFFFFFFFFFFFFFFFFFFFFFFFFFFFFFFFFFFF AND DUP2 MSTORE PUSH1 0x20 ADD SWAP1 DUP2 MSTORE PUSH1 0x20 ADD PUSH0 KECCAK256 PUSH0 ADD SLOAD GT ISZERO PUSH2 0x5F4 JUMPI PUSH1 0x40 MLOAD PUSH32 0xDD028D800000000000000000000000000000000000000000000000000000000 DUP2 MSTORE PUSH1 0x4 ADD PUSH2 0x5EB SWAP1 PUSH2 0x117C JUMP JUMPDEST PUSH1 0x40 MLOAD DUP1 SWAP2 SUB SWAP1 REVERT JUMPDEST PUSH0 DUP2 GT ISZERO DUP1 PUSH2 0x699 JUMPI POP DUP1 PUSH32 0x0 PUSH20 0xFFFFFFFFFFFFFFFFFFFFFFFFFFFFFFFFFFFFFFFF AND PUSH4 0x70A08231 CALLER PUSH1 0x40 MLOAD DUP3 PUSH4 0xFFFFFFFF AND PUSH1 0xE0 SHL DUP2 MSTORE PUSH1 0x4 ADD PUSH2 0x658 SWAP2 SWAP1 PUSH2 0x100D JUMP JUMPDEST PUSH1 0x20 PUSH1 0x40 MLOAD DUP1 DUP4 SUB DUP2 DUP7 GAS STATICCALL ISZERO DUP1 ISZERO PUSH2 0x673 JUMPI RETURNDATASIZE PUSH0 DUP1 RETURNDATACOPY RETURNDATASIZE PUSH0 REVERT JUMPDEST POP POP POP POP PUSH1 0x40 MLOAD RETURNDATASIZE PUSH1 0x1F NOT PUSH1 0x1F DUP3 ADD AND DUP3 ADD DUP1 PUSH1 0x40 MSTORE POP DUP2 ADD SWAP1 PUSH2 0x697 SWAP2 SWAP1 PUSH2 0x103A JUMP JUMPDEST LT JUMPDEST ISZERO PUSH2 0x6D9 JUMPI PUSH1 0x40 MLOAD PUSH32 0x7979DC8700000000000000000000000000000000000000000000000000000000 DUP2 MSTORE PUSH1 0x4 ADD PUSH2 0x6D0 SWAP1 PUSH2 0x11E4 JUMP JUMPDEST PUSH1 0x40 MLOAD DUP1 SWAP2 SUB SWAP1 REVERT JUMPDEST PUSH2 0x726 CALLER ADDRESS DUP4 PUSH32 0x0 PUSH20 0xFFFFFFFFFFFFFFFFFFFFFFFFFFFFFFFFFFFFFFFF AND PUSH2 0x8BF SWAP1 SWAP4 SWAP3 SWAP2 SWAP1 PUSH4 0xFFFFFFFF AND JUMP JUMPDEST DUP1 PUSH0 DUP1 CALLER PUSH20 0xFFFFFFFFFFFFFFFFFFFFFFFFFFFFFFFFFFFFFFFF AND PUSH20 0xFFFFFFFFFFFFFFFFFFFFFFFFFFFFFFFFFFFFFFFF AND DUP2 MSTORE PUSH1 0x20 ADD SWAP1 DUP2 MSTORE PUSH1 0x20 ADD PUSH0 KECCAK256 PUSH0 ADD PUSH0 DUP3 DUP3 SLOAD PUSH2 0x773 SWAP2 SWAP1 PUSH2 0xF2D JUMP JUMPDEST SWAP3 POP POP DUP2 SWAP1 SSTORE POP PUSH2 0xE10 TIMESTAMP PUSH2 0x788 SWAP2 SWAP1 PUSH2 0xF2D JUMP JUMPDEST PUSH0 DUP1 CALLER PUSH20 0xFFFFFFFFFFFFFFFFFFFFFFFFFFFFFFFFFFFFFFFF AND PUSH20 0xFFFFFFFFFFFFFFFFFFFFFFFFFFFFFFFFFFFFFFFF AND DUP2 MSTORE PUSH1 0x20 ADD SWAP1 DUP2 MSTORE PUSH1 0x20 ADD PUSH0 KECCAK256 PUSH1 0x1 ADD DUP2 SWAP1 SSTORE POP CALLER PUSH20 0xFFFFFFFFFFFFFFFFFFFFFFFFFFFFFFFFFFFFFFFF AND PUSH32 0x9E71BC8EEA02A63969F509818F2DAFB9254532904319F9DBDA79B67BD34A5F3D DUP3 PUSH1 0x40 MLOAD PUSH2 0x811 SWAP2 SWAP1 PUSH2 0x10CD JUMP JUMPDEST PUSH1 0x40 MLOAD DUP1 SWAP2 SUB SWAP1 LOG2 POP JUMP JUMPDEST PUSH32 0x0 DUP2 JUMP JUMPDEST PUSH2 0x8BA DUP4 DUP5 PUSH20 0xFFFFFFFFFFFFFFFFFFFFFFFFFFFFFFFFFFFFFFFF AND PUSH4 0xA9059CBB DUP6 DUP6 PUSH1 0x40 MLOAD PUSH1 0x24 ADD PUSH2 0x873 SWAP3 SWAP2 SWAP1 PUSH2 0x1202 JUMP JUMPDEST PUSH1 0x40 MLOAD PUSH1 0x20 DUP2 DUP4 SUB SUB DUP2 MSTORE SWAP1 PUSH1 0x40 MSTORE SWAP2 POP PUSH1 0xE0 SHL PUSH1 0x20 DUP3 ADD DUP1 MLOAD PUSH28 0xFFFFFFFFFFFFFFFFFFFFFFFFFFFFFFFFFFFFFFFFFFFFFFFFFFFFFFFF DUP4 DUP2 DUP4 AND OR DUP4 MSTORE POP POP POP POP PUSH2 0x941 JUMP JUMPDEST POP POP POP JUMP JUMPDEST PUSH2 0x93B DUP5 DUP6 PUSH20 0xFFFFFFFFFFFFFFFFFFFFFFFFFFFFFFFFFFFFFFFF AND PUSH4 0x23B872DD DUP7 DUP7 DUP7 PUSH1 0x40 MLOAD PUSH1 0x24 ADD PUSH2 0x8F4 SWAP4 SWAP3 SWAP2 SWAP1 PUSH2 0x1229 JUMP JUMPDEST PUSH1 0x40 MLOAD PUSH1 0x20 DUP2 DUP4 SUB SUB DUP2 MSTORE SWAP1 PUSH1 0x40 MSTORE SWAP2 POP PUSH1 0xE0 SHL PUSH1 0x20 DUP3 ADD DUP1 MLOAD PUSH28 0xFFFFFFFFFFFFFFFFFFFFFFFFFFFFFFFFFFFFFFFFFFFFFFFFFFFFFFFF DUP4 DUP2 DUP4 AND OR DUP4 MSTORE POP POP POP POP PUSH2 0x941 JUMP JUMPDEST POP POP POP POP JUMP JUMPDEST PUSH0 PUSH2 0x96B DUP3 DUP5 PUSH20 0xFFFFFFFFFFFFFFFFFFFFFFFFFFFFFFFFFFFFFFFF AND PUSH2 0x9D6 SWAP1 SWAP2 SWAP1 PUSH4 0xFFFFFFFF AND JUMP JUMPDEST SWAP1 POP PUSH0 DUP2 MLOAD EQ ISZERO DUP1 ISZERO PUSH2 0x98F JUMPI POP DUP1 DUP1 PUSH1 0x20 ADD SWAP1 MLOAD DUP2 ADD SWAP1 PUSH2 0x98D SWAP2 SWAP1 PUSH2 0x1293 JUMP JUMPDEST ISZERO JUMPDEST ISZERO PUSH2 0x9D1 JUMPI DUP3 PUSH1 0x40 MLOAD PUSH32 0x5274AFE700000000000000000000000000000000000000000000000000000000 DUP2 MSTORE PUSH1 0x4 ADD PUSH2 0x9C8 SWAP2 SWAP1 PUSH2 0x100D JUMP JUMPDEST PUSH1 0x40 MLOAD DUP1 SWAP2 SUB SWAP1 REVERT JUMPDEST POP POP POP JUMP JUMPDEST PUSH1 0x60 PUSH2 0x9E3 DUP4 DUP4 PUSH0 PUSH2 0x9EB JUMP JUMPDEST SWAP1 POP SWAP3 SWAP2 POP POP JUMP JUMPDEST PUSH1 0x60 DUP2 SELFBALANCE LT ISZERO PUSH2 0xA32 JUMPI ADDRESS PUSH1 0x40 MLOAD PUSH32 0xCD78605900000000000000000000000000000000000000000000000000000000 DUP2 MSTORE PUSH1 0x4 ADD PUSH2 0xA29 SWAP2 SWAP1 PUSH2 0x100D JUMP JUMPDEST PUSH1 0x40 MLOAD DUP1 SWAP2 SUB SWAP1 REVERT JUMPDEST PUSH0 DUP1 DUP6 PUSH20 0xFFFFFFFFFFFFFFFFFFFFFFFFFFFFFFFFFFFFFFFF AND DUP5 DUP7 PUSH1 0x40 MLOAD PUSH2 0xA5A SWAP2 SWAP1 PUSH2 0x132A JUMP JUMPDEST PUSH0 PUSH1 0x40 MLOAD DUP1 DUP4 SUB DUP2 DUP6 DUP8 GAS CALL SWAP3 POP POP POP RETURNDATASIZE DUP1 PUSH0 DUP2 EQ PUSH2 0xA94 JUMPI PUSH1 0x40 MLOAD SWAP2 POP PUSH1 0x1F NOT PUSH1 0x3F RETURNDATASIZE ADD AND DUP3 ADD PUSH1 0x40 MSTORE RETURNDATASIZE DUP3 MSTORE RETURNDATASIZE PUSH0 PUSH1 0x20 DUP5 ADD RETURNDATACOPY PUSH2 0xA99 JUMP JUMPDEST PUSH1 0x60 SWAP2 POP JUMPDEST POP SWAP2 POP SWAP2 POP PUSH2 0xAA9 DUP7 DUP4 DUP4 PUSH2 0xAB4 JUMP JUMPDEST SWAP3 POP POP POP SWAP4 SWAP3 POP POP POP JUMP JUMPDEST PUSH1 0x60 DUP3 PUSH2 0xAC9 JUMPI PUSH2 0xAC4 DUP3 PUSH2 0xB41 JUMP JUMPDEST PUSH2 0xB39 JUMP JUMPDEST PUSH0 DUP3 MLOAD EQ DUP1 ISZERO PUSH2 0xAEF JUMPI POP PUSH0 DUP5 PUSH20 0xFFFFFFFFFFFFFFFFFFFFFFFFFFFFFFFFFFFFFFFF AND EXTCODESIZE EQ JUMPDEST ISZERO PUSH2 0xB31 JUMPI DUP4 PUSH1 0x40 MLOAD PUSH32 0x9996B31500000000000000000000000000000000000000000000000000000000 DUP2 MSTORE PUSH1 0x4 ADD PUSH2 0xB28 SWAP2 SWAP1 PUSH2 0x100D JUMP JUMPDEST PUSH1 0x40 MLOAD DUP1 SWAP2 SUB SWAP1 REVERT JUMPDEST DUP2 SWAP1 POP PUSH2 0xB3A JUMP JUMPDEST JUMPDEST SWAP4 SWAP3 POP POP POP JUMP JUMPDEST PUSH0 DUP2 MLOAD GT ISZERO PUSH2 0xB53 JUMPI DUP1 MLOAD DUP1 DUP3 PUSH1 0x20 ADD REVERT JUMPDEST PUSH1 0x40 MLOAD PUSH32 0x1425EA4200000000000000000000000000000000000000000000000000000000 DUP2 MSTORE PUSH1 0x4 ADD PUSH1 0x40 MLOAD DUP1 SWAP2 SUB SWAP1 REVERT JUMPDEST PUSH0 DUP1 REVERT JUMPDEST PUSH0 PUSH1 0xFF DUP3 AND SWAP1 POP SWAP2 SWAP1 POP JUMP JUMPDEST PUSH2 0xB9E DUP2 PUSH2 0xB89 JUMP JUMPDEST DUP2 EQ PUSH2 0xBA8 JUMPI PUSH0 DUP1 REVERT JUMPDEST POP JUMP JUMPDEST PUSH0 DUP2 CALLDATALOAD SWAP1 POP PUSH2 0xBB9 DUP2 PUSH2 0xB95 JUMP JUMPDEST SWAP3 SWAP2 POP POP JUMP JUMPDEST PUSH0 PUSH1 0x20 DUP3 DUP5 SUB SLT ISZERO PUSH2 0xBD4 JUMPI PUSH2 0xBD3 PUSH2 0xB85 JUMP JUMPDEST JUMPDEST PUSH0 PUSH2 0xBE1 DUP5 DUP3 DUP6 ADD PUSH2 0xBAB JUMP JUMPDEST SWAP2 POP POP SWAP3 SWAP2 POP POP JUMP JUMPDEST PUSH0 PUSH20 0xFFFFFFFFFFFFFFFFFFFFFFFFFFFFFFFFFFFFFFFF DUP3 AND SWAP1 POP SWAP2 SWAP1 POP JUMP JUMPDEST PUSH0 PUSH2 0xC13 DUP3 PUSH2 0xBEA JUMP JUMPDEST SWAP1 POP SWAP2 SWAP1 POP JUMP JUMPDEST PUSH2 0xC23 DUP2 PUSH2 0xC09 JUMP JUMPDEST DUP2 EQ PUSH2 0xC2D JUMPI PUSH0 DUP1 REVERT JUMPDEST POP JUMP JUMPDEST PUSH0 DUP2 CALLDATALOAD SWAP1 POP PUSH2 0xC3E DUP2 PUSH2 0xC1A JUMP JUMPDEST SWAP3 SWAP2 POP POP JUMP JUMPDEST PUSH0 PUSH1 0x20 DUP3 DUP5 SUB SLT ISZERO PUSH2 0xC59 JUMPI PUSH2 0xC58 PUSH2 0xB85 JUMP JUMPDEST JUMPDEST PUSH0 PUSH2 0xC66 DUP5 DUP3 DUP6 ADD PUSH2 0xC30 JUMP JUMPDEST SWAP2 POP POP SWAP3 SWAP2 POP POP JUMP JUMPDEST PUSH0 DUP2 SWAP1 POP SWAP2 SWAP1 POP JUMP JUMPDEST PUSH2 0xC81 DUP2 PUSH2 0xC6F JUMP JUMPDEST DUP3 MSTORE POP POP JUMP JUMPDEST PUSH0 PUSH1 0x60 DUP3 ADD SWAP1 POP PUSH2 0xC9A PUSH0 DUP4 ADD DUP7 PUSH2 0xC78 JUMP JUMPDEST PUSH2 0xCA7 PUSH1 0x20 DUP4 ADD DUP6 PUSH2 0xC78 JUMP JUMPDEST PUSH2 0xCB4 PUSH1 0x40 DUP4 ADD DUP5 PUSH2 0xC78 JUMP JUMPDEST SWAP5 SWAP4 POP POP POP POP JUMP JUMPDEST PUSH2 0xCC5 DUP2 PUSH2 0xC6F JUMP JUMPDEST DUP2 EQ PUSH2 0xCCF JUMPI PUSH0 DUP1 REVERT JUMPDEST POP JUMP JUMPDEST PUSH0 DUP2 CALLDATALOAD SWAP1 POP PUSH2 0xCE0 DUP2 PUSH2 0xCBC JUMP JUMPDEST SWAP3 SWAP2 POP POP JUMP JUMPDEST PUSH0 PUSH1 0x20 DUP3 DUP5 SUB SLT ISZERO PUSH2 0xCFB JUMPI PUSH2 0xCFA PUSH2 0xB85 JUMP JUMPDEST JUMPDEST PUSH0 PUSH2 0xD08 DUP5 DUP3 DUP6 ADD PUSH2 0xCD2 JUMP JUMPDEST SWAP2 POP POP SWAP3 SWAP2 POP POP JUMP JUMPDEST PUSH0 DUP2 SWAP1 POP SWAP2 SWAP1 POP JUMP JUMPDEST PUSH0 PUSH2 0xD34 PUSH2 0xD2F PUSH2 0xD2A DUP5 PUSH2 0xBEA JUMP JUMPDEST PUSH2 0xD11 JUMP JUMPDEST PUSH2 0xBEA JUMP JUMPDEST SWAP1 POP SWAP2 SWAP1 POP JUMP JUMPDEST PUSH0 PUSH2 0xD45 DUP3 PUSH2 0xD1A JUMP JUMPDEST SWAP1 POP SWAP2 SWAP1 POP JUMP JUMPDEST PUSH0 PUSH2 0xD56 DUP3 PUSH2 0xD3B JUMP JUMPDEST SWAP1 POP SWAP2 SWAP1 POP JUMP JUMPDEST PUSH2 0xD66 DUP2 PUSH2 0xD4C JUMP JUMPDEST DUP3 MSTORE POP POP JUMP JUMPDEST PUSH0 PUSH1 0x20 DUP3 ADD SWAP1 POP PUSH2 0xD7F PUSH0 DUP4 ADD DUP5 PUSH2 0xD5D JUMP JUMPDEST SWAP3 SWAP2 POP POP JUMP JUMPDEST PUSH0 DUP3 DUP3 MSTORE PUSH1 0x20 DUP3 ADD SWAP1 POP SWAP3 SWAP2 POP POP JUMP JUMPDEST PUSH32 0x796F75277265206E6F7420746865206F776E6572000000000000000000000000 PUSH0 DUP3 ADD MSTORE POP JUMP JUMPDEST PUSH0 PUSH2 0xDC9 PUSH1 0x14 DUP4 PUSH2 0xD85 JUMP JUMPDEST SWAP2 POP PUSH2 0xDD4 DUP3 PUSH2 0xD95 JUMP JUMPDEST PUSH1 0x20 DUP3 ADD SWAP1 POP SWAP2 SWAP1 POP JUMP JUMPDEST PUSH0 PUSH1 0x20 DUP3 ADD SWAP1 POP DUP2 DUP2 SUB PUSH0 DUP4 ADD MSTORE PUSH2 0xDF6 DUP2 PUSH2 0xDBD JUMP JUMPDEST SWAP1 POP SWAP2 SWAP1 POP JUMP JUMPDEST PUSH32 0x4E6F20546F6B656E73205374616B656400000000000000000000000000000000 PUSH0 DUP3 ADD MSTORE POP JUMP JUMPDEST PUSH0 PUSH2 0xE31 PUSH1 0x10 DUP4 PUSH2 0xD85 JUMP JUMPDEST SWAP2 POP PUSH2 0xE3C DUP3 PUSH2 0xDFD JUMP JUMPDEST PUSH1 0x20 DUP3 ADD SWAP1 POP SWAP2 SWAP1 POP JUMP JUMPDEST PUSH0 PUSH1 0x20 DUP3 ADD SWAP1 POP DUP2 DUP2 SUB PUSH0 DUP4 ADD MSTORE PUSH2 0xE5E DUP2 PUSH2 0xE25 JUMP JUMPDEST SWAP1 POP SWAP2 SWAP1 POP JUMP JUMPDEST PUSH32 0x596F752063616E2774207769746864726177206265666F7265203120686F7572 PUSH0 DUP3 ADD MSTORE POP JUMP JUMPDEST PUSH0 PUSH2 0xE99 PUSH1 0x20 DUP4 PUSH2 0xD85 JUMP JUMPDEST SWAP2 POP PUSH2 0xEA4 DUP3 PUSH2 0xE65 JUMP JUMPDEST PUSH1 0x20 DUP3 ADD SWAP1 POP SWAP2 SWAP1 POP JUMP JUMPDEST PUSH0 PUSH1 0x20 DUP3 ADD SWAP1 POP DUP2 DUP2 SUB PUSH0 DUP4 ADD MSTORE PUSH2 0xEC6 DUP2 PUSH2 0xE8D JUMP JUMPDEST SWAP1 POP SWAP2 SWAP1 POP JUMP JUMPDEST PUSH32 0x4E487B7100000000000000000000000000000000000000000000000000000000 PUSH0 MSTORE PUSH1 0x11 PUSH1 0x4 MSTORE PUSH1 0x24 PUSH0 REVERT JUMPDEST PUSH0 PUSH2 0xF04 DUP3 PUSH2 0xC6F JUMP JUMPDEST SWAP2 POP PUSH2 0xF0F DUP4 PUSH2 0xC6F JUMP JUMPDEST SWAP3 POP DUP3 DUP3 SUB SWAP1 POP DUP2 DUP2 GT ISZERO PUSH2 0xF27 JUMPI PUSH2 0xF26 PUSH2 0xECD JUMP JUMPDEST JUMPDEST SWAP3 SWAP2 POP POP JUMP JUMPDEST PUSH0 PUSH2 0xF37 DUP3 PUSH2 0xC6F JUMP JUMPDEST SWAP2 POP PUSH2 0xF42 DUP4 PUSH2 0xC6F JUMP JUMPDEST SWAP3 POP DUP3 DUP3 ADD SWAP1 POP DUP1 DUP3 GT ISZERO PUSH2 0xF5A JUMPI PUSH2 0xF59 PUSH2 0xECD JUMP JUMPDEST JUMPDEST SWAP3 SWAP2 POP POP JUMP JUMPDEST PUSH32 0x4E487B7100000000000000000000000000000000000000000000000000000000 PUSH0 MSTORE PUSH1 0x12 PUSH1 0x4 MSTORE PUSH1 0x24 PUSH0 REVERT JUMPDEST PUSH0 PUSH2 0xF97 DUP3 PUSH2 0xC6F JUMP JUMPDEST SWAP2 POP PUSH2 0xFA2 DUP4 PUSH2 0xC6F JUMP JUMPDEST SWAP3 POP DUP3 PUSH2 0xFB2 JUMPI PUSH2 0xFB1 PUSH2 0xF60 JUMP JUMPDEST JUMPDEST DUP3 DUP3 DIV SWAP1 POP SWAP3 SWAP2 POP POP JUMP JUMPDEST PUSH0 PUSH2 0xFC7 DUP3 PUSH2 0xC6F JUMP JUMPDEST SWAP2 POP PUSH2 0xFD2 DUP4 PUSH2 0xC6F JUMP JUMPDEST SWAP3 POP DUP3 DUP3 MUL PUSH2 0xFE0 DUP2 PUSH2 0xC6F JUMP JUMPDEST SWAP2 POP DUP3 DUP3 DIV DUP5 EQ DUP4 ISZERO OR PUSH2 0xFF7 JUMPI PUSH2 0xFF6 PUSH2 0xECD JUMP JUMPDEST JUMPDEST POP SWAP3 SWAP2 POP POP JUMP JUMPDEST PUSH2 0x1007 DUP2 PUSH2 0xC09 JUMP JUMPDEST DUP3 MSTORE POP POP JUMP JUMPDEST PUSH0 PUSH1 0x20 DUP3 ADD SWAP1 POP PUSH2 0x1020 PUSH0 DUP4 ADD DUP5 PUSH2 0xFFE JUMP JUMPDEST SWAP3 SWAP2 POP POP JUMP JUMPDEST PUSH0 DUP2 MLOAD SWAP1 POP PUSH2 0x1034 DUP2 PUSH2 0xCBC JUMP JUMPDEST SWAP3 SWAP2 POP POP JUMP JUMPDEST PUSH0 PUSH1 0x20 DUP3 DUP5 SUB SLT ISZERO PUSH2 0x104F JUMPI PUSH2 0x104E PUSH2 0xB85 JUMP JUMPDEST JUMPDEST PUSH0 PUSH2 0x105C DUP5 DUP3 DUP6 ADD PUSH2 0x1026 JUMP JUMPDEST SWAP2 POP POP SWAP3 SWAP2 POP POP JUMP JUMPDEST PUSH32 0x4E6F7420456E6F756768204D6F6E657920746F20676976652072657761726400 PUSH0 DUP3 ADD MSTORE POP JUMP JUMPDEST PUSH0 PUSH2 0x1099 PUSH1 0x1F DUP4 PUSH2 0xD85 JUMP JUMPDEST SWAP2 POP PUSH2 0x10A4 DUP3 PUSH2 0x1065 JUMP JUMPDEST PUSH1 0x20 DUP3 ADD SWAP1 POP SWAP2 SWAP1 POP JUMP JUMPDEST PUSH0 PUSH1 0x20 DUP3 ADD SWAP1 POP DUP2 DUP2 SUB PUSH0 DUP4 ADD MSTORE PUSH2 0x10C6 DUP2 PUSH2 0x108D JUMP JUMPDEST SWAP1 POP SWAP2 SWAP1 POP JUMP JUMPDEST PUSH0 PUSH1 0x20 DUP3 ADD SWAP1 POP PUSH2 0x10E0 PUSH0 DUP4 ADD DUP5 PUSH2 0xC78 JUMP JUMPDEST SWAP3 SWAP2 POP POP JUMP JUMPDEST PUSH32 0x596F752063616E2774207374616B6520616761696E20776974686F7574207769 PUSH0 DUP3 ADD MSTORE PUSH32 0x746864726177696E6720796F75722070726576696F7573206D6F6E6579206669 PUSH1 0x20 DUP3 ADD MSTORE PUSH32 0x7273740000000000000000000000000000000000000000000000000000000000 PUSH1 0x40 DUP3 ADD MSTORE POP JUMP JUMPDEST PUSH0 PUSH2 0x1166 PUSH1 0x43 DUP4 PUSH2 0xD85 JUMP JUMPDEST SWAP2 POP PUSH2 0x1171 DUP3 PUSH2 0x10E6 JUMP JUMPDEST PUSH1 0x60 DUP3 ADD SWAP1 POP SWAP2 SWAP1 POP JUMP JUMPDEST PUSH0 PUSH1 0x20 DUP3 ADD SWAP1 POP DUP2 DUP2 SUB PUSH0 DUP4 ADD MSTORE PUSH2 0x1193 DUP2 PUSH2 0x115A JUMP JUMPDEST SWAP1 POP SWAP2 SWAP1 POP JUMP JUMPDEST PUSH32 0x496E73756666696369656E742042616C616E6365000000000000000000000000 PUSH0 DUP3 ADD MSTORE POP JUMP JUMPDEST PUSH0 PUSH2 0x11CE PUSH1 0x14 DUP4 PUSH2 0xD85 JUMP JUMPDEST SWAP2 POP PUSH2 0x11D9 DUP3 PUSH2 0x119A JUMP JUMPDEST PUSH1 0x20 DUP3 ADD SWAP1 POP SWAP2 SWAP1 POP JUMP JUMPDEST PUSH0 PUSH1 0x20 DUP3 ADD SWAP1 POP DUP2 DUP2 SUB PUSH0 DUP4 ADD MSTORE PUSH2 0x11FB DUP2 PUSH2 0x11C2 JUMP JUMPDEST SWAP1 POP SWAP2 SWAP1 POP JUMP JUMPDEST PUSH0 PUSH1 0x40 DUP3 ADD SWAP1 POP PUSH2 0x1215 PUSH0 DUP4 ADD DUP6 PUSH2 0xFFE JUMP JUMPDEST PUSH2 0x1222 PUSH1 0x20 DUP4 ADD DUP5 PUSH2 0xC78 JUMP JUMPDEST SWAP4 SWAP3 POP POP POP JUMP JUMPDEST PUSH0 PUSH1 0x60 DUP3 ADD SWAP1 POP PUSH2 0x123C PUSH0 DUP4 ADD DUP7 PUSH2 0xFFE JUMP JUMPDEST PUSH2 0x1249 PUSH1 0x20 DUP4 ADD DUP6 PUSH2 0xFFE JUMP JUMPDEST PUSH2 0x1256 PUSH1 0x40 DUP4 ADD DUP5 PUSH2 0xC78 JUMP JUMPDEST SWAP5 SWAP4 POP POP POP POP JUMP JUMPDEST PUSH0 DUP2 ISZERO ISZERO SWAP1 POP SWAP2 SWAP1 POP JUMP JUMPDEST PUSH2 0x1272 DUP2 PUSH2 0x125E JUMP JUMPDEST DUP2 EQ PUSH2 0x127C JUMPI PUSH0 DUP1 REVERT JUMPDEST POP JUMP JUMPDEST PUSH0 DUP2 MLOAD SWAP1 POP PUSH2 0x128D DUP2 PUSH2 0x1269 JUMP JUMPDEST SWAP3 SWAP2 POP POP JUMP JUMPDEST PUSH0 PUSH1 0x20 DUP3 DUP5 SUB SLT ISZERO PUSH2 0x12A8 JUMPI PUSH2 0x12A7 PUSH2 0xB85 JUMP JUMPDEST JUMPDEST PUSH0 PUSH2 0x12B5 DUP5 DUP3 DUP6 ADD PUSH2 0x127F JUMP JUMPDEST SWAP2 POP POP SWAP3 SWAP2 POP POP JUMP JUMPDEST PUSH0 DUP2 MLOAD SWAP1 POP SWAP2 SWAP1 POP JUMP JUMPDEST PUSH0 DUP2 SWAP1 POP SWAP3 SWAP2 POP POP JUMP JUMPDEST PUSH0 JUMPDEST DUP4 DUP2 LT ISZERO PUSH2 0x12EF JUMPI DUP1 DUP3 ADD MLOAD DUP2 DUP5 ADD MSTORE PUSH1 0x20 DUP2 ADD SWAP1 POP PUSH2 0x12D4 JUMP JUMPDEST PUSH0 DUP5 DUP5 ADD MSTORE POP POP POP POP JUMP JUMPDEST PUSH0 PUSH2 0x1304 DUP3 PUSH2 0x12BE JUMP JUMPDEST PUSH2 0x130E DUP2 DUP6 PUSH2 0x12C8 JUMP JUMPDEST SWAP4 POP PUSH2 0x131E DUP2 DUP6 PUSH1 0x20 DUP7 ADD PUSH2 0x12D2 JUMP JUMPDEST DUP1 DUP5 ADD SWAP2 POP POP SWAP3 SWAP2 POP POP JUMP JUMPDEST PUSH0 PUSH2 0x1335 DUP3 DUP5 PUSH2 0x12FA JUMP JUMPDEST SWAP2 POP DUP2 SWAP1 POP SWAP3 SWAP2 POP POP JUMP INVALID LOG2 PUSH5 0x6970667358 0x22 SLT KECCAK256 0xCB SSTORE 0xE4 0xBC PUSH17 0xDCC5FF5C8D9E8F45C826F3BB1FEF74CC79 SWAP1 0xE5 DUP4 0xCF MSTORE8 0xC0 0xAA 0xC3 0xBF MUL PUSH5 0x736F6C6343 STOP ADDMOD XOR STOP CALLER "
				},
				"gasEstimates": {
					"creation": {
						"codeDepositCost": "996400",
						"executionCost": "infinite",
						"totalCost": "infinite"
					},
					"external": {
						"changeRebasingIndex(uint8)": "24674",
						"stake(uint256)": "infinite",
						"stakers(address)": "infinite",
						"token()": "infinite",
						"withdraw()": "infinite"
					}
				},
				"methodIdentifiers": {
					"changeRebasingIndex(uint8)": "337b8b96",
					"stake(uint256)": "a694fc3a",
					"stakers(address)": "9168ae72",
					"token()": "fc0c546a",
					"withdraw()": "3ccfd60b"
				}
			},
			"storageLayout": {
				"storage": [
					{
						"astId": 713,
						"contract": "staking.sol:StakingTokens",
						"label": "stakers",
						"offset": 0,
						"slot": "0",
						"type": "t_mapping(t_address,t_struct(stakeData)708_storage)"
					},
					{
						"astId": 715,
						"contract": "staking.sol:StakingTokens",
						"label": "owner",
						"offset": 0,
						"slot": "1",
						"type": "t_address"
					},
					{
						"astId": 718,
						"contract": "staking.sol:StakingTokens",
						"label": "rebasingIndex",
						"offset": 0,
						"slot": "2",
						"type": "t_uint256"
					},
					{
						"astId": 720,
						"contract": "staking.sol:StakingTokens",
						"label": "toGiveReward",
						"offset": 0,
						"slot": "3",
						"type": "t_uint256"
					},
					{
						"astId": 723,
						"contract": "staking.sol:StakingTokens",
						"label": "totalStakedTokens",
						"offset": 0,
						"slot": "4",
						"type": "t_uint256"
					},
					{
						"astId": 726,
						"contract": "staking.sol:StakingTokens",
						"label": "totalTokensReceivedToUser",
						"offset": 0,
						"slot": "5",
						"type": "t_uint256"
					}
				],
				"types": {
					"t_address": {
						"encoding": "inplace",
						"label": "address",
						"numberOfBytes": "20"
					},
					"t_mapping(t_address,t_struct(stakeData)708_storage)": {
						"encoding": "mapping",
						"key": "t_address",
						"label": "mapping(address => struct StakingTokens.stakeData)",
						"numberOfBytes": "32",
						"value": "t_struct(stakeData)708_storage"
					},
					"t_struct(stakeData)708_storage": {
						"encoding": "inplace",
						"label": "struct StakingTokens.stakeData",
						"members": [
							{
								"astId": 703,
								"contract": "staking.sol:StakingTokens",
								"label": "amount",
								"offset": 0,
								"slot": "0",
								"type": "t_uint256"
							},
							{
								"astId": 705,
								"contract": "staking.sol:StakingTokens",
								"label": "timestamp",
								"offset": 0,
								"slot": "1",
								"type": "t_uint256"
							},
							{
								"astId": 707,
								"contract": "staking.sol:StakingTokens",
								"label": "tokensHeGetting",
								"offset": 0,
								"slot": "2",
								"type": "t_uint256"
							}
						],
						"numberOfBytes": "96"
					},
					"t_uint256": {
						"encoding": "inplace",
						"label": "uint256",
						"numberOfBytes": "32"
					}
				}
			},
			"userdoc": {
				"kind": "user",
				"methods": {
					"stake(uint256)": {
						"notice": "It allows a user to stake tokens but the amount can't be 0 and checks if they have sufficient balance to stake."
					},
					"withdraw()": {
						"notice": "It allows user to withdraw only after 1 hour and also checks if they have non-zero balance in their account. It will take out all the amount from their account."
					}
				},
				"version": 1
			}
		}
	}
}